{
  "_format": "hh-sol-artifact-1",
  "contractName": "CivicChainRegistry",
  "sourceName": "contracts/CivicChainRegistry.sol",
  "abi": [
    {
      "inputs": [],
      "stateMutability": "nonpayable",
      "type": "constructor"
    },
    {
      "anonymous": false,
      "inputs": [
        {
          "indexed": true,
          "internalType": "address",
          "name": "agency",
          "type": "address"
        },
        {
          "indexed": false,
          "internalType": "string",
          "name": "department",
          "type": "string"
        },
        {
          "indexed": false,
          "internalType": "string",
          "name": "publicKey",
          "type": "string"
        }
      ],
      "name": "AgencyRegistered",
      "type": "event"
    },
    {
      "anonymous": false,
      "inputs": [
        {
          "indexed": true,
          "internalType": "uint256",
          "name": "caseId",
          "type": "uint256"
        },
        {
          "indexed": true,
          "internalType": "address",
          "name": "creator",
          "type": "address"
        },
        {
          "indexed": false,
          "internalType": "string",
          "name": "metadataCID",
          "type": "string"
        },
        {
          "indexed": false,
          "internalType": "string",
          "name": "department",
          "type": "string"
        }
      ],
      "name": "CaseCreated",
      "type": "event"
    },
    {
      "anonymous": false,
      "inputs": [
        {
          "indexed": true,
          "internalType": "uint256",
          "name": "caseId",
          "type": "uint256"
        }
      ],
      "name": "PublicEscalationTriggered",
      "type": "event"
    },
    {
      "anonymous": false,
      "inputs": [
        {
          "indexed": true,
          "internalType": "uint256",
          "name": "caseId",
          "type": "uint256"
        },
        {
          "indexed": false,
          "internalType": "enum CivicChainRegistry.CaseStatus",
          "name": "newStatus",
          "type": "uint8"
        }
      ],
      "name": "StatusUpdated",
      "type": "event"
    },
    {
      "inputs": [
        {
          "internalType": "address",
          "name": "agency",
          "type": "address"
        },
        {
          "internalType": "string",
          "name": "department",
          "type": "string"
        }
      ],
      "name": "addAgency",
      "outputs": [],
      "stateMutability": "nonpayable",
      "type": "function"
    },
    {
      "inputs": [],
      "name": "admin",
      "outputs": [
        {
          "internalType": "address",
          "name": "",
          "type": "address"
        }
      ],
      "stateMutability": "view",
      "type": "function"
    },
    {
      "inputs": [
        {
          "internalType": "address",
          "name": "",
          "type": "address"
        }
      ],
      "name": "agencyPublicKeys",
      "outputs": [
        {
          "internalType": "string",
          "name": "",
          "type": "string"
        }
      ],
      "stateMutability": "view",
      "type": "function"
    },
    {
      "inputs": [
        {
          "internalType": "address",
          "name": "",
          "type": "address"
        }
      ],
      "name": "authorizedAgencies",
      "outputs": [
        {
          "internalType": "bool",
          "name": "",
          "type": "bool"
        }
      ],
      "stateMutability": "view",
      "type": "function"
    },
    {
      "inputs": [],
      "name": "caseCount",
      "outputs": [
        {
          "internalType": "uint256",
          "name": "",
          "type": "uint256"
        }
      ],
      "stateMutability": "view",
      "type": "function"
    },
    {
      "inputs": [
        {
          "internalType": "uint256",
          "name": "",
          "type": "uint256"
        }
      ],
      "name": "cases",
      "outputs": [
        {
          "internalType": "uint256",
          "name": "caseId",
          "type": "uint256"
        },
        {
          "internalType": "address",
          "name": "creator",
          "type": "address"
        },
        {
          "internalType": "bytes32",
          "name": "fileHash",
          "type": "bytes32"
        },
        {
          "internalType": "uint256",
          "name": "createdAt",
          "type": "uint256"
        },
        {
          "internalType": "uint256",
          "name": "slaDeadline",
          "type": "uint256"
        },
        {
          "internalType": "enum CivicChainRegistry.CaseStatus",
          "name": "status",
          "type": "uint8"
        }
      ],
      "stateMutability": "view",
      "type": "function"
    },
    {
      "inputs": [
        {
          "internalType": "bytes32",
          "name": "_fileHash",
          "type": "bytes32"
        },
        {
          "internalType": "string",
          "name": "_metadataCID",
          "type": "string"
        },
        {
          "internalType": "string",
          "name": "_department",
          "type": "string"
        }
      ],
      "name": "createCase",
      "outputs": [
        {
          "internalType": "uint256",
          "name": "",
          "type": "uint256"
        }
      ],
      "stateMutability": "nonpayable",
      "type": "function"
    },
    {
      "inputs": [
        {
          "internalType": "string",
          "name": "",
          "type": "string"
        }
      ],
      "name": "departmentToAgency",
      "outputs": [
        {
          "internalType": "address",
          "name": "",
          "type": "address"
        }
      ],
      "stateMutability": "view",
      "type": "function"
    },
    {
      "inputs": [
        {
          "internalType": "string",
          "name": "department",
          "type": "string"
        }
      ],
      "name": "getAgencyPublicKey",
      "outputs": [
        {
          "internalType": "string",
          "name": "",
          "type": "string"
        }
      ],
      "stateMutability": "view",
      "type": "function"
    },
    {
      "inputs": [
        {
          "internalType": "string",
          "name": "department",
          "type": "string"
        },
        {
          "internalType": "string",
          "name": "publicKey",
          "type": "string"
        }
      ],
      "name": "registerAgencyDetails",
      "outputs": [],
      "stateMutability": "nonpayable",
      "type": "function"
    },
    {
      "inputs": [
        {
          "internalType": "address",
          "name": "agency",
          "type": "address"
        },
        {
          "internalType": "string",
          "name": "department",
          "type": "string"
        }
      ],
      "name": "removeAgency",
      "outputs": [],
      "stateMutability": "nonpayable",
      "type": "function"
    },
    {
      "inputs": [
        {
          "internalType": "uint256",
          "name": "_caseId",
          "type": "uint256"
        }
      ],
      "name": "triggerEscalation",
      "outputs": [],
      "stateMutability": "nonpayable",
      "type": "function"
    },
    {
      "inputs": [
        {
          "internalType": "uint256",
          "name": "_caseId",
          "type": "uint256"
        },
        {
          "internalType": "enum CivicChainRegistry.CaseStatus",
          "name": "_newStatus",
          "type": "uint8"
        }
      ],
      "name": "updateStatus",
      "outputs": [],
      "stateMutability": "nonpayable",
      "type": "function"
    }
  ],
  "bytecode": "0x608060405234801561001057600080fd5b5033600260006101000a81548173ffffffffffffffffffffffffffffffffffffffff021916908373ffffffffffffffffffffffffffffffffffffffff160217905550611efd806100616000396000f3fe608060405234801561001057600080fd5b50600436106100cf5760003560e01c8063b1996b071161008c578063da2d7e9511610066578063da2d7e9514610234578063f09790dd14610252578063f5e14f5a14610287578063f851a440146102a3576100cf565b8063b1996b07146101b8578063c87ef701146101e8578063c996bf1514610204576100cf565b806308f14fed146100d45780633a1b3d311461010457806350799785146101205780635861d6021461013c5780638777c6a8146101585780639999081a14610188575b600080fd5b6100ee60048036038101906100e99190611216565b6102c1565b6040516100fb91906112de565b60405180910390f35b61011e6004803603810190610119919061135b565b610445565b005b61013a6004803603810190610135919061139b565b61067c565b005b61015660048036038101906101519190611426565b6108b8565b005b610172600480360381019061016d9190611216565b610a5e565b60405161017f9190611491565b60405180910390f35b6101a2600480360381019061019d91906114ac565b610aa7565b6040516101af91906114f4565b60405180910390f35b6101d260048036038101906101cd9190611545565b610ac7565b6040516101df91906115df565b60405180910390f35b61020260048036038101906101fd91906115fa565b610c5c565b005b61021e600480360381019061021991906114ac565b610e3e565b60405161022b91906112de565b60405180910390f35b61023c610ede565b60405161024991906115df565b60405180910390f35b61026c6004803603810190610267919061139b565b610ee4565b60405161027e969594939291906116f8565b60405180910390f35b6102a1600480360381019061029c9190611426565b610f4d565b005b6102ab611096565b6040516102b89190611491565b60405180910390f35b606060006004836040516102d59190611795565b908152602001604051809103902060009054906101000a900473ffffffffffffffffffffffffffffffffffffffff169050600073ffffffffffffffffffffffffffffffffffffffff168173ffffffffffffffffffffffffffffffffffffffff1603610375576040517f08c379a000000000000000000000000000000000000000000000000000000000815260040161036c906117f8565b60405180910390fd5b600560008273ffffffffffffffffffffffffffffffffffffffff1673ffffffffffffffffffffffffffffffffffffffff16815260200190815260200160002080546103bf90611847565b80601f01602080910402602001604051908101604052809291908181526020018280546103eb90611847565b80156104385780601f1061040d57610100808354040283529160200191610438565b820191906000526020600020905b81548152906001019060200180831161041b57829003601f168201915b5050505050915050919050565b600360003373ffffffffffffffffffffffffffffffffffffffff1673ffffffffffffffffffffffffffffffffffffffff16815260200190815260200160002060009054906101000a900460ff16806104ea5750600260009054906101000a900473ffffffffffffffffffffffffffffffffffffffff1673ffffffffffffffffffffffffffffffffffffffff163373ffffffffffffffffffffffffffffffffffffffff16145b610529576040517f08c379a0000000000000000000000000000000000000000000000000000000008152600401610520906118c4565b60405180910390fd5b60008211801561053b57506001548211155b61057a576040517f08c379a000000000000000000000000000000000000000000000000000000000815260040161057190611930565b60405180910390fd5b6003600681111561058e5761058d611681565b5b60008084815260200190815260200160002060050160009054906101000a900460ff1660068111156105c3576105c2611681565b5b03610603576040517f08c379a00000000000000000000000000000000000000000000000000000000081526004016105fa906119c2565b60405180910390fd5b8060008084815260200190815260200160002060050160006101000a81548160ff0219169083600681111561063b5761063a611681565b5b0217905550817f2da7b23ca63c1eb969eee5fae4acb98186abecf5358b0354a82a5183ebca6b2a8260405161067091906119e2565b60405180910390a25050565b60008111801561068e57506001548111155b6106cd576040517f08c379a00000000000000000000000000000000000000000000000000000000081526004016106c490611930565b60405180910390fd5b6000806000838152602001908152602001600020905080600401544211610729576040517f08c379a000000000000000000000000000000000000000000000000000000000815260040161072090611a49565b60405180910390fd5b6000600681111561073d5761073c611681565b5b8160050160009054906101000a900460ff16600681111561076157610760611681565b5b14806107a257506001600681111561077c5761077b611681565b5b8160050160009054906101000a900460ff1660068111156107a05761079f611681565b5b145b806107e25750600260068111156107bc576107bb611681565b5b8160050160009054906101000a900460ff1660068111156107e0576107df611681565b5b145b610821576040517f08c379a000000000000000000000000000000000000000000000000000000000815260040161081890611adb565b60405180910390fd5b60038160050160006101000a81548160ff0219169083600681111561084957610848611681565b5b0217905550817f2da7b23ca63c1eb969eee5fae4acb98186abecf5358b0354a82a5183ebca6b2a600360405161087f91906119e2565b60405180910390a2817f6e94a7b758cd510278841f00f51e41ba01b5430f73fc515cb9ebf9f0c5dcf1f660405160405180910390a25050565b600260009054906101000a900473ffffffffffffffffffffffffffffffffffffffff1673ffffffffffffffffffffffffffffffffffffffff163373ffffffffffffffffffffffffffffffffffffffff1614610948576040517f08c379a000000000000000000000000000000000000000000000000000000000815260040161093f90611b47565b60405180910390fd5b6000600360008473ffffffffffffffffffffffffffffffffffffffff1673ffffffffffffffffffffffffffffffffffffffff16815260200190815260200160002060006101000a81548160ff02191690831515021790555060006004826040516109b29190611795565b908152602001604051809103902060006101000a81548173ffffffffffffffffffffffffffffffffffffffff021916908373ffffffffffffffffffffffffffffffffffffffff16021790555060405180602001604052806000815250600560008473ffffffffffffffffffffffffffffffffffffffff1673ffffffffffffffffffffffffffffffffffffffff1681526020019081526020016000209081610a599190611d13565b505050565b6004818051602081018201805184825260208301602085012081835280955050505050506000915054906101000a900473ffffffffffffffffffffffffffffffffffffffff1681565b60036020528060005260406000206000915054906101000a900460ff1681565b600060016000815480929190610adc90611e14565b9190505550600060015490506040518060c001604052808281526020013373ffffffffffffffffffffffffffffffffffffffff1681526020018681526020014281526020016213c68042610b309190611e5c565b815260200160006006811115610b4957610b48611681565b5b8152506000808381526020019081526020016000206000820151816000015560208201518160010160006101000a81548173ffffffffffffffffffffffffffffffffffffffff021916908373ffffffffffffffffffffffffffffffffffffffff16021790555060408201518160020155606082015181600301556080820151816004015560a08201518160050160006101000a81548160ff02191690836006811115610bf857610bf7611681565b5b02179055509050503373ffffffffffffffffffffffffffffffffffffffff16817fcd29ad816d80aa66db971719cfd948b5f3b0de8b3e94c7f89182014bc2bd81a58686604051610c49929190611e90565b60405180910390a3809150509392505050565b600360003373ffffffffffffffffffffffffffffffffffffffff1673ffffffffffffffffffffffffffffffffffffffff16815260200190815260200160002060009054906101000a900460ff1680610d015750600260009054906101000a900473ffffffffffffffffffffffffffffffffffffffff1673ffffffffffffffffffffffffffffffffffffffff163373ffffffffffffffffffffffffffffffffffffffff16145b610d40576040517f08c379a0000000000000000000000000000000000000000000000000000000008152600401610d37906118c4565b60405180910390fd5b80600560003373ffffffffffffffffffffffffffffffffffffffff1673ffffffffffffffffffffffffffffffffffffffff1681526020019081526020016000209081610d8c9190611d13565b5033600483604051610d9e9190611795565b908152602001604051809103902060006101000a81548173ffffffffffffffffffffffffffffffffffffffff021916908373ffffffffffffffffffffffffffffffffffffffff1602179055503373ffffffffffffffffffffffffffffffffffffffff167f6adeb04e8a89ef1dfcc9e4d022301d26fb5f7dfc303e42519b83312b12c09e578383604051610e32929190611e90565b60405180910390a25050565b60056020528060005260406000206000915090508054610e5d90611847565b80601f0160208091040260200160405190810160405280929190818152602001828054610e8990611847565b8015610ed65780601f10610eab57610100808354040283529160200191610ed6565b820191906000526020600020905b815481529060010190602001808311610eb957829003601f168201915b505050505081565b60015481565b60006020528060005260406000206000915090508060000154908060010160009054906101000a900473ffffffffffffffffffffffffffffffffffffffff16908060020154908060030154908060040154908060050160009054906101000a900460ff16905086565b600260009054906101000a900473ffffffffffffffffffffffffffffffffffffffff1673ffffffffffffffffffffffffffffffffffffffff163373ffffffffffffffffffffffffffffffffffffffff1614610fdd576040517f08c379a0000000000000000000000000000000000000000000000000000000008152600401610fd490611b47565b60405180910390fd5b6001600360008473ffffffffffffffffffffffffffffffffffffffff1673ffffffffffffffffffffffffffffffffffffffff16815260200190815260200160002060006101000a81548160ff021916908315150217905550816004826040516110469190611795565b908152602001604051809103902060006101000a81548173ffffffffffffffffffffffffffffffffffffffff021916908373ffffffffffffffffffffffffffffffffffffffff1602179055505050565b600260009054906101000a900473ffffffffffffffffffffffffffffffffffffffff1681565b6000604051905090565b600080fd5b600080fd5b600080fd5b600080fd5b6000601f19601f8301169050919050565b7f4e487b7100000000000000000000000000000000000000000000000000000000600052604160045260246000fd5b611123826110da565b810181811067ffffffffffffffff82111715611142576111416110eb565b5b80604052505050565b60006111556110bc565b9050611161828261111a565b919050565b600067ffffffffffffffff821115611181576111806110eb565b5b61118a826110da565b9050602081019050919050565b82818337600083830152505050565b60006111b96111b484611166565b61114b565b9050828152602081018484840111156111d5576111d46110d5565b5b6111e0848285611197565b509392505050565b600082601f8301126111fd576111fc6110d0565b5b813561120d8482602086016111a6565b91505092915050565b60006020828403121561122c5761122b6110c6565b5b600082013567ffffffffffffffff81111561124a576112496110cb565b5b611256848285016111e8565b91505092915050565b600081519050919050565b600082825260208201905092915050565b60005b8381101561129957808201518184015260208101905061127e565b60008484015250505050565b60006112b08261125f565b6112ba818561126a565b93506112ca81856020860161127b565b6112d3816110da565b840191505092915050565b600060208201905081810360008301526112f881846112a5565b905092915050565b6000819050919050565b61131381611300565b811461131e57600080fd5b50565b6000813590506113308161130a565b92915050565b6007811061134357600080fd5b50565b60008135905061135581611336565b92915050565b60008060408385031215611372576113716110c6565b5b600061138085828601611321565b925050602061139185828601611346565b9150509250929050565b6000602082840312156113b1576113b06110c6565b5b60006113bf84828501611321565b91505092915050565b600073ffffffffffffffffffffffffffffffffffffffff82169050919050565b60006113f3826113c8565b9050919050565b611403816113e8565b811461140e57600080fd5b50565b600081359050611420816113fa565b92915050565b6000806040838503121561143d5761143c6110c6565b5b600061144b85828601611411565b925050602083013567ffffffffffffffff81111561146c5761146b6110cb565b5b611478858286016111e8565b9150509250929050565b61148b816113e8565b82525050565b60006020820190506114a66000830184611482565b92915050565b6000602082840312156114c2576114c16110c6565b5b60006114d084828501611411565b91505092915050565b60008115159050919050565b6114ee816114d9565b82525050565b600060208201905061150960008301846114e5565b92915050565b6000819050919050565b6115228161150f565b811461152d57600080fd5b50565b60008135905061153f81611519565b92915050565b60008060006060848603121561155e5761155d6110c6565b5b600061156c86828701611530565b935050602084013567ffffffffffffffff81111561158d5761158c6110cb565b5b611599868287016111e8565b925050604084013567ffffffffffffffff8111156115ba576115b96110cb565b5b6115c6868287016111e8565b9150509250925092565b6115d981611300565b82525050565b60006020820190506115f460008301846115d0565b92915050565b60008060408385031215611611576116106110c6565b5b600083013567ffffffffffffffff81111561162f5761162e6110cb565b5b61163b858286016111e8565b925050602083013567ffffffffffffffff81111561165c5761165b6110cb565b5b611668858286016111e8565b9150509250929050565b61167b8161150f565b82525050565b7f4e487b7100000000000000000000000000000000000000000000000000000000600052602160045260246000fd5b600781106116c1576116c0611681565b5b50565b60008190506116d2826116b0565b919050565b60006116e2826116c4565b9050919050565b6116f2816116d7565b82525050565b600060c08201905061170d60008301896115d0565b61171a6020830188611482565b6117276040830187611672565b61173460608301866115d0565b61174160808301856115d0565b61174e60a08301846116e9565b979650505050505050565b600081905092915050565b600061176f8261125f565b6117798185611759565b935061178981856020860161127b565b80840191505092915050565b60006117a18284611764565b915081905092915050565b7f4465706172746d656e74206e6f74207265676973746572656400000000000000600082015250565b60006117e260198361126a565b91506117ed826117ac565b602082019050919050565b60006020820190508181036000830152611811816117d5565b9050919050565b7f4e487b7100000000000000000000000000000000000000000000000000000000600052602260045260246000fd5b6000600282049050600182168061185f57607f821691505b60208210810361187257611871611818565b5b50919050565b7f4e6f7420617574686f72697a6564000000000000000000000000000000000000600082015250565b60006118ae600e8361126a565b91506118b982611878565b602082019050919050565b600060208201905081810360008301526118dd816118a1565b9050919050565b7f496e76616c696420636173652049440000000000000000000000000000000000600082015250565b600061191a600f8361126a565b9150611925826118e4565b602082019050919050565b600060208201905081810360008301526119498161190d565b9050919050565b7f43616e6e6f742075706461746520657363616c617465642063617365206e617460008201527f6976656c79000000000000000000000000000000000000000000000000000000602082015250565b60006119ac60258361126a565b91506119b782611950565b604082019050919050565b600060208201905081810360008301526119db8161199f565b9050919050565b60006020820190506119f760008301846116e9565b92915050565b7f534c4120646561646c696e65206e6f7420796574207265616368656400000000600082015250565b6000611a33601c8361126a565b9150611a3e826119fd565b602082019050919050565b60006020820190508181036000830152611a6281611a26565b9050919050565b7f43617365206973206e6f7420696e20616e20657363616c617461626c6520737460008201527f6174650000000000000000000000000000000000000000000000000000000000602082015250565b6000611ac560238361126a565b9150611ad082611a69565b604082019050919050565b60006020820190508181036000830152611af481611ab8565b9050919050565b7f4f6e6c792061646d696e2063616e2063616c6c20746869730000000000000000600082015250565b6000611b3160188361126a565b9150611b3c82611afb565b602082019050919050565b60006020820190508181036000830152611b6081611b24565b9050919050565b60008190508160005260206000209050919050565b60006020601f8301049050919050565b600082821b905092915050565b600060088302611bc97fffffffffffffffffffffffffffffffffffffffffffffffffffffffffffffffff82611b8c565b611bd38683611b8c565b95508019841693508086168417925050509392505050565b6000819050919050565b6000611c10611c0b611c0684611300565b611beb565b611300565b9050919050565b6000819050919050565b611c2a83611bf5565b611c3e611c3682611c17565b848454611b99565b825550505050565b600090565b611c53611c46565b611c5e818484611c21565b505050565b5b81811015611c8257611c77600082611c4b565b600181019050611c64565b5050565b601f821115611cc757611c9881611b67565b611ca184611b7c565b81016020851015611cb0578190505b611cc4611cbc85611b7c565b830182611c63565b50505b505050565b600082821c905092915050565b6000611cea60001984600802611ccc565b1980831691505092915050565b6000611d038383611cd9565b9150826002028217905092915050565b611d1c8261125f565b67ffffffffffffffff811115611d3557611d346110eb565b5b611d3f8254611847565b611d4a828285611c86565b600060209050601f831160018114611d7d5760008415611d6b578287015190505b611d758582611cf7565b865550611ddd565b601f198416611d8b86611b67565b60005b82811015611db357848901518255600182019150602085019450602081019050611d8e565b86831015611dd05784890151611dcc601f891682611cd9565b8355505b6001600288020188555050505b505050505050565b7f4e487b7100000000000000000000000000000000000000000000000000000000600052601160045260246000fd5b6000611e1f82611300565b91507fffffffffffffffffffffffffffffffffffffffffffffffffffffffffffffffff8203611e5157611e50611de5565b5b600182019050919050565b6000611e6782611300565b9150611e7283611300565b9250828201905080821115611e8a57611e89611de5565b5b92915050565b60006040820190508181036000830152611eaa81856112a5565b90508181036020830152611ebe81846112a5565b9050939250505056fea264697066735822122081c0791989650a9cac61b30ebdbbb730dc4eb07975252896359b4d68bfa83fbe64736f6c63430008180033",
  "linkReferences": {},
  "deployedLinkReferences": {}
}