{
  "_format": "hh-sol-artifact-1",
  "contractName": "ShadowVault",
  "sourceName": "contracts/ShadowVault.sol",
  "abi": [
    {
      "inputs": [
        {
          "internalType": "address",
          "name": "_verifier",
          "type": "address"
        }
      ],
      "stateMutability": "nonpayable",
      "type": "constructor"
    },
    {
      "anonymous": false,
      "inputs": [
        {
          "indexed": true,
          "internalType": "bytes32",
          "name": "commitment",
          "type": "bytes32"
        },
        {
          "indexed": false,
          "internalType": "uint256",
          "name": "leafIndex",
          "type": "uint256"
        },
        {
          "indexed": false,
          "internalType": "uint256",
          "name": "timestamp",
          "type": "uint256"
        }
      ],
      "name": "Deposit",
      "type": "event"
    },
    {
      "anonymous": false,
      "inputs": [
        {
          "indexed": true,
          "internalType": "address",
          "name": "recipient",
          "type": "address"
        },
        {
          "indexed": false,
          "internalType": "bytes32",
          "name": "nullifierHash",
          "type": "bytes32"
        },
        {
          "indexed": false,
          "internalType": "uint256",
          "name": "timestamp",
          "type": "uint256"
        }
      ],
      "name": "Withdrawal",
      "type": "event"
    },
    {
      "inputs": [],
      "name": "DENOMINATION",
      "outputs": [
        {
          "internalType": "uint256",
          "name": "",
          "type": "uint256"
        }
      ],
      "stateMutability": "view",
      "type": "function"
    },
    {
      "inputs": [],
      "name": "anonymitySetSize",
      "outputs": [
        {
          "internalType": "uint256",
          "name": "",
          "type": "uint256"
        }
      ],
      "stateMutability": "view",
      "type": "function"
    },
    {
      "inputs": [
        {
          "internalType": "uint256",
          "name": "",
          "type": "uint256"
        }
      ],
      "name": "commitmentHistory",
      "outputs": [
        {
          "internalType": "bytes32",
          "name": "",
          "type": "bytes32"
        }
      ],
      "stateMutability": "view",
      "type": "function"
    },
    {
      "inputs": [
        {
          "internalType": "bytes32",
          "name": "",
          "type": "bytes32"
        }
      ],
      "name": "commitments",
      "outputs": [
        {
          "internalType": "bool",
          "name": "",
          "type": "bool"
        }
      ],
      "stateMutability": "view",
      "type": "function"
    },
    {
      "inputs": [
        {
          "internalType": "bytes32",
          "name": "_commitment",
          "type": "bytes32"
        }
      ],
      "name": "deposit",
      "outputs": [],
      "stateMutability": "payable",
      "type": "function"
    },
    {
      "inputs": [
        {
          "internalType": "bytes32",
          "name": "_commitment",
          "type": "bytes32"
        }
      ],
      "name": "isCommitmentValid",
      "outputs": [
        {
          "internalType": "bool",
          "name": "",
          "type": "bool"
        }
      ],
      "stateMutability": "view",
      "type": "function"
    },
    {
      "inputs": [
        {
          "internalType": "bytes32",
          "name": "_nullifierHash",
          "type": "bytes32"
        }
      ],
      "name": "isNullifierSpent",
      "outputs": [
        {
          "internalType": "bool",
          "name": "",
          "type": "bool"
        }
      ],
      "stateMutability": "view",
      "type": "function"
    },
    {
      "inputs": [
        {
          "internalType": "bytes32",
          "name": "",
          "type": "bytes32"
        }
      ],
      "name": "nullifierHashes",
      "outputs": [
        {
          "internalType": "bool",
          "name": "",
          "type": "bool"
        }
      ],
      "stateMutability": "view",
      "type": "function"
    },
    {
      "inputs": [],
      "name": "verifier",
      "outputs": [
        {
          "internalType": "contract IGroth16Verifier",
          "name": "",
          "type": "address"
        }
      ],
      "stateMutability": "view",
      "type": "function"
    },
    {
      "inputs": [
        {
          "internalType": "uint256[2]",
          "name": "_pA",
          "type": "uint256[2]"
        },
        {
          "internalType": "uint256[2][2]",
          "name": "_pB",
          "type": "uint256[2][2]"
        },
        {
          "internalType": "uint256[2]",
          "name": "_pC",
          "type": "uint256[2]"
        },
        {
          "internalType": "bytes32",
          "name": "_commitment",
          "type": "bytes32"
        },
        {
          "internalType": "bytes32",
          "name": "_nullifierHash",
          "type": "bytes32"
        },
        {
          "internalType": "address payable",
          "name": "_recipient",
          "type": "address"
        }
      ],
      "name": "withdraw",
      "outputs": [],
      "stateMutability": "nonpayable",
      "type": "function"
    }
  ],
  "bytecode": "0x60a06040523480156200001157600080fd5b50604051620014863803806200148683398181016040528101906200003791906200014e565b600073ffffffffffffffffffffffffffffffffffffffff168173ffffffffffffffffffffffffffffffffffffffff1603620000a9576040517f08c379a0000000000000000000000000000000000000000000000000000000008152600401620000a090620001e1565b60405180910390fd5b8073ffffffffffffffffffffffffffffffffffffffff1660808173ffffffffffffffffffffffffffffffffffffffff16815250505062000203565b600080fd5b600073ffffffffffffffffffffffffffffffffffffffff82169050919050565b60006200011682620000e9565b9050919050565b620001288162000109565b81146200013457600080fd5b50565b60008151905062000148816200011d565b92915050565b600060208284031215620001675762000166620000e4565b5b6000620001778482850162000137565b91505092915050565b600082825260208201905092915050565b7f5a65726f20766572696669657220616464726573730000000000000000000000600082015250565b6000620001c960158362000180565b9150620001d68262000191565b602082019050919050565b60006020820190508181036000830152620001fc81620001ba565b9050919050565b60805161126062000226600039600081816102af015261067e01526112606000f3fe6080604052600436106100915760003560e01c80638b01429d116100595780638b01429d146101a35780639f2944c1146101ce578063b214faa51461020b578063d5a4e32514610227578063dcab5d1e1461026457610091565b806317cc915c146100965780632b7ac3f3146100d35780632dc0d0d0146100fe57806342ffdb9914610129578063839df94514610166575b600080fd5b3480156100a257600080fd5b506100bd60048036038101906100b891906108cf565b61028d565b6040516100ca9190610917565b60405180910390f35b3480156100df57600080fd5b506100e86102ad565b6040516100f591906109b1565b60405180910390f35b34801561010a57600080fd5b506101136102d1565b60405161012091906109e5565b60405180910390f35b34801561013557600080fd5b50610150600480360381019061014b91906108cf565b6102de565b60405161015d9190610917565b60405180910390f35b34801561017257600080fd5b5061018d600480360381019061018891906108cf565b610307565b60405161019a9190610917565b60405180910390f35b3480156101af57600080fd5b506101b8610327565b6040516101c591906109e5565b60405180910390f35b3480156101da57600080fd5b506101f560048036038101906101f09190610a2c565b610333565b6040516102029190610a68565b60405180910390f35b610225600480360381019061022091906108cf565b610357565b005b34801561023357600080fd5b5061024e600480360381019061024991906108cf565b6104e8565b60405161025b9190610917565b60405180910390f35b34801561027057600080fd5b5061028b60048036038101906102869190610b0a565b610512565b005b60016020528060005260406000206000915054906101000a900460ff1681565b7f000000000000000000000000000000000000000000000000000000000000000081565b6000600280549050905090565b600080600083815260200190815260200160002060009054906101000a900460ff169050919050565b60006020528060005260406000206000915054906101000a900460ff1681565b67016345785d8a000081565b6002818154811061034357600080fd5b906000526020600020016000915090505481565b67016345785d8a000034146103a1576040517f08c379a000000000000000000000000000000000000000000000000000000000815260040161039890610bf8565b60405180910390fd5b6000801b81036103e6576040517f08c379a00000000000000000000000000000000000000000000000000000000081526004016103dd90610c64565b60405180910390fd5b60008082815260200190815260200160002060009054906101000a900460ff1615610446576040517f08c379a000000000000000000000000000000000000000000000000000000000815260040161043d90610cd0565b60405180910390fd5b600160008083815260200190815260200160002060006101000a81548160ff0219169083151502179055506002819080600181540180825580915050600190039060005260206000200160009091909190915055807fe1f1096fd8bc7d572fb7ad7e4102736b6615500975c0252ea91ef1b765c4989760016002805490506104ce9190610d1f565b426040516104dd929190610d53565b60405180910390a250565b60006001600083815260200190815260200160002060009054906101000a900460ff169050919050565b600073ffffffffffffffffffffffffffffffffffffffff168173ffffffffffffffffffffffffffffffffffffffff1603610581576040517f08c379a000000000000000000000000000000000000000000000000000000000815260040161057890610dc8565b60405180910390fd5b6001600083815260200190815260200160002060009054906101000a900460ff16156105e2576040517f08c379a00000000000000000000000000000000000000000000000000000000081526004016105d990610e34565b60405180910390fd5b60008084815260200190815260200160002060009054906101000a900460ff16610641576040517f08c379a000000000000000000000000000000000000000000000000000000000815260040161063890610ea0565b60405180910390fd5b600060405180606001604052808560001c81526020018460001c81526020018373ffffffffffffffffffffffffffffffffffffffff1681525090507f000000000000000000000000000000000000000000000000000000000000000073ffffffffffffffffffffffffffffffffffffffff166311479fea888888856040518563ffffffff1660e01b81526004016106db9493929190611043565b602060405180830381865afa1580156106f8573d6000803e3d6000fd5b505050506040513d601f19601f8201168201806040525081019061071c91906110b6565b61075b576040517f08c379a00000000000000000000000000000000000000000000000000000000081526004016107529061112f565b60405180910390fd5b600180600085815260200190815260200160002060006101000a81548160ff02191690831515021790555060008273ffffffffffffffffffffffffffffffffffffffff1667016345785d8a00006040516107b490611180565b60006040518083038185875af1925050503d80600081146107f1576040519150601f19603f3d011682016040523d82523d6000602084013e6107f6565b606091505b505090508061083a576040517f08c379a0000000000000000000000000000000000000000000000000000000008152600401610831906111e1565b60405180910390fd5b8273ffffffffffffffffffffffffffffffffffffffff167f4206db6775563d1043abfcf27cd0ecd19fcc464be574a1487fc95b24957a671a8542604051610882929190611201565b60405180910390a25050505050505050565b600080fd5b6000819050919050565b6108ac81610899565b81146108b757600080fd5b50565b6000813590506108c9816108a3565b92915050565b6000602082840312156108e5576108e4610894565b5b60006108f3848285016108ba565b91505092915050565b60008115159050919050565b610911816108fc565b82525050565b600060208201905061092c6000830184610908565b92915050565b600073ffffffffffffffffffffffffffffffffffffffff82169050919050565b6000819050919050565b600061097761097261096d84610932565b610952565b610932565b9050919050565b60006109898261095c565b9050919050565b600061099b8261097e565b9050919050565b6109ab81610990565b82525050565b60006020820190506109c660008301846109a2565b92915050565b6000819050919050565b6109df816109cc565b82525050565b60006020820190506109fa60008301846109d6565b92915050565b610a09816109cc565b8114610a1457600080fd5b50565b600081359050610a2681610a00565b92915050565b600060208284031215610a4257610a41610894565b5b6000610a5084828501610a17565b91505092915050565b610a6281610899565b82525050565b6000602082019050610a7d6000830184610a59565b92915050565b600080fd5b600081905082602060020282011115610aa457610aa3610a83565b5b92915050565b600081905082604060020282011115610ac657610ac5610a83565b5b92915050565b6000610ad782610932565b9050919050565b610ae781610acc565b8114610af257600080fd5b50565b600081359050610b0481610ade565b92915050565b6000806000806000806101608789031215610b2857610b27610894565b5b6000610b3689828a01610a88565b9650506040610b4789828a01610aaa565b95505060c0610b5889828a01610a88565b945050610100610b6a89828a016108ba565b935050610120610b7c89828a016108ba565b925050610140610b8e89828a01610af5565b9150509295509295509295565b600082825260208201905092915050565b7f53656e642065786163746c7920302e3120455448000000000000000000000000600082015250565b6000610be2601483610b9b565b9150610bed82610bac565b602082019050919050565b60006020820190508181036000830152610c1181610bd5565b9050919050565b7f496e76616c696420636f6d6d69746d656e740000000000000000000000000000600082015250565b6000610c4e601283610b9b565b9150610c5982610c18565b602082019050919050565b60006020820190508181036000830152610c7d81610c41565b9050919050565b7f436f6d6d69746d656e7420616c72656164792065786973747300000000000000600082015250565b6000610cba601983610b9b565b9150610cc582610c84565b602082019050919050565b60006020820190508181036000830152610ce981610cad565b9050919050565b7f4e487b7100000000000000000000000000000000000000000000000000000000600052601160045260246000fd5b6000610d2a826109cc565b9150610d35836109cc565b9250828203905081811115610d4d57610d4c610cf0565b5b92915050565b6000604082019050610d6860008301856109d6565b610d7560208301846109d6565b9392505050565b7f496e76616c696420726563697069656e74000000000000000000000000000000600082015250565b6000610db2601183610b9b565b9150610dbd82610d7c565b602082019050919050565b60006020820190508181036000830152610de181610da5565b9050919050565b7f4e756c6c696669657220616c7265616479207370656e74000000000000000000600082015250565b6000610e1e601783610b9b565b9150610e2982610de8565b602082019050919050565b60006020820190508181036000830152610e4d81610e11565b9050919050565b7f436f6d6d69746d656e7420646f6573206e6f7420657869737400000000000000600082015250565b6000610e8a601983610b9b565b9150610e9582610e54565b602082019050919050565b60006020820190508181036000830152610eb981610e7d565b9050919050565b82818337505050565b610ed560408383610ec0565b5050565b600060029050919050565b600081905092915050565b6000819050919050565b610f0560408383610ec0565b5050565b6000610f158383610ef9565b60408301905092915050565b600082905092915050565b6000604082019050919050565b610f4281610ed9565b610f4c8184610ee4565b9250610f5782610eef565b8060005b83811015610f9057610f6d8284610f21565b610f778782610f09565b9650610f8283610f2c565b925050600181019050610f5b565b505050505050565b600060039050919050565b600081905092915050565b6000819050919050565b610fc1816109cc565b82525050565b6000610fd38383610fb8565b60208301905092915050565b6000602082019050919050565b610ff581610f98565b610fff8184610fa3565b925061100a82610fae565b8060005b8381101561103b5781516110228782610fc7565b965061102d83610fdf565b92505060018101905061100e565b505050505050565b6000610160820190506110596000830187610ec9565b6110666040830186610f39565b61107360c0830185610ec9565b611081610100830184610fec565b95945050505050565b611093816108fc565b811461109e57600080fd5b50565b6000815190506110b08161108a565b92915050565b6000602082840312156110cc576110cb610894565b5b60006110da848285016110a1565b91505092915050565b7f496e76616c6964205a4b2070726f6f6600000000000000000000000000000000600082015250565b6000611119601083610b9b565b9150611124826110e3565b602082019050919050565b600060208201905081810360008301526111488161110c565b9050919050565b600081905092915050565b50565b600061116a60008361114f565b91506111758261115a565b600082019050919050565b600061118b8261115d565b9150819050919050565b7f455448207472616e73666572206661696c656400000000000000000000000000600082015250565b60006111cb601383610b9b565b91506111d682611195565b602082019050919050565b600060208201905081810360008301526111fa816111be565b9050919050565b60006040820190506112166000830185610a59565b61122360208301846109d6565b939250505056fea2646970667358221220b1697579180b9f8c6e7dd1befa9def381478833c810f3dcb0385cff9daa611fc64736f6c63430008180033",
  "linkReferences": {},
  "deployedLinkReferences": {}
}