{
  "_format": "hh-sol-artifact-1",
  "contractName": "WhistleblowerPortal",
  "sourceName": "contracts/WhistleblowerPortal.sol",
  "abi": [
    {
      "inputs": [
        {
          "internalType": "address[]",
          "name": "_initialCouncil",
          "type": "address[]"
        }
      ],
      "stateMutability": "nonpayable",
      "type": "constructor"
    },
    {
      "anonymous": false,
      "inputs": [
        {
          "indexed": true,
          "internalType": "bytes32",
          "name": "caseId",
          "type": "bytes32"
        }
      ],
      "name": "CaseVerified",
      "type": "event"
    },
    {
      "anonymous": false,
      "inputs": [
        {
          "indexed": true,
          "internalType": "bytes32",
          "name": "caseId",
          "type": "bytes32"
        },
        {
          "indexed": false,
          "internalType": "string",
          "name": "cid",
          "type": "string"
        }
      ],
      "name": "ReportSubmitted",
      "type": "event"
    },
    {
      "anonymous": false,
      "inputs": [
        {
          "indexed": true,
          "internalType": "bytes32",
          "name": "caseId",
          "type": "bytes32"
        },
        {
          "indexed": false,
          "internalType": "enum WhistleblowerPortal.CaseStatus",
          "name": "newStatus",
          "type": "uint8"
        }
      ],
      "name": "StatusChanged",
      "type": "event"
    },
    {
      "inputs": [],
      "name": "VOTES_REQUIRED",
      "outputs": [
        {
          "internalType": "uint8",
          "name": "",
          "type": "uint8"
        }
      ],
      "stateMutability": "view",
      "type": "function"
    },
    {
      "inputs": [
        {
          "internalType": "bytes32",
          "name": "_caseId",
          "type": "bytes32"
        }
      ],
      "name": "getCaseStatus",
      "outputs": [
        {
          "internalType": "enum WhistleblowerPortal.CaseStatus",
          "name": "",
          "type": "uint8"
        }
      ],
      "stateMutability": "view",
      "type": "function"
    },
    {
      "inputs": [
        {
          "internalType": "bytes32",
          "name": "",
          "type": "bytes32"
        },
        {
          "internalType": "address",
          "name": "",
          "type": "address"
        }
      ],
      "name": "hasVoted",
      "outputs": [
        {
          "internalType": "bool",
          "name": "",
          "type": "bool"
        }
      ],
      "stateMutability": "view",
      "type": "function"
    },
    {
      "inputs": [
        {
          "internalType": "address",
          "name": "",
          "type": "address"
        }
      ],
      "name": "isCouncilMember",
      "outputs": [
        {
          "internalType": "bool",
          "name": "",
          "type": "bool"
        }
      ],
      "stateMutability": "view",
      "type": "function"
    },
    {
      "inputs": [
        {
          "internalType": "bytes32",
          "name": "",
          "type": "bytes32"
        }
      ],
      "name": "reports",
      "outputs": [
        {
          "internalType": "string",
          "name": "cid",
          "type": "string"
        },
        {
          "internalType": "uint256",
          "name": "timestamp",
          "type": "uint256"
        },
        {
          "internalType": "enum WhistleblowerPortal.CaseStatus",
          "name": "status",
          "type": "uint8"
        },
        {
          "internalType": "uint8",
          "name": "verificationCount",
          "type": "uint8"
        },
        {
          "internalType": "bool",
          "name": "exists",
          "type": "bool"
        }
      ],
      "stateMutability": "view",
      "type": "function"
    },
    {
      "inputs": [
        {
          "internalType": "bytes32",
          "name": "_caseId",
          "type": "bytes32"
        },
        {
          "internalType": "string",
          "name": "_cid",
          "type": "string"
        }
      ],
      "name": "submitReport",
      "outputs": [],
      "stateMutability": "nonpayable",
      "type": "function"
    },
    {
      "inputs": [
        {
          "internalType": "bytes32",
          "name": "_caseId",
          "type": "bytes32"
        }
      ],
      "name": "verifyCase",
      "outputs": [],
      "stateMutability": "nonpayable",
      "type": "function"
    }
  ],
  "bytecode": "0x60806040523480156200001157600080fd5b50604051620016e8380380620016e88339818101604052810190620000379190620002bc565b60005b8151811015620000c65760018060008484815181106200005f576200005e6200030d565b5b602002602001015173ffffffffffffffffffffffffffffffffffffffff1673ffffffffffffffffffffffffffffffffffffffff16815260200190815260200160002060006101000a81548160ff02191690831515021790555080806001019150506200003a565b50506200033c565b6000604051905090565b600080fd5b600080fd5b600080fd5b6000601f19601f8301169050919050565b7f4e487b7100000000000000000000000000000000000000000000000000000000600052604160045260246000fd5b6200013282620000e7565b810181811067ffffffffffffffff82111715620001545762000153620000f8565b5b80604052505050565b600062000169620000ce565b905062000177828262000127565b919050565b600067ffffffffffffffff8211156200019a5762000199620000f8565b5b602082029050602081019050919050565b600080fd5b600073ffffffffffffffffffffffffffffffffffffffff82169050919050565b6000620001dd82620001b0565b9050919050565b620001ef81620001d0565b8114620001fb57600080fd5b50565b6000815190506200020f81620001e4565b92915050565b60006200022c62000226846200017c565b6200015d565b90508083825260208201905060208402830185811115620002525762000251620001ab565b5b835b818110156200027f57806200026a8882620001fe565b84526020840193505060208101905062000254565b5050509392505050565b600082601f830112620002a157620002a0620000e2565b5b8151620002b384826020860162000215565b91505092915050565b600060208284031215620002d557620002d4620000d8565b5b600082015167ffffffffffffffff811115620002f657620002f5620000dd565b5b620003048482850162000289565b91505092915050565b7f4e487b7100000000000000000000000000000000000000000000000000000000600052603260045260246000fd5b61139c806200034c6000396000f3fe608060405234801561001057600080fd5b506004361061007d5760003560e01c8063b39c48971161005b578063b39c4897146100fe578063b97680d714610132578063c4d665f11461014e578063ebd7dc521461016c5761007d565b8063224905ce14610082578063258198af1461009e578063aadc3b72146100ce575b600080fd5b61009c600480360381019061009791906109c6565b61019c565b005b6100b860048036038101906100b391906109c6565b610654565b6040516100c59190610a6a565b60405180910390f35b6100e860048036038101906100e39190610ae3565b610680565b6040516100f59190610b3e565b60405180910390f35b610118600480360381019061011391906109c6565b6106af565b604051610129959493929190610c1e565b60405180910390f35b61014c60048036038101906101479190610cdd565b610794565b005b610156610961565b6040516101639190610d3d565b60405180910390f35b61018660048036038101906101819190610d58565b610966565b6040516101939190610b3e565b60405180910390f35b600160003373ffffffffffffffffffffffffffffffffffffffff1673ffffffffffffffffffffffffffffffffffffffff16815260200190815260200160002060009054906101000a900460ff16610228576040517f08c379a000000000000000000000000000000000000000000000000000000000815260040161021f90610dd1565b60405180910390fd5b60008082815260200190815260200160002060020160029054906101000a900460ff1661028a576040517f08c379a000000000000000000000000000000000000000000000000000000000815260040161028190610e3d565b60405180910390fd5b6002600082815260200190815260200160002060003373ffffffffffffffffffffffffffffffffffffffff1673ffffffffffffffffffffffffffffffffffffffff16815260200190815260200160002060009054906101000a900460ff1615610328576040517f08c379a000000000000000000000000000000000000000000000000000000000815260040161031f90610ea9565b60405180910390fd5b6000600381111561033c5761033b6109f3565b5b60008083815260200190815260200160002060020160009054906101000a900460ff166003811115610371576103706109f3565b5b14806103c357506001600381111561038c5761038b6109f3565b5b60008083815260200190815260200160002060020160009054906101000a900460ff1660038111156103c1576103c06109f3565b5b145b610402576040517f08c379a00000000000000000000000000000000000000000000000000000000081526004016103f990610f15565b60405180910390fd5b60016002600083815260200190815260200160002060003373ffffffffffffffffffffffffffffffffffffffff1673ffffffffffffffffffffffffffffffffffffffff16815260200190815260200160002060006101000a81548160ff021916908315150217905550600080828152602001908152602001600020600201600181819054906101000a900460ff168092919061049d90610f64565b91906101000a81548160ff021916908360ff16021790555050600060038111156104ca576104c96109f3565b5b60008083815260200190815260200160002060020160009054906101000a900460ff1660038111156104ff576104fe6109f3565b5b0361057c57600160008083815260200190815260200160002060020160006101000a81548160ff0219169083600381111561053d5761053c6109f3565b5b0217905550807f22ce671cd3f328f71ef109d846af764df2d16bb8eb664c4f41065656c6e9962c60016040516105739190610a6a565b60405180910390a25b600360ff1660008083815260200190815260200160002060020160019054906101000a900460ff1660ff161061065157600260008083815260200190815260200160002060020160006101000a81548160ff021916908360038111156105e5576105e46109f3565b5b0217905550807f4b519481c83763e2ba8808371cc5e5e1e3eefd0a580467f02e21198147298a1560405160405180910390a2807f22ce671cd3f328f71ef109d846af764df2d16bb8eb664c4f41065656c6e9962c60026040516106489190610a6a565b60405180910390a25b50565b600080600083815260200190815260200160002060020160009054906101000a900460ff169050919050565b60026020528160005260406000206020528060005260406000206000915091509054906101000a900460ff1681565b60006020528060005260406000206000915090508060000180546106d290610fbc565b80601f01602080910402602001604051908101604052809291908181526020018280546106fe90610fbc565b801561074b5780601f106107205761010080835404028352916020019161074b565b820191906000526020600020905b81548152906001019060200180831161072e57829003601f168201915b5050505050908060010154908060020160009054906101000a900460ff16908060020160019054906101000a900460ff16908060020160029054906101000a900460ff16905085565b60008084815260200190815260200160002060020160029054906101000a900460ff16156107f7576040517f08c379a00000000000000000000000000000000000000000000000000000000081526004016107ee90611039565b60405180910390fd5b6040518060a0016040528083838080601f016020809104026020016040519081016040528093929190818152602001838380828437600081840152601f19601f82011690508083019250505050505050815260200142815260200160006003811115610866576108656109f3565b5b8152602001600060ff1681526020016001151581525060008085815260200190815260200160002060008201518160000190816108a39190611234565b506020820151816001015560408201518160020160006101000a81548160ff021916908360038111156108d9576108d86109f3565b5b021790555060608201518160020160016101000a81548160ff021916908360ff16021790555060808201518160020160026101000a81548160ff021916908315150217905550905050827feaeae23492543dcf2aaed81bca96790b723c2af0caaf126fe062e69f93e1fe328383604051610954929190611342565b60405180910390a2505050565b600381565b60016020528060005260406000206000915054906101000a900460ff1681565b600080fd5b600080fd5b6000819050919050565b6109a381610990565b81146109ae57600080fd5b50565b6000813590506109c08161099a565b92915050565b6000602082840312156109dc576109db610986565b5b60006109ea848285016109b1565b91505092915050565b7f4e487b7100000000000000000000000000000000000000000000000000000000600052602160045260246000fd5b60048110610a3357610a326109f3565b5b50565b6000819050610a4482610a22565b919050565b6000610a5482610a36565b9050919050565b610a6481610a49565b82525050565b6000602082019050610a7f6000830184610a5b565b92915050565b600073ffffffffffffffffffffffffffffffffffffffff82169050919050565b6000610ab082610a85565b9050919050565b610ac081610aa5565b8114610acb57600080fd5b50565b600081359050610add81610ab7565b92915050565b60008060408385031215610afa57610af9610986565b5b6000610b08858286016109b1565b9250506020610b1985828601610ace565b9150509250929050565b60008115159050919050565b610b3881610b23565b82525050565b6000602082019050610b536000830184610b2f565b92915050565b600081519050919050565b600082825260208201905092915050565b60005b83811015610b93578082015181840152602081019050610b78565b60008484015250505050565b6000601f19601f8301169050919050565b6000610bbb82610b59565b610bc58185610b64565b9350610bd5818560208601610b75565b610bde81610b9f565b840191505092915050565b6000819050919050565b610bfc81610be9565b82525050565b600060ff82169050919050565b610c1881610c02565b82525050565b600060a0820190508181036000830152610c388188610bb0565b9050610c476020830187610bf3565b610c546040830186610a5b565b610c616060830185610c0f565b610c6e6080830184610b2f565b9695505050505050565b600080fd5b600080fd5b600080fd5b60008083601f840112610c9d57610c9c610c78565b5b8235905067ffffffffffffffff811115610cba57610cb9610c7d565b5b602083019150836001820283011115610cd657610cd5610c82565b5b9250929050565b600080600060408486031215610cf657610cf5610986565b5b6000610d04868287016109b1565b935050602084013567ffffffffffffffff811115610d2557610d2461098b565b5b610d3186828701610c87565b92509250509250925092565b6000602082019050610d526000830184610c0f565b92915050565b600060208284031215610d6e57610d6d610986565b5b6000610d7c84828501610ace565b91505092915050565b7f4e6f74206120636f756e63696c206d656d626572000000000000000000000000600082015250565b6000610dbb601483610b64565b9150610dc682610d85565b602082019050919050565b60006020820190508181036000830152610dea81610dae565b9050919050565b7f4361736520646f6573206e6f7420657869737400000000000000000000000000600082015250565b6000610e27601383610b64565b9150610e3282610df1565b602082019050919050565b60006020820190508181036000830152610e5681610e1a565b9050919050565b7f416c726561647920766f74656400000000000000000000000000000000000000600082015250565b6000610e93600d83610b64565b9150610e9e82610e5d565b602082019050919050565b60006020820190508181036000830152610ec281610e86565b9050919050565b7f496e76616c696420737461747573000000000000000000000000000000000000600082015250565b6000610eff600e83610b64565b9150610f0a82610ec9565b602082019050919050565b60006020820190508181036000830152610f2e81610ef2565b9050919050565b7f4e487b7100000000000000000000000000000000000000000000000000000000600052601160045260246000fd5b6000610f6f82610c02565b915060ff8203610f8257610f81610f35565b5b600182019050919050565b7f4e487b7100000000000000000000000000000000000000000000000000000000600052602260045260246000fd5b60006002820490506001821680610fd457607f821691505b602082108103610fe757610fe6610f8d565b5b50919050565b7f4361736520494420616c72656164792065786973747300000000000000000000600082015250565b6000611023601683610b64565b915061102e82610fed565b602082019050919050565b6000602082019050818103600083015261105281611016565b9050919050565b7f4e487b7100000000000000000000000000000000000000000000000000000000600052604160045260246000fd5b60008190508160005260206000209050919050565b60006020601f8301049050919050565b600082821b905092915050565b6000600883026110ea7fffffffffffffffffffffffffffffffffffffffffffffffffffffffffffffffff826110ad565b6110f486836110ad565b95508019841693508086168417925050509392505050565b6000819050919050565b600061113161112c61112784610be9565b61110c565b610be9565b9050919050565b6000819050919050565b61114b83611116565b61115f61115782611138565b8484546110ba565b825550505050565b600090565b611174611167565b61117f818484611142565b505050565b5b818110156111a35761119860008261116c565b600181019050611185565b5050565b601f8211156111e8576111b981611088565b6111c28461109d565b810160208510156111d1578190505b6111e56111dd8561109d565b830182611184565b50505b505050565b600082821c905092915050565b600061120b600019846008026111ed565b1980831691505092915050565b600061122483836111fa565b9150826002028217905092915050565b61123d82610b59565b67ffffffffffffffff81111561125657611255611059565b5b6112608254610fbc565b61126b8282856111a7565b600060209050601f83116001811461129e576000841561128c578287015190505b6112968582611218565b8655506112fe565b601f1984166112ac86611088565b60005b828110156112d4578489015182556001820191506020850194506020810190506112af565b868310156112f157848901516112ed601f8916826111fa565b8355505b6001600288020188555050505b505050505050565b82818337600083830152505050565b60006113218385610b64565b935061132e838584611306565b61133783610b9f565b840190509392505050565b6000602082019050818103600083015261135d818486611315565b9050939250505056fea2646970667358221220f1ff5e98e3a96edd46c32dec1d851d4908fb53af885e164f1f8c6a255c95e98d64736f6c63430008180033",
  "linkReferences": {},
  "deployedLinkReferences": {}
}