{
  "_format": "hh-sol-artifact-1",
  "contractName": "Groth16Verifier",
  "sourceName": "contracts/Groth16Verifier.sol",
  "abi": [
    {
      "inputs": [],
      "name": "DEV_MODE",
      "outputs": [
        {
          "internalType": "bool",
          "name": "",
          "type": "bool"
        }
      ],
      "stateMutability": "view",
      "type": "function"
    },
    {
      "inputs": [
        {
          "internalType": "uint256[2]",
          "name": "pA",
          "type": "uint256[2]"
        },
        {
          "internalType": "uint256[2][2]",
          "name": "pB",
          "type": "uint256[2][2]"
        },
        {
          "internalType": "uint256[2]",
          "name": "pC",
          "type": "uint256[2]"
        },
        {
          "internalType": "uint256[3]",
          "name": "publicSignals",
          "type": "uint256[3]"
        }
      ],
      "name": "verifyProof",
      "outputs": [
        {
          "internalType": "bool",
          "name": "",
          "type": "bool"
        }
      ],
      "stateMutability": "view",
      "type": "function"
    }
  ],
  "bytecode": "0x608060405234801561001057600080fd5b5061054e806100206000396000f3fe608060405234801561001057600080fd5b50600436106100365760003560e01c806311479fea1461003b578063894d8fd61461006b575b600080fd5b61005560048036038101906100509190610263565b610089565b60405161006291906102e7565b60405180910390f35b6100736101ee565b60405161008091906102e7565b60405180910390f35b600080826000600381106100a05761009f610302565b5b6020020135036100e5576040517f08c379a00000000000000000000000000000000000000000000000000000000081526004016100dc9061038e565b60405180910390fd5b6000826001600381106100fb576100fa610302565b5b602002013503610140576040517f08c379a0000000000000000000000000000000000000000000000000000000008152600401610137906103fa565b60405180910390fd5b60008260026003811061015657610155610302565b5b60200201350361019b576040517f08c379a000000000000000000000000000000000000000000000000000000000815260040161019290610466565b60405180910390fd5b6001156101ab57600190506101e6565b6040517f08c379a00000000000000000000000000000000000000000000000000000000081526004016101dd906104f8565b60405180910390fd5b949350505050565b600181565b600080fd5b600080fd5b600081905082602060020282011115610219576102186101f8565b5b92915050565b60008190508260406002028201111561023b5761023a6101f8565b5b92915050565b60008190508260206003028201111561025d5761025c6101f8565b5b92915050565b600080600080610160858703121561027e5761027d6101f3565b5b600061028c878288016101fd565b945050604061029d8782880161021f565b93505060c06102ae878288016101fd565b9250506101006102c087828801610241565b91505092959194509250565b60008115159050919050565b6102e1816102cc565b82525050565b60006020820190506102fc60008301846102d8565b92915050565b7f4e487b7100000000000000000000000000000000000000000000000000000000600052603260045260246000fd5b600082825260208201905092915050565b7f436f6d6d69746d656e742063616e6e6f74206265207a65726f00000000000000600082015250565b6000610378601983610331565b915061038382610342565b602082019050919050565b600060208201905081810360008301526103a78161036b565b9050919050565b7f4e756c6c6966696572486173682063616e6e6f74206265207a65726f00000000600082015250565b60006103e4601c83610331565b91506103ef826103ae565b602082019050919050565b60006020820190508181036000830152610413816103d7565b9050919050565b7f526563697069656e742063616e6e6f74206265207a65726f0000000000000000600082015250565b6000610450601883610331565b915061045b8261041a565b602082019050919050565b6000602082019050818103600083015261047f81610443565b9050919050565b7f47656e6572617465207265616c2076657269666965722076696120736574757060008201527f2d63697263756974732e636a7300000000000000000000000000000000000000602082015250565b60006104e2602d83610331565b91506104ed82610486565b604082019050919050565b60006020820190508181036000830152610511816104d5565b905091905056fea2646970667358221220e564fb32e50aeee6d96b7766e3d71ac6c9135c5f9511364c3df788239fcdaad264736f6c63430008180033",
  "linkReferences": {},
  "deployedLinkReferences": {}
}