{
  "_format": "hh-sol-artifact-1",
  "contractName": "DeadManSwitch",
  "sourceName": "contracts/DeadManSwitch.sol",
  "abi": [
    {
      "anonymous": false,
      "inputs": [
        {
          "indexed": true,
          "internalType": "uint256",
          "name": "id",
          "type": "uint256"
        },
        {
          "indexed": true,
          "internalType": "address",
          "name": "triggeredBy",
          "type": "address"
        },
        {
          "indexed": false,
          "internalType": "string",
          "name": "evidenceCID",
          "type": "string"
        },
        {
          "indexed": false,
          "internalType": "string",
          "name": "plaintextKeyHex",
          "type": "string"
        },
        {
          "indexed": false,
          "internalType": "string",
          "name": "publicMessage",
          "type": "string"
        },
        {
          "indexed": false,
          "internalType": "uint256",
          "name": "timestamp",
          "type": "uint256"
        }
      ],
      "name": "KeyReleased",
      "type": "event"
    },
    {
      "anonymous": false,
      "inputs": [
        {
          "indexed": true,
          "internalType": "uint256",
          "name": "id",
          "type": "uint256"
        },
        {
          "indexed": false,
          "internalType": "uint256",
          "name": "timestamp",
          "type": "uint256"
        }
      ],
      "name": "SwitchCancelled",
      "type": "event"
    },
    {
      "anonymous": false,
      "inputs": [
        {
          "indexed": true,
          "internalType": "uint256",
          "name": "id",
          "type": "uint256"
        },
        {
          "indexed": false,
          "internalType": "uint256",
          "name": "oldReleaseAt",
          "type": "uint256"
        },
        {
          "indexed": false,
          "internalType": "uint256",
          "name": "newReleaseAt",
          "type": "uint256"
        },
        {
          "indexed": false,
          "internalType": "uint256",
          "name": "timestamp",
          "type": "uint256"
        }
      ],
      "name": "SwitchExtended",
      "type": "event"
    },
    {
      "anonymous": false,
      "inputs": [
        {
          "indexed": true,
          "internalType": "uint256",
          "name": "id",
          "type": "uint256"
        },
        {
          "indexed": true,
          "internalType": "address",
          "name": "whistleblower",
          "type": "address"
        },
        {
          "indexed": false,
          "internalType": "string",
          "name": "evidenceCID",
          "type": "string"
        },
        {
          "indexed": false,
          "internalType": "uint256",
          "name": "releaseAt",
          "type": "uint256"
        },
        {
          "indexed": false,
          "internalType": "uint256",
          "name": "timestamp",
          "type": "uint256"
        }
      ],
      "name": "SwitchRegistered",
      "type": "event"
    },
    {
      "inputs": [],
      "name": "MAX_LOCK_PERIOD",
      "outputs": [
        {
          "internalType": "uint256",
          "name": "",
          "type": "uint256"
        }
      ],
      "stateMutability": "view",
      "type": "function"
    },
    {
      "inputs": [],
      "name": "MIN_LOCK_PERIOD",
      "outputs": [
        {
          "internalType": "uint256",
          "name": "",
          "type": "uint256"
        }
      ],
      "stateMutability": "view",
      "type": "function"
    },
    {
      "inputs": [
        {
          "internalType": "uint256",
          "name": "id",
          "type": "uint256"
        }
      ],
      "name": "cancel",
      "outputs": [],
      "stateMutability": "nonpayable",
      "type": "function"
    },
    {
      "inputs": [
        {
          "internalType": "uint256",
          "name": "id",
          "type": "uint256"
        },
        {
          "internalType": "uint256",
          "name": "newReleaseAt",
          "type": "uint256"
        }
      ],
      "name": "extend",
      "outputs": [],
      "stateMutability": "nonpayable",
      "type": "function"
    },
    {
      "inputs": [
        {
          "internalType": "address",
          "name": "who",
          "type": "address"
        }
      ],
      "name": "getSwitchIds",
      "outputs": [
        {
          "internalType": "uint256[]",
          "name": "",
          "type": "uint256[]"
        }
      ],
      "stateMutability": "view",
      "type": "function"
    },
    {
      "inputs": [
        {
          "internalType": "uint256",
          "name": "id",
          "type": "uint256"
        }
      ],
      "name": "isTriggerReady",
      "outputs": [
        {
          "internalType": "bool",
          "name": "",
          "type": "bool"
        }
      ],
      "stateMutability": "view",
      "type": "function"
    },
    {
      "inputs": [
        {
          "internalType": "address",
          "name": "",
          "type": "address"
        },
        {
          "internalType": "uint256",
          "name": "",
          "type": "uint256"
        }
      ],
      "name": "mySwitches",
      "outputs": [
        {
          "internalType": "uint256",
          "name": "",
          "type": "uint256"
        }
      ],
      "stateMutability": "view",
      "type": "function"
    },
    {
      "inputs": [
        {
          "internalType": "string",
          "name": "_evidenceCID",
          "type": "string"
        },
        {
          "internalType": "string",
          "name": "_encryptedKeyHex",
          "type": "string"
        },
        {
          "internalType": "uint256",
          "name": "_releaseAt",
          "type": "uint256"
        },
        {
          "internalType": "string",
          "name": "_publicMessage",
          "type": "string"
        }
      ],
      "name": "register",
      "outputs": [
        {
          "internalType": "uint256",
          "name": "id",
          "type": "uint256"
        }
      ],
      "stateMutability": "nonpayable",
      "type": "function"
    },
    {
      "inputs": [
        {
          "internalType": "uint256",
          "name": "id",
          "type": "uint256"
        },
        {
          "internalType": "string",
          "name": "_plaintextKeyHex",
          "type": "string"
        }
      ],
      "name": "releaseNow",
      "outputs": [],
      "stateMutability": "nonpayable",
      "type": "function"
    },
    {
      "inputs": [],
      "name": "switchCount",
      "outputs": [
        {
          "internalType": "uint256",
          "name": "",
          "type": "uint256"
        }
      ],
      "stateMutability": "view",
      "type": "function"
    },
    {
      "inputs": [
        {
          "internalType": "uint256",
          "name": "",
          "type": "uint256"
        }
      ],
      "name": "switches",
      "outputs": [
        {
          "internalType": "address",
          "name": "whistleblower",
          "type": "address"
        },
        {
          "internalType": "string",
          "name": "evidenceCID",
          "type": "string"
        },
        {
          "internalType": "string",
          "name": "encryptedKeyHex",
          "type": "string"
        },
        {
          "internalType": "string",
          "name": "plaintextKeyHex",
          "type": "string"
        },
        {
          "internalType": "string",
          "name": "publicMessage",
          "type": "string"
        },
        {
          "internalType": "uint256",
          "name": "registeredAt",
          "type": "uint256"
        },
        {
          "internalType": "uint256",
          "name": "releaseAt",
          "type": "uint256"
        },
        {
          "internalType": "bool",
          "name": "triggered",
          "type": "bool"
        },
        {
          "internalType": "bool",
          "name": "cancelled",
          "type": "bool"
        }
      ],
      "stateMutability": "view",
      "type": "function"
    },
    {
      "inputs": [
        {
          "internalType": "uint256",
          "name": "id",
          "type": "uint256"
        }
      ],
      "name": "timeRemaining",
      "outputs": [
        {
          "internalType": "uint256",
          "name": "",
          "type": "uint256"
        }
      ],
      "stateMutability": "view",
      "type": "function"
    },
    {
      "inputs": [
        {
          "internalType": "uint256",
          "name": "id",
          "type": "uint256"
        },
        {
          "internalType": "string",
          "name": "_plaintextKeyHex",
          "type": "string"
        }
      ],
      "name": "trigger",
      "outputs": [],
      "stateMutability": "nonpayable",
      "type": "function"
    }
  ],
  "bytecode": "0x608060405234801561001057600080fd5b50612733806100206000396000f3fe608060405234801561001057600080fd5b50600436106100cf5760003560e01c8063c548da741161008c578063ea3d902011610066578063ea3d90201461022c578063ee2d5f611461025c578063f554016214610278578063fb0bc6a314610296576100cf565b8063c548da74146101c4578063c89258db146101f4578063e2c7781814610210576100cf565b806333044e99146100d4578063385dc3df1461010457806340e58ee5146101225780637702b1eb1461013e57806378edba641461015c578063881ec10b1461018c575b600080fd5b6100ee60048036038101906100e99190611672565b6102c6565b6040516100fb9190611767565b60405180910390f35b61010c61035d565b6040516101199190611798565b60405180910390f35b61013c600480360381019061013791906117df565b610364565b005b6101466105db565b6040516101539190611798565b60405180910390f35b6101766004803603810190610171919061180c565b6105e1565b6040516101839190611798565b60405180910390f35b6101a660048036038101906101a191906117df565b610612565b6040516101bb99989796959493929190611906565b60405180910390f35b6101de60048036038101906101d991906117df565b6108ba565b6040516101eb91906119af565b60405180910390f35b61020e600480360381019061020991906119ca565b610918565b005b61022a60048036038101906102259190611a6f565b610c46565b005b610246600480360381019061024191906117df565b610e49565b6040516102539190611798565b60405180910390f35b61027660048036038101906102719190611a6f565b610e8f565b005b6102806110df565b60405161028d9190611798565b60405180910390f35b6102b060048036038101906102ab9190611acf565b6110e7565b6040516102bd9190611798565b60405180910390f35b6060600260008373ffffffffffffffffffffffffffffffffffffffff1673ffffffffffffffffffffffffffffffffffffffff16815260200190815260200160002080548060200260200160405190810160405280929190818152602001828054801561035157602002820191906000526020600020905b81548152602001906001019080831161033d575b50505050509050919050565b6201518081565b8060005481106103a9576040517f08c379a00000000000000000000000000000000000000000000000000000000081526004016103a090611be4565b60405180910390fd5b813373ffffffffffffffffffffffffffffffffffffffff166001600083815260200190815260200160002060000160009054906101000a900473ffffffffffffffffffffffffffffffffffffffff1673ffffffffffffffffffffffffffffffffffffffff161461044e576040517f08c379a000000000000000000000000000000000000000000000000000000000815260040161044590611c50565b60405180910390fd5b826001600082815260200190815260200160002060070160009054906101000a900460ff16156104b3576040517f08c379a00000000000000000000000000000000000000000000000000000000081526004016104aa90611cbc565b60405180910390fd5b6001600082815260200190815260200160002060070160019054906101000a900460ff1615610517576040517f08c379a000000000000000000000000000000000000000000000000000000000815260040161050e90611d28565b60405180910390fd5b6001600085815260200190815260200160002060060154421061056f576040517f08c379a000000000000000000000000000000000000000000000000000000000815260040161056690611d94565b60405180910390fd5b600180600086815260200190815260200160002060070160016101000a81548160ff021916908315150217905550837fc34bd4d93f3bef0df7753698b8e4273a89e76b19a2ea1962a25b9515d1493173426040516105cd9190611798565b60405180910390a250505050565b60005481565b600260205281600052604060002081815481106105fd57600080fd5b90600052602060002001600091509150505481565b60016020528060005260406000206000915090508060000160009054906101000a900473ffffffffffffffffffffffffffffffffffffffff169080600101805461065b90611de3565b80601f016020809104026020016040519081016040528092919081815260200182805461068790611de3565b80156106d45780601f106106a9576101008083540402835291602001916106d4565b820191906000526020600020905b8154815290600101906020018083116106b757829003601f168201915b5050505050908060020180546106e990611de3565b80601f016020809104026020016040519081016040528092919081815260200182805461071590611de3565b80156107625780601f1061073757610100808354040283529160200191610762565b820191906000526020600020905b81548152906001019060200180831161074557829003601f168201915b50505050509080600301805461077790611de3565b80601f01602080910402602001604051908101604052809291908181526020018280546107a390611de3565b80156107f05780601f106107c5576101008083540402835291602001916107f0565b820191906000526020600020905b8154815290600101906020018083116107d357829003601f168201915b50505050509080600401805461080590611de3565b80601f016020809104026020016040519081016040528092919081815260200182805461083190611de3565b801561087e5780601f106108535761010080835404028352916020019161087e565b820191906000526020600020905b81548152906001019060200180831161086157829003601f168201915b5050505050908060050154908060060154908060070160009054906101000a900460ff16908060070160019054906101000a900460ff16905089565b6000806001600084815260200190815260200160002090508060070160009054906101000a900460ff1615801561090057508060070160019054906101000a900460ff16155b8015610910575080600601544210155b915050919050565b81600054811061095d576040517f08c379a000000000000000000000000000000000000000000000000000000000815260040161095490611be4565b60405180910390fd5b823373ffffffffffffffffffffffffffffffffffffffff166001600083815260200190815260200160002060000160009054906101000a900473ffffffffffffffffffffffffffffffffffffffff1673ffffffffffffffffffffffffffffffffffffffff1614610a02576040517f08c379a00000000000000000000000000000000000000000000000000000000081526004016109f990611c50565b60405180910390fd5b836001600082815260200190815260200160002060070160009054906101000a900460ff1615610a67576040517f08c379a0000000000000000000000000000000000000000000000000000000008152600401610a5e90611cbc565b60405180910390fd5b6001600082815260200190815260200160002060070160019054906101000a900460ff1615610acb576040517f08c379a0000000000000000000000000000000000000000000000000000000008152600401610ac290611d28565b60405180910390fd5b60016000868152602001908152602001600020600601544210610b23576040517f08c379a0000000000000000000000000000000000000000000000000000000008152600401610b1a90611e60565b60405180910390fd5b60016000868152602001908152602001600020600601548411610b7b576040517f08c379a0000000000000000000000000000000000000000000000000000000008152600401610b7290611ecc565b60405180910390fd5b6312cc030042610b8b9190611f1b565b8410610bcc576040517f08c379a0000000000000000000000000000000000000000000000000000000008152600401610bc390611f9b565b60405180910390fd5b600060016000878152602001908152602001600020600601549050846001600088815260200190815260200160002060060181905550857f9806a87630a36152230d17d8785eae29b8c75e670594a16f24c9a6e26c1f9596828742604051610c3693929190611fbb565b60405180910390a2505050505050565b826000548110610c8b576040517f08c379a0000000000000000000000000000000000000000000000000000000008152600401610c8290611be4565b60405180910390fd5b836001600082815260200190815260200160002060070160009054906101000a900460ff1615610cf0576040517f08c379a0000000000000000000000000000000000000000000000000000000008152600401610ce790611cbc565b60405180910390fd5b6001600082815260200190815260200160002060070160019054906101000a900460ff1615610d54576040517f08c379a0000000000000000000000000000000000000000000000000000000008152600401610d4b90611d28565b60405180910390fd5b6001600086815260200190815260200160002060060154421015610dad576040517f08c379a0000000000000000000000000000000000000000000000000000000008152600401610da49061203e565b60405180910390fd5b60008484905011610df3576040517f08c379a0000000000000000000000000000000000000000000000000000000008152600401610dea906120aa565b60405180910390fd5b610e428585858080601f016020809104026020016040519081016040528093929190818152602001838380828437600081840152601f19601f8201169050808301925050505050505033611534565b5050505050565b60008060016000848152602001908152602001600020905080600601544210610e76576000915050610e8a565b428160060154610e8691906120ca565b9150505b919050565b826000548110610ed4576040517f08c379a0000000000000000000000000000000000000000000000000000000008152600401610ecb90611be4565b60405180910390fd5b833373ffffffffffffffffffffffffffffffffffffffff166001600083815260200190815260200160002060000160009054906101000a900473ffffffffffffffffffffffffffffffffffffffff1673ffffffffffffffffffffffffffffffffffffffff1614610f79576040517f08c379a0000000000000000000000000000000000000000000000000000000008152600401610f7090611c50565b60405180910390fd5b846001600082815260200190815260200160002060070160009054906101000a900460ff1615610fde576040517f08c379a0000000000000000000000000000000000000000000000000000000008152600401610fd590611cbc565b60405180910390fd5b6001600082815260200190815260200160002060070160019054906101000a900460ff1615611042576040517f08c379a000000000000000000000000000000000000000000000000000000000815260040161103990611d28565b60405180910390fd5b60008585905011611088576040517f08c379a000000000000000000000000000000000000000000000000000000000815260040161107f906120aa565b60405180910390fd5b6110d78686868080601f016020809104026020016040519081016040528093929190818152602001838380828437600081840152601f19601f8201169050808301925050505050505033611534565b505050505050565b6312cc030081565b600080888890501161112e576040517f08c379a00000000000000000000000000000000000000000000000000000000081526004016111259061214a565b60405180910390fd5b60008686905011611174576040517f08c379a000000000000000000000000000000000000000000000000000000000815260040161116b906121b6565b60405180910390fd5b62015180426111839190611f1b565b84116111c4576040517f08c379a00000000000000000000000000000000000000000000000000000000081526004016111bb90612222565b60405180910390fd5b6312cc0300426111d49190611f1b565b8410611215576040517f08c379a000000000000000000000000000000000000000000000000000000000815260040161120c9061228e565b60405180910390fd5b600080815480929190611227906122ae565b9190505590506040518061012001604052803373ffffffffffffffffffffffffffffffffffffffff16815260200189898080601f016020809104026020016040519081016040528093929190818152602001838380828437600081840152601f19601f82011690508083019250505050505050815260200187878080601f016020809104026020016040519081016040528093929190818152602001838380828437600081840152601f19601f82011690508083019250505050505050815260200160405180602001604052806000815250815260200184848080601f016020809104026020016040519081016040528093929190818152602001838380828437600081840152601f19601f820116905080830192505050505050508152602001428152602001858152602001600015158152602001600015158152506001600083815260200190815260200160002060008201518160000160006101000a81548173ffffffffffffffffffffffffffffffffffffffff021916908373ffffffffffffffffffffffffffffffffffffffff16021790555060208201518160010190816113d391906124d1565b5060408201518160020190816113e991906124d1565b5060608201518160030190816113ff91906124d1565b50608082015181600401908161141591906124d1565b5060a0820151816005015560c0820151816006015560e08201518160070160006101000a81548160ff0219169083151502179055506101008201518160070160016101000a81548160ff021916908315150217905550905050600260003373ffffffffffffffffffffffffffffffffffffffff1673ffffffffffffffffffffffffffffffffffffffff1681526020019081526020016000208190806001815401808255809150506001900390600052602060002001600090919091909150553373ffffffffffffffffffffffffffffffffffffffff16817ff668a2d185a6f27957aa1a168a534327336ada75dcc9eb2fe481d1a4699634d58a8a884260405161152194939291906125df565b60405180910390a3979650505050505050565b600180600085815260200190815260200160002060070160006101000a81548160ff0219169083151502179055508160016000858152602001908152602001600020600301908161158591906124d1565b508073ffffffffffffffffffffffffffffffffffffffff16837f7736664e8dae537f6a0bf6d6edc1ed4a77040833aa3491daba13429641478a08600160008781526020019081526020016000206001018560016000898152602001908152602001600020600401426040516115fd94939291906126a3565b60405180910390a3505050565b600080fd5b600080fd5b600073ffffffffffffffffffffffffffffffffffffffff82169050919050565b600061163f82611614565b9050919050565b61164f81611634565b811461165a57600080fd5b50565b60008135905061166c81611646565b92915050565b6000602082840312156116885761168761160a565b5b60006116968482850161165d565b91505092915050565b600081519050919050565b600082825260208201905092915050565b6000819050602082019050919050565b6000819050919050565b6116de816116cb565b82525050565b60006116f083836116d5565b60208301905092915050565b6000602082019050919050565b60006117148261169f565b61171e81856116aa565b9350611729836116bb565b8060005b8381101561175a57815161174188826116e4565b975061174c836116fc565b92505060018101905061172d565b5085935050505092915050565b600060208201905081810360008301526117818184611709565b905092915050565b611792816116cb565b82525050565b60006020820190506117ad6000830184611789565b92915050565b6117bc816116cb565b81146117c757600080fd5b50565b6000813590506117d9816117b3565b92915050565b6000602082840312156117f5576117f461160a565b5b6000611803848285016117ca565b91505092915050565b600080604083850312156118235761182261160a565b5b60006118318582860161165d565b9250506020611842858286016117ca565b9150509250929050565b61185581611634565b82525050565b600081519050919050565b600082825260208201905092915050565b60005b8381101561189557808201518184015260208101905061187a565b60008484015250505050565b6000601f19601f8301169050919050565b60006118bd8261185b565b6118c78185611866565b93506118d7818560208601611877565b6118e0816118a1565b840191505092915050565b60008115159050919050565b611900816118eb565b82525050565b60006101208201905061191c600083018c61184c565b818103602083015261192e818b6118b2565b90508181036040830152611942818a6118b2565b9050818103606083015261195681896118b2565b9050818103608083015261196a81886118b2565b905061197960a0830187611789565b61198660c0830186611789565b61199360e08301856118f7565b6119a16101008301846118f7565b9a9950505050505050505050565b60006020820190506119c460008301846118f7565b92915050565b600080604083850312156119e1576119e061160a565b5b60006119ef858286016117ca565b9250506020611a00858286016117ca565b9150509250929050565b600080fd5b600080fd5b600080fd5b60008083601f840112611a2f57611a2e611a0a565b5b8235905067ffffffffffffffff811115611a4c57611a4b611a0f565b5b602083019150836001820283011115611a6857611a67611a14565b5b9250929050565b600080600060408486031215611a8857611a8761160a565b5b6000611a96868287016117ca565b935050602084013567ffffffffffffffff811115611ab757611ab661160f565b5b611ac386828701611a19565b92509250509250925092565b60008060008060008060006080888a031215611aee57611aed61160a565b5b600088013567ffffffffffffffff811115611b0c57611b0b61160f565b5b611b188a828b01611a19565b9750975050602088013567ffffffffffffffff811115611b3b57611b3a61160f565b5b611b478a828b01611a19565b95509550506040611b5a8a828b016117ca565b935050606088013567ffffffffffffffff811115611b7b57611b7a61160f565b5b611b878a828b01611a19565b925092505092959891949750929550565b7f53776974636820646f6573206e6f742065786973740000000000000000000000600082015250565b6000611bce601583611866565b9150611bd982611b98565b602082019050919050565b60006020820190508181036000830152611bfd81611bc1565b9050919050565b7f4e6f7420796f7572207377697463680000000000000000000000000000000000600082015250565b6000611c3a600f83611866565b9150611c4582611c04565b602082019050919050565b60006020820190508181036000830152611c6981611c2d565b9050919050565b7f416c726561647920747269676765726564000000000000000000000000000000600082015250565b6000611ca6601183611866565b9150611cb182611c70565b602082019050919050565b60006020820190508181036000830152611cd581611c99565b9050919050565b7f416c72656164792063616e63656c6c6564000000000000000000000000000000600082015250565b6000611d12601183611866565b9150611d1d82611cdc565b602082019050919050565b60006020820190508181036000830152611d4181611d05565b9050919050565b7f446561646c696e6520706173736564202d2063616e6e6f742063616e63656c00600082015250565b6000611d7e601f83611866565b9150611d8982611d48565b602082019050919050565b60006020820190508181036000830152611dad81611d71565b9050919050565b7f4e487b7100000000000000000000000000000000000000000000000000000000600052602260045260246000fd5b60006002820490506001821680611dfb57607f821691505b602082108103611e0e57611e0d611db4565b5b50919050565b7f446561646c696e6520706173736564202d2063616e6e6f7420657874656e6400600082015250565b6000611e4a601f83611866565b9150611e5582611e14565b602082019050919050565b60006020820190508181036000830152611e7981611e3d565b9050919050565b7f4d75737420657874656e642c206e6f742073686f7274656e0000000000000000600082015250565b6000611eb6601883611866565b9150611ec182611e80565b602082019050919050565b60006020820190508181036000830152611ee581611ea9565b9050919050565b7f4e487b7100000000000000000000000000000000000000000000000000000000600052601160045260246000fd5b6000611f26826116cb565b9150611f31836116cb565b9250828201905080821115611f4957611f48611eec565b5b92915050565b7f546f6f2066617220696e20667574757265000000000000000000000000000000600082015250565b6000611f85601183611866565b9150611f9082611f4f565b602082019050919050565b60006020820190508181036000830152611fb481611f78565b9050919050565b6000606082019050611fd06000830186611789565b611fdd6020830185611789565b611fea6040830184611789565b949350505050565b7f4e6f74207965742074696d650000000000000000000000000000000000000000600082015250565b6000612028600c83611866565b915061203382611ff2565b602082019050919050565b600060208201905081810360008301526120578161201b565b9050919050565b7f506c61696e74657874206b657920726571756972656400000000000000000000600082015250565b6000612094601683611866565b915061209f8261205e565b602082019050919050565b600060208201905081810360008301526120c381612087565b9050919050565b60006120d5826116cb565b91506120e0836116cb565b92508282039050818111156120f8576120f7611eec565b5b92915050565b7f45766964656e6365204349442072657175697265640000000000000000000000600082015250565b6000612134601583611866565b915061213f826120fe565b602082019050919050565b6000602082019050818103600083015261216381612127565b9050919050565b7f456e63727970746564206b657920726571756972656400000000000000000000600082015250565b60006121a0601683611866565b91506121ab8261216a565b602082019050919050565b600060208201905081810360008301526121cf81612193565b9050919050565b7f52656c65617365206d757374206265203e312064617920617761790000000000600082015250565b600061220c601b83611866565b9150612217826121d6565b602082019050919050565b6000602082019050818103600083015261223b816121ff565b9050919050565b7f52656c6561736520746f6f2066617220696e2066757475726500000000000000600082015250565b6000612278601983611866565b915061228382612242565b602082019050919050565b600060208201905081810360008301526122a78161226b565b9050919050565b60006122b9826116cb565b91507fffffffffffffffffffffffffffffffffffffffffffffffffffffffffffffffff82036122eb576122ea611eec565b5b600182019050919050565b7f4e487b7100000000000000000000000000000000000000000000000000000000600052604160045260246000fd5b60008190508160005260206000209050919050565b60006020601f8301049050919050565b600082821b905092915050565b6000600883026123877fffffffffffffffffffffffffffffffffffffffffffffffffffffffffffffffff8261234a565b612391868361234a565b95508019841693508086168417925050509392505050565b6000819050919050565b60006123ce6123c96123c4846116cb565b6123a9565b6116cb565b9050919050565b6000819050919050565b6123e8836123b3565b6123fc6123f4826123d5565b848454612357565b825550505050565b600090565b612411612404565b61241c8184846123df565b505050565b5b8181101561244057612435600082612409565b600181019050612422565b5050565b601f8211156124855761245681612325565b61245f8461233a565b8101602085101561246e578190505b61248261247a8561233a565b830182612421565b50505b505050565b600082821c905092915050565b60006124a86000198460080261248a565b1980831691505092915050565b60006124c18383612497565b9150826002028217905092915050565b6124da8261185b565b67ffffffffffffffff8111156124f3576124f26122f6565b5b6124fd8254611de3565b612508828285612444565b600060209050601f83116001811461253b5760008415612529578287015190505b61253385826124b5565b86555061259b565b601f19841661254986612325565b60005b828110156125715784890151825560018201915060208501945060208101905061254c565b8683101561258e578489015161258a601f891682612497565b8355505b6001600288020188555050505b505050505050565b82818337600083830152505050565b60006125be8385611866565b93506125cb8385846125a3565b6125d4836118a1565b840190509392505050565b600060608201905081810360008301526125fa8186886125b2565b90506126096020830185611789565b6126166040830184611789565b95945050505050565b6000815461262c81611de3565b6126368186611866565b9450600182166000811461265157600181146126675761269a565b60ff19831686528115156020028601935061269a565b61267085612325565b60005b8381101561269257815481890152600182019150602081019050612673565b808801955050505b50505092915050565b600060808201905081810360008301526126bd818761261f565b905081810360208301526126d181866118b2565b905081810360408301526126e5818561261f565b90506126f46060830184611789565b9594505050505056fea2646970667358221220a5abf2c0ef104b57b8d984df612b1890e84700233b0a8c9bceee940d09d1078064736f6c63430008180033",
  "linkReferences": {},
  "deployedLinkReferences": {}
}