{"contracts/WhistleblowerPortal.sol":{"WhistleblowerPortal":{"abi":[{"inputs":[{"internalType":"address[]","name":"_initialCouncil","type":"address[]"}],"stateMutability":"nonpayable","type":"constructor"},{"anonymous":false,"inputs":[{"indexed":true,"internalType":"bytes32","name":"caseId","type":"bytes32"}],"name":"CaseVerified","type":"event"},{"anonymous":false,"inputs":[{"indexed":true,"internalType":"bytes32","name":"caseId","type":"bytes32"},{"indexed":false,"internalType":"string","name":"cid","type":"string"}],"name":"ReportSubmitted","type":"event"},{"anonymous":false,"inputs":[{"indexed":true,"internalType":"bytes32","name":"caseId","type":"bytes32"},{"indexed":false,"internalType":"enum WhistleblowerPortal.CaseStatus","name":"newStatus","type":"uint8"}],"name":"StatusChanged","type":"event"},{"inputs":[],"name":"VOTES_REQUIRED","outputs":[{"internalType":"uint8","name":"","type":"uint8"}],"stateMutability":"view","type":"function"},{"inputs":[{"internalType":"bytes32","name":"_caseId","type":"bytes32"}],"name":"getCaseStatus","outputs":[{"internalType":"enum WhistleblowerPortal.CaseStatus","name":"","type":"uint8"}],"stateMutability":"view","type":"function"},{"inputs":[{"internalType":"bytes32","name":"","type":"bytes32"},{"internalType":"address","name":"","type":"address"}],"name":"hasVoted","outputs":[{"internalType":"bool","name":"","type":"bool"}],"stateMutability":"view","type":"function"},{"inputs":[{"internalType":"address","name":"","type":"address"}],"name":"isCouncilMember","outputs":[{"internalType":"bool","name":"","type":"bool"}],"stateMutability":"view","type":"function"},{"inputs":[{"internalType":"bytes32","name":"","type":"bytes32"}],"name":"reports","outputs":[{"internalType":"string","name":"cid","type":"string"},{"internalType":"uint256","name":"timestamp","type":"uint256"},{"internalType":"enum WhistleblowerPortal.CaseStatus","name":"status","type":"uint8"},{"internalType":"uint8","name":"verificationCount","type":"uint8"},{"internalType":"bool","name":"exists","type":"bool"}],"stateMutability":"view","type":"function"},{"inputs":[{"internalType":"bytes32","name":"_caseId","type":"bytes32"},{"internalType":"string","name":"_cid","type":"string"}],"name":"submitReport","outputs":[],"stateMutability":"nonpayable","type":"function"},{"inputs":[{"internalType":"bytes32","name":"_caseId","type":"bytes32"}],"name":"verifyCase","outputs":[],"stateMutability":"nonpayable","type":"function"}],"evm":{"bytecode":{"linkReferences":{},"object":"60806040523480156200001157600080fd5b50604051620016e8380380620016e88339818101604052810190620000379190620002bc565b60005b8151811015620000c65760018060008484815181106200005f576200005e6200030d565b5b602002602001015173ffffffffffffffffffffffffffffffffffffffff1673ffffffffffffffffffffffffffffffffffffffff16815260200190815260200160002060006101000a81548160ff02191690831515021790555080806001019150506200003a565b50506200033c565b6000604051905090565b600080fd5b600080fd5b600080fd5b6000601f19601f8301169050919050565b7f4e487b7100000000000000000000000000000000000000000000000000000000600052604160045260246000fd5b6200013282620000e7565b810181811067ffffffffffffffff82111715620001545762000153620000f8565b5b80604052505050565b600062000169620000ce565b905062000177828262000127565b919050565b600067ffffffffffffffff8211156200019a5762000199620000f8565b5b602082029050602081019050919050565b600080fd5b600073ffffffffffffffffffffffffffffffffffffffff82169050919050565b6000620001dd82620001b0565b9050919050565b620001ef81620001d0565b8114620001fb57600080fd5b50565b6000815190506200020f81620001e4565b92915050565b60006200022c62000226846200017c565b6200015d565b90508083825260208201905060208402830185811115620002525762000251620001ab565b5b835b818110156200027f57806200026a8882620001fe565b84526020840193505060208101905062000254565b5050509392505050565b600082601f830112620002a157620002a0620000e2565b5b8151620002b384826020860162000215565b91505092915050565b600060208284031215620002d557620002d4620000d8565b5b600082015167ffffffffffffffff811115620002f657620002f5620000dd565b5b620003048482850162000289565b91505092915050565b7f4e487b7100000000000000000000000000000000000000000000000000000000600052603260045260246000fd5b61139c806200034c6000396000f3fe608060405234801561001057600080fd5b506004361061007d5760003560e01c8063b39c48971161005b578063b39c4897146100fe578063b97680d714610132578063c4d665f11461014e578063ebd7dc521461016c5761007d565b8063224905ce14610082578063258198af1461009e578063aadc3b72146100ce575b600080fd5b61009c600480360381019061009791906109c6565b61019c565b005b6100b860048036038101906100b391906109c6565b610654565b6040516100c59190610a6a565b60405180910390f35b6100e860048036038101906100e39190610ae3565b610680565b6040516100f59190610b3e565b60405180910390f35b610118600480360381019061011391906109c6565b6106af565b604051610129959493929190610c1e565b60405180910390f35b61014c60048036038101906101479190610cdd565b610794565b005b610156610961565b6040516101639190610d3d565b60405180910390f35b61018660048036038101906101819190610d58565b610966565b6040516101939190610b3e565b60405180910390f35b600160003373ffffffffffffffffffffffffffffffffffffffff1673ffffffffffffffffffffffffffffffffffffffff16815260200190815260200160002060009054906101000a900460ff16610228576040517f08c379a000000000000000000000000000000000000000000000000000000000815260040161021f90610dd1565b60405180910390fd5b60008082815260200190815260200160002060020160029054906101000a900460ff1661028a576040517f08c379a000000000000000000000000000000000000000000000000000000000815260040161028190610e3d565b60405180910390fd5b6002600082815260200190815260200160002060003373ffffffffffffffffffffffffffffffffffffffff1673ffffffffffffffffffffffffffffffffffffffff16815260200190815260200160002060009054906101000a900460ff1615610328576040517f08c379a000000000000000000000000000000000000000000000000000000000815260040161031f90610ea9565b60405180910390fd5b6000600381111561033c5761033b6109f3565b5b60008083815260200190815260200160002060020160009054906101000a900460ff166003811115610371576103706109f3565b5b14806103c357506001600381111561038c5761038b6109f3565b5b60008083815260200190815260200160002060020160009054906101000a900460ff1660038111156103c1576103c06109f3565b5b145b610402576040517f08c379a00000000000000000000000000000000000000000000000000000000081526004016103f990610f15565b60405180910390fd5b60016002600083815260200190815260200160002060003373ffffffffffffffffffffffffffffffffffffffff1673ffffffffffffffffffffffffffffffffffffffff16815260200190815260200160002060006101000a81548160ff021916908315150217905550600080828152602001908152602001600020600201600181819054906101000a900460ff168092919061049d90610f64565b91906101000a81548160ff021916908360ff16021790555050600060038111156104ca576104c96109f3565b5b60008083815260200190815260200160002060020160009054906101000a900460ff1660038111156104ff576104fe6109f3565b5b0361057c57600160008083815260200190815260200160002060020160006101000a81548160ff0219169083600381111561053d5761053c6109f3565b5b0217905550807f22ce671cd3f328f71ef109d846af764df2d16bb8eb664c4f41065656c6e9962c60016040516105739190610a6a565b60405180910390a25b600360ff1660008083815260200190815260200160002060020160019054906101000a900460ff1660ff161061065157600260008083815260200190815260200160002060020160006101000a81548160ff021916908360038111156105e5576105e46109f3565b5b0217905550807f4b519481c83763e2ba8808371cc5e5e1e3eefd0a580467f02e21198147298a1560405160405180910390a2807f22ce671cd3f328f71ef109d846af764df2d16bb8eb664c4f41065656c6e9962c60026040516106489190610a6a565b60405180910390a25b50565b600080600083815260200190815260200160002060020160009054906101000a900460ff169050919050565b60026020528160005260406000206020528060005260406000206000915091509054906101000a900460ff1681565b60006020528060005260406000206000915090508060000180546106d290610fbc565b80601f01602080910402602001604051908101604052809291908181526020018280546106fe90610fbc565b801561074b5780601f106107205761010080835404028352916020019161074b565b820191906000526020600020905b81548152906001019060200180831161072e57829003601f168201915b5050505050908060010154908060020160009054906101000a900460ff16908060020160019054906101000a900460ff16908060020160029054906101000a900460ff16905085565b60008084815260200190815260200160002060020160029054906101000a900460ff16156107f7576040517f08c379a00000000000000000000000000000000000000000000000000000000081526004016107ee90611039565b60405180910390fd5b6040518060a0016040528083838080601f016020809104026020016040519081016040528093929190818152602001838380828437600081840152601f19601f82011690508083019250505050505050815260200142815260200160006003811115610866576108656109f3565b5b8152602001600060ff1681526020016001151581525060008085815260200190815260200160002060008201518160000190816108a39190611234565b506020820151816001015560408201518160020160006101000a81548160ff021916908360038111156108d9576108d86109f3565b5b021790555060608201518160020160016101000a81548160ff021916908360ff16021790555060808201518160020160026101000a81548160ff021916908315150217905550905050827feaeae23492543dcf2aaed81bca96790b723c2af0caaf126fe062e69f93e1fe328383604051610954929190611342565b60405180910390a2505050565b600381565b60016020528060005260406000206000915054906101000a900460ff1681565b600080fd5b600080fd5b6000819050919050565b6109a381610990565b81146109ae57600080fd5b50565b6000813590506109c08161099a565b92915050565b6000602082840312156109dc576109db610986565b5b60006109ea848285016109b1565b91505092915050565b7f4e487b7100000000000000000000000000000000000000000000000000000000600052602160045260246000fd5b60048110610a3357610a326109f3565b5b50565b6000819050610a4482610a22565b919050565b6000610a5482610a36565b9050919050565b610a6481610a49565b82525050565b6000602082019050610a7f6000830184610a5b565b92915050565b600073ffffffffffffffffffffffffffffffffffffffff82169050919050565b6000610ab082610a85565b9050919050565b610ac081610aa5565b8114610acb57600080fd5b50565b600081359050610add81610ab7565b92915050565b60008060408385031215610afa57610af9610986565b5b6000610b08858286016109b1565b9250506020610b1985828601610ace565b9150509250929050565b60008115159050919050565b610b3881610b23565b82525050565b6000602082019050610b536000830184610b2f565b92915050565b600081519050919050565b600082825260208201905092915050565b60005b83811015610b93578082015181840152602081019050610b78565b60008484015250505050565b6000601f19601f8301169050919050565b6000610bbb82610b59565b610bc58185610b64565b9350610bd5818560208601610b75565b610bde81610b9f565b840191505092915050565b6000819050919050565b610bfc81610be9565b82525050565b600060ff82169050919050565b610c1881610c02565b82525050565b600060a0820190508181036000830152610c388188610bb0565b9050610c476020830187610bf3565b610c546040830186610a5b565b610c616060830185610c0f565b610c6e6080830184610b2f565b9695505050505050565b600080fd5b600080fd5b600080fd5b60008083601f840112610c9d57610c9c610c78565b5b8235905067ffffffffffffffff811115610cba57610cb9610c7d565b5b602083019150836001820283011115610cd657610cd5610c82565b5b9250929050565b600080600060408486031215610cf657610cf5610986565b5b6000610d04868287016109b1565b935050602084013567ffffffffffffffff811115610d2557610d2461098b565b5b610d3186828701610c87565b92509250509250925092565b6000602082019050610d526000830184610c0f565b92915050565b600060208284031215610d6e57610d6d610986565b5b6000610d7c84828501610ace565b91505092915050565b7f4e6f74206120636f756e63696c206d656d626572000000000000000000000000600082015250565b6000610dbb601483610b64565b9150610dc682610d85565b602082019050919050565b60006020820190508181036000830152610dea81610dae565b9050919050565b7f4361736520646f6573206e6f7420657869737400000000000000000000000000600082015250565b6000610e27601383610b64565b9150610e3282610df1565b602082019050919050565b60006020820190508181036000830152610e5681610e1a565b9050919050565b7f416c726561647920766f74656400000000000000000000000000000000000000600082015250565b6000610e93600d83610b64565b9150610e9e82610e5d565b602082019050919050565b60006020820190508181036000830152610ec281610e86565b9050919050565b7f496e76616c696420737461747573000000000000000000000000000000000000600082015250565b6000610eff600e83610b64565b9150610f0a82610ec9565b602082019050919050565b60006020820190508181036000830152610f2e81610ef2565b9050919050565b7f4e487b7100000000000000000000000000000000000000000000000000000000600052601160045260246000fd5b6000610f6f82610c02565b915060ff8203610f8257610f81610f35565b5b600182019050919050565b7f4e487b7100000000000000000000000000000000000000000000000000000000600052602260045260246000fd5b60006002820490506001821680610fd457607f821691505b602082108103610fe757610fe6610f8d565b5b50919050565b7f4361736520494420616c72656164792065786973747300000000000000000000600082015250565b6000611023601683610b64565b915061102e82610fed565b602082019050919050565b6000602082019050818103600083015261105281611016565b9050919050565b7f4e487b7100000000000000000000000000000000000000000000000000000000600052604160045260246000fd5b60008190508160005260206000209050919050565b60006020601f8301049050919050565b600082821b905092915050565b6000600883026110ea7fffffffffffffffffffffffffffffffffffffffffffffffffffffffffffffffff826110ad565b6110f486836110ad565b95508019841693508086168417925050509392505050565b6000819050919050565b600061113161112c61112784610be9565b61110c565b610be9565b9050919050565b6000819050919050565b61114b83611116565b61115f61115782611138565b8484546110ba565b825550505050565b600090565b611174611167565b61117f818484611142565b505050565b5b818110156111a35761119860008261116c565b600181019050611185565b5050565b601f8211156111e8576111b981611088565b6111c28461109d565b810160208510156111d1578190505b6111e56111dd8561109d565b830182611184565b50505b505050565b600082821c905092915050565b600061120b600019846008026111ed565b1980831691505092915050565b600061122483836111fa565b9150826002028217905092915050565b61123d82610b59565b67ffffffffffffffff81111561125657611255611059565b5b6112608254610fbc565b61126b8282856111a7565b600060209050601f83116001811461129e576000841561128c578287015190505b6112968582611218565b8655506112fe565b601f1984166112ac86611088565b60005b828110156112d4578489015182556001820191506020850194506020810190506112af565b868310156112f157848901516112ed601f8916826111fa565b8355505b6001600288020188555050505b505050505050565b82818337600083830152505050565b60006113218385610b64565b935061132e838584611306565b61133783610b9f565b840190509392505050565b6000602082019050818103600083015261135d818486611315565b9050939250505056fea2646970667358221220f1ff5e98e3a96edd46c32dec1d851d4908fb53af885e164f1f8c6a255c95e98d64736f6c63430008180033","opcodes":"PUSH1 0x80 PUSH1 0x40 MSTORE CALLVALUE DUP1 ISZERO PUSH3 0x11 JUMPI PUSH1 0x0 DUP1 REVERT JUMPDEST POP PUSH1 0x40 MLOAD PUSH3 0x16E8 CODESIZE SUB DUP1 PUSH3 0x16E8 DUP4 CODECOPY DUP2 DUP2 ADD PUSH1 0x40 MSTORE DUP2 ADD SWAP1 PUSH3 0x37 SWAP2 SWAP1 PUSH3 0x2BC JUMP JUMPDEST PUSH1 0x0 JUMPDEST DUP2 MLOAD DUP2 LT ISZERO PUSH3 0xC6 JUMPI PUSH1 0x1 DUP1 PUSH1 0x0 DUP5 DUP5 DUP2 MLOAD DUP2 LT PUSH3 0x5F JUMPI PUSH3 0x5E PUSH3 0x30D JUMP JUMPDEST JUMPDEST PUSH1 0x20 MUL PUSH1 0x20 ADD ADD MLOAD PUSH20 0xFFFFFFFFFFFFFFFFFFFFFFFFFFFFFFFFFFFFFFFF AND PUSH20 0xFFFFFFFFFFFFFFFFFFFFFFFFFFFFFFFFFFFFFFFF AND DUP2 MSTORE PUSH1 0x20 ADD SWAP1 DUP2 MSTORE PUSH1 0x20 ADD PUSH1 0x0 KECCAK256 PUSH1 0x0 PUSH2 0x100 EXP DUP2 SLOAD DUP2 PUSH1 0xFF MUL NOT AND SWAP1 DUP4 ISZERO ISZERO MUL OR SWAP1 SSTORE POP DUP1 DUP1 PUSH1 0x1 ADD SWAP2 POP POP PUSH3 0x3A JUMP JUMPDEST POP POP PUSH3 0x33C JUMP JUMPDEST PUSH1 0x0 PUSH1 0x40 MLOAD SWAP1 POP SWAP1 JUMP JUMPDEST PUSH1 0x0 DUP1 REVERT JUMPDEST PUSH1 0x0 DUP1 REVERT JUMPDEST PUSH1 0x0 DUP1 REVERT JUMPDEST PUSH1 0x0 PUSH1 0x1F NOT PUSH1 0x1F DUP4 ADD AND SWAP1 POP SWAP2 SWAP1 POP JUMP JUMPDEST PUSH32 0x4E487B7100000000000000000000000000000000000000000000000000000000 PUSH1 0x0 MSTORE PUSH1 0x41 PUSH1 0x4 MSTORE PUSH1 0x24 PUSH1 0x0 REVERT JUMPDEST PUSH3 0x132 DUP3 PUSH3 0xE7 JUMP JUMPDEST DUP2 ADD DUP2 DUP2 LT PUSH8 0xFFFFFFFFFFFFFFFF DUP3 GT OR ISZERO PUSH3 0x154 JUMPI PUSH3 0x153 PUSH3 0xF8 JUMP JUMPDEST JUMPDEST DUP1 PUSH1 0x40 MSTORE POP POP POP JUMP JUMPDEST PUSH1 0x0 PUSH3 0x169 PUSH3 0xCE JUMP JUMPDEST SWAP1 POP PUSH3 0x177 DUP3 DUP3 PUSH3 0x127 JUMP JUMPDEST SWAP2 SWAP1 POP JUMP JUMPDEST PUSH1 0x0 PUSH8 0xFFFFFFFFFFFFFFFF DUP3 GT ISZERO PUSH3 0x19A JUMPI PUSH3 0x199 PUSH3 0xF8 JUMP JUMPDEST JUMPDEST PUSH1 0x20 DUP3 MUL SWAP1 POP PUSH1 0x20 DUP2 ADD SWAP1 POP SWAP2 SWAP1 POP JUMP JUMPDEST PUSH1 0x0 DUP1 REVERT JUMPDEST PUSH1 0x0 PUSH20 0xFFFFFFFFFFFFFFFFFFFFFFFFFFFFFFFFFFFFFFFF DUP3 AND SWAP1 POP SWAP2 SWAP1 POP JUMP JUMPDEST PUSH1 0x0 PUSH3 0x1DD DUP3 PUSH3 0x1B0 JUMP JUMPDEST SWAP1 POP SWAP2 SWAP1 POP JUMP JUMPDEST PUSH3 0x1EF DUP2 PUSH3 0x1D0 JUMP JUMPDEST DUP2 EQ PUSH3 0x1FB JUMPI PUSH1 0x0 DUP1 REVERT JUMPDEST POP JUMP JUMPDEST PUSH1 0x0 DUP2 MLOAD SWAP1 POP PUSH3 0x20F DUP2 PUSH3 0x1E4 JUMP JUMPDEST SWAP3 SWAP2 POP POP JUMP JUMPDEST PUSH1 0x0 PUSH3 0x22C PUSH3 0x226 DUP5 PUSH3 0x17C JUMP JUMPDEST PUSH3 0x15D JUMP JUMPDEST SWAP1 POP DUP1 DUP4 DUP3 MSTORE PUSH1 0x20 DUP3 ADD SWAP1 POP PUSH1 0x20 DUP5 MUL DUP4 ADD DUP6 DUP2 GT ISZERO PUSH3 0x252 JUMPI PUSH3 0x251 PUSH3 0x1AB JUMP JUMPDEST JUMPDEST DUP4 JUMPDEST DUP2 DUP2 LT ISZERO PUSH3 0x27F JUMPI DUP1 PUSH3 0x26A DUP9 DUP3 PUSH3 0x1FE JUMP JUMPDEST DUP5 MSTORE PUSH1 0x20 DUP5 ADD SWAP4 POP POP PUSH1 0x20 DUP2 ADD SWAP1 POP PUSH3 0x254 JUMP JUMPDEST POP POP POP SWAP4 SWAP3 POP POP POP JUMP JUMPDEST PUSH1 0x0 DUP3 PUSH1 0x1F DUP4 ADD SLT PUSH3 0x2A1 JUMPI PUSH3 0x2A0 PUSH3 0xE2 JUMP JUMPDEST JUMPDEST DUP2 MLOAD PUSH3 0x2B3 DUP5 DUP3 PUSH1 0x20 DUP7 ADD PUSH3 0x215 JUMP JUMPDEST SWAP2 POP POP SWAP3 SWAP2 POP POP JUMP JUMPDEST PUSH1 0x0 PUSH1 0x20 DUP3 DUP5 SUB SLT ISZERO PUSH3 0x2D5 JUMPI PUSH3 0x2D4 PUSH3 0xD8 JUMP JUMPDEST JUMPDEST PUSH1 0x0 DUP3 ADD MLOAD PUSH8 0xFFFFFFFFFFFFFFFF DUP2 GT ISZERO PUSH3 0x2F6 JUMPI PUSH3 0x2F5 PUSH3 0xDD JUMP JUMPDEST JUMPDEST PUSH3 0x304 DUP5 DUP3 DUP6 ADD PUSH3 0x289 JUMP JUMPDEST SWAP2 POP POP SWAP3 SWAP2 POP POP JUMP JUMPDEST PUSH32 0x4E487B7100000000000000000000000000000000000000000000000000000000 PUSH1 0x0 MSTORE PUSH1 0x32 PUSH1 0x4 MSTORE PUSH1 0x24 PUSH1 0x0 REVERT JUMPDEST PUSH2 0x139C DUP1 PUSH3 0x34C PUSH1 0x0 CODECOPY PUSH1 0x0 RETURN INVALID PUSH1 0x80 PUSH1 0x40 MSTORE CALLVALUE DUP1 ISZERO PUSH2 0x10 JUMPI PUSH1 0x0 DUP1 REVERT JUMPDEST POP PUSH1 0x4 CALLDATASIZE LT PUSH2 0x7D JUMPI PUSH1 0x0 CALLDATALOAD PUSH1 0xE0 SHR DUP1 PUSH4 0xB39C4897 GT PUSH2 0x5B JUMPI DUP1 PUSH4 0xB39C4897 EQ PUSH2 0xFE JUMPI DUP1 PUSH4 0xB97680D7 EQ PUSH2 0x132 JUMPI DUP1 PUSH4 0xC4D665F1 EQ PUSH2 0x14E JUMPI DUP1 PUSH4 0xEBD7DC52 EQ PUSH2 0x16C JUMPI PUSH2 0x7D JUMP JUMPDEST DUP1 PUSH4 0x224905CE EQ PUSH2 0x82 JUMPI DUP1 PUSH4 0x258198AF EQ PUSH2 0x9E JUMPI DUP1 PUSH4 0xAADC3B72 EQ PUSH2 0xCE JUMPI JUMPDEST PUSH1 0x0 DUP1 REVERT JUMPDEST PUSH2 0x9C PUSH1 0x4 DUP1 CALLDATASIZE SUB DUP2 ADD SWAP1 PUSH2 0x97 SWAP2 SWAP1 PUSH2 0x9C6 JUMP JUMPDEST PUSH2 0x19C JUMP JUMPDEST STOP JUMPDEST PUSH2 0xB8 PUSH1 0x4 DUP1 CALLDATASIZE SUB DUP2 ADD SWAP1 PUSH2 0xB3 SWAP2 SWAP1 PUSH2 0x9C6 JUMP JUMPDEST PUSH2 0x654 JUMP JUMPDEST PUSH1 0x40 MLOAD PUSH2 0xC5 SWAP2 SWAP1 PUSH2 0xA6A JUMP JUMPDEST PUSH1 0x40 MLOAD DUP1 SWAP2 SUB SWAP1 RETURN JUMPDEST PUSH2 0xE8 PUSH1 0x4 DUP1 CALLDATASIZE SUB DUP2 ADD SWAP1 PUSH2 0xE3 SWAP2 SWAP1 PUSH2 0xAE3 JUMP JUMPDEST PUSH2 0x680 JUMP JUMPDEST PUSH1 0x40 MLOAD PUSH2 0xF5 SWAP2 SWAP1 PUSH2 0xB3E JUMP JUMPDEST PUSH1 0x40 MLOAD DUP1 SWAP2 SUB SWAP1 RETURN JUMPDEST PUSH2 0x118 PUSH1 0x4 DUP1 CALLDATASIZE SUB DUP2 ADD SWAP1 PUSH2 0x113 SWAP2 SWAP1 PUSH2 0x9C6 JUMP JUMPDEST PUSH2 0x6AF JUMP JUMPDEST PUSH1 0x40 MLOAD PUSH2 0x129 SWAP6 SWAP5 SWAP4 SWAP3 SWAP2 SWAP1 PUSH2 0xC1E JUMP JUMPDEST PUSH1 0x40 MLOAD DUP1 SWAP2 SUB SWAP1 RETURN JUMPDEST PUSH2 0x14C PUSH1 0x4 DUP1 CALLDATASIZE SUB DUP2 ADD SWAP1 PUSH2 0x147 SWAP2 SWAP1 PUSH2 0xCDD JUMP JUMPDEST PUSH2 0x794 JUMP JUMPDEST STOP JUMPDEST PUSH2 0x156 PUSH2 0x961 JUMP JUMPDEST PUSH1 0x40 MLOAD PUSH2 0x163 SWAP2 SWAP1 PUSH2 0xD3D JUMP JUMPDEST PUSH1 0x40 MLOAD DUP1 SWAP2 SUB SWAP1 RETURN JUMPDEST PUSH2 0x186 PUSH1 0x4 DUP1 CALLDATASIZE SUB DUP2 ADD SWAP1 PUSH2 0x181 SWAP2 SWAP1 PUSH2 0xD58 JUMP JUMPDEST PUSH2 0x966 JUMP JUMPDEST PUSH1 0x40 MLOAD PUSH2 0x193 SWAP2 SWAP1 PUSH2 0xB3E JUMP JUMPDEST PUSH1 0x40 MLOAD DUP1 SWAP2 SUB SWAP1 RETURN JUMPDEST PUSH1 0x1 PUSH1 0x0 CALLER PUSH20 0xFFFFFFFFFFFFFFFFFFFFFFFFFFFFFFFFFFFFFFFF AND PUSH20 0xFFFFFFFFFFFFFFFFFFFFFFFFFFFFFFFFFFFFFFFF AND DUP2 MSTORE PUSH1 0x20 ADD SWAP1 DUP2 MSTORE PUSH1 0x20 ADD PUSH1 0x0 KECCAK256 PUSH1 0x0 SWAP1 SLOAD SWAP1 PUSH2 0x100 EXP SWAP1 DIV PUSH1 0xFF AND PUSH2 0x228 JUMPI PUSH1 0x40 MLOAD PUSH32 0x8C379A000000000000000000000000000000000000000000000000000000000 DUP2 MSTORE PUSH1 0x4 ADD PUSH2 0x21F SWAP1 PUSH2 0xDD1 JUMP JUMPDEST PUSH1 0x40 MLOAD DUP1 SWAP2 SUB SWAP1 REVERT JUMPDEST PUSH1 0x0 DUP1 DUP3 DUP2 MSTORE PUSH1 0x20 ADD SWAP1 DUP2 MSTORE PUSH1 0x20 ADD PUSH1 0x0 KECCAK256 PUSH1 0x2 ADD PUSH1 0x2 SWAP1 SLOAD SWAP1 PUSH2 0x100 EXP SWAP1 DIV PUSH1 0xFF AND PUSH2 0x28A JUMPI PUSH1 0x40 MLOAD PUSH32 0x8C379A000000000000000000000000000000000000000000000000000000000 DUP2 MSTORE PUSH1 0x4 ADD PUSH2 0x281 SWAP1 PUSH2 0xE3D JUMP JUMPDEST PUSH1 0x40 MLOAD DUP1 SWAP2 SUB SWAP1 REVERT JUMPDEST PUSH1 0x2 PUSH1 0x0 DUP3 DUP2 MSTORE PUSH1 0x20 ADD SWAP1 DUP2 MSTORE PUSH1 0x20 ADD PUSH1 0x0 KECCAK256 PUSH1 0x0 CALLER PUSH20 0xFFFFFFFFFFFFFFFFFFFFFFFFFFFFFFFFFFFFFFFF AND PUSH20 0xFFFFFFFFFFFFFFFFFFFFFFFFFFFFFFFFFFFFFFFF AND DUP2 MSTORE PUSH1 0x20 ADD SWAP1 DUP2 MSTORE PUSH1 0x20 ADD PUSH1 0x0 KECCAK256 PUSH1 0x0 SWAP1 SLOAD SWAP1 PUSH2 0x100 EXP SWAP1 DIV PUSH1 0xFF AND ISZERO PUSH2 0x328 JUMPI PUSH1 0x40 MLOAD PUSH32 0x8C379A000000000000000000000000000000000000000000000000000000000 DUP2 MSTORE PUSH1 0x4 ADD PUSH2 0x31F SWAP1 PUSH2 0xEA9 JUMP JUMPDEST PUSH1 0x40 MLOAD DUP1 SWAP2 SUB SWAP1 REVERT JUMPDEST PUSH1 0x0 PUSH1 0x3 DUP2 GT ISZERO PUSH2 0x33C JUMPI PUSH2 0x33B PUSH2 0x9F3 JUMP JUMPDEST JUMPDEST PUSH1 0x0 DUP1 DUP4 DUP2 MSTORE PUSH1 0x20 ADD SWAP1 DUP2 MSTORE PUSH1 0x20 ADD PUSH1 0x0 KECCAK256 PUSH1 0x2 ADD PUSH1 0x0 SWAP1 SLOAD SWAP1 PUSH2 0x100 EXP SWAP1 DIV PUSH1 0xFF AND PUSH1 0x3 DUP2 GT ISZERO PUSH2 0x371 JUMPI PUSH2 0x370 PUSH2 0x9F3 JUMP JUMPDEST JUMPDEST EQ DUP1 PUSH2 0x3C3 JUMPI POP PUSH1 0x1 PUSH1 0x3 DUP2 GT ISZERO PUSH2 0x38C JUMPI PUSH2 0x38B PUSH2 0x9F3 JUMP JUMPDEST JUMPDEST PUSH1 0x0 DUP1 DUP4 DUP2 MSTORE PUSH1 0x20 ADD SWAP1 DUP2 MSTORE PUSH1 0x20 ADD PUSH1 0x0 KECCAK256 PUSH1 0x2 ADD PUSH1 0x0 SWAP1 SLOAD SWAP1 PUSH2 0x100 EXP SWAP1 DIV PUSH1 0xFF AND PUSH1 0x3 DUP2 GT ISZERO PUSH2 0x3C1 JUMPI PUSH2 0x3C0 PUSH2 0x9F3 JUMP JUMPDEST JUMPDEST EQ JUMPDEST PUSH2 0x402 JUMPI PUSH1 0x40 MLOAD PUSH32 0x8C379A000000000000000000000000000000000000000000000000000000000 DUP2 MSTORE PUSH1 0x4 ADD PUSH2 0x3F9 SWAP1 PUSH2 0xF15 JUMP JUMPDEST PUSH1 0x40 MLOAD DUP1 SWAP2 SUB SWAP1 REVERT JUMPDEST PUSH1 0x1 PUSH1 0x2 PUSH1 0x0 DUP4 DUP2 MSTORE PUSH1 0x20 ADD SWAP1 DUP2 MSTORE PUSH1 0x20 ADD PUSH1 0x0 KECCAK256 PUSH1 0x0 CALLER PUSH20 0xFFFFFFFFFFFFFFFFFFFFFFFFFFFFFFFFFFFFFFFF AND PUSH20 0xFFFFFFFFFFFFFFFFFFFFFFFFFFFFFFFFFFFFFFFF AND DUP2 MSTORE PUSH1 0x20 ADD SWAP1 DUP2 MSTORE PUSH1 0x20 ADD PUSH1 0x0 KECCAK256 PUSH1 0x0 PUSH2 0x100 EXP DUP2 SLOAD DUP2 PUSH1 0xFF MUL NOT AND SWAP1 DUP4 ISZERO ISZERO MUL OR SWAP1 SSTORE POP PUSH1 0x0 DUP1 DUP3 DUP2 MSTORE PUSH1 0x20 ADD SWAP1 DUP2 MSTORE PUSH1 0x20 ADD PUSH1 0x0 KECCAK256 PUSH1 0x2 ADD PUSH1 0x1 DUP2 DUP2 SWAP1 SLOAD SWAP1 PUSH2 0x100 EXP SWAP1 DIV PUSH1 0xFF AND DUP1 SWAP3 SWAP2 SWAP1 PUSH2 0x49D SWAP1 PUSH2 0xF64 JUMP JUMPDEST SWAP2 SWAP1 PUSH2 0x100 EXP DUP2 SLOAD DUP2 PUSH1 0xFF MUL NOT AND SWAP1 DUP4 PUSH1 0xFF AND MUL OR SWAP1 SSTORE POP POP PUSH1 0x0 PUSH1 0x3 DUP2 GT ISZERO PUSH2 0x4CA JUMPI PUSH2 0x4C9 PUSH2 0x9F3 JUMP JUMPDEST JUMPDEST PUSH1 0x0 DUP1 DUP4 DUP2 MSTORE PUSH1 0x20 ADD SWAP1 DUP2 MSTORE PUSH1 0x20 ADD PUSH1 0x0 KECCAK256 PUSH1 0x2 ADD PUSH1 0x0 SWAP1 SLOAD SWAP1 PUSH2 0x100 EXP SWAP1 DIV PUSH1 0xFF AND PUSH1 0x3 DUP2 GT ISZERO PUSH2 0x4FF JUMPI PUSH2 0x4FE PUSH2 0x9F3 JUMP JUMPDEST JUMPDEST SUB PUSH2 0x57C JUMPI PUSH1 0x1 PUSH1 0x0 DUP1 DUP4 DUP2 MSTORE PUSH1 0x20 ADD SWAP1 DUP2 MSTORE PUSH1 0x20 ADD PUSH1 0x0 KECCAK256 PUSH1 0x2 ADD PUSH1 0x0 PUSH2 0x100 EXP DUP2 SLOAD DUP2 PUSH1 0xFF MUL NOT AND SWAP1 DUP4 PUSH1 0x3 DUP2 GT ISZERO PUSH2 0x53D JUMPI PUSH2 0x53C PUSH2 0x9F3 JUMP JUMPDEST JUMPDEST MUL OR SWAP1 SSTORE POP DUP1 PUSH32 0x22CE671CD3F328F71EF109D846AF764DF2D16BB8EB664C4F41065656C6E9962C PUSH1 0x1 PUSH1 0x40 MLOAD PUSH2 0x573 SWAP2 SWAP1 PUSH2 0xA6A JUMP JUMPDEST PUSH1 0x40 MLOAD DUP1 SWAP2 SUB SWAP1 LOG2 JUMPDEST PUSH1 0x3 PUSH1 0xFF AND PUSH1 0x0 DUP1 DUP4 DUP2 MSTORE PUSH1 0x20 ADD SWAP1 DUP2 MSTORE PUSH1 0x20 ADD PUSH1 0x0 KECCAK256 PUSH1 0x2 ADD PUSH1 0x1 SWAP1 SLOAD SWAP1 PUSH2 0x100 EXP SWAP1 DIV PUSH1 0xFF AND PUSH1 0xFF AND LT PUSH2 0x651 JUMPI PUSH1 0x2 PUSH1 0x0 DUP1 DUP4 DUP2 MSTORE PUSH1 0x20 ADD SWAP1 DUP2 MSTORE PUSH1 0x20 ADD PUSH1 0x0 KECCAK256 PUSH1 0x2 ADD PUSH1 0x0 PUSH2 0x100 EXP DUP2 SLOAD DUP2 PUSH1 0xFF MUL NOT AND SWAP1 DUP4 PUSH1 0x3 DUP2 GT ISZERO PUSH2 0x5E5 JUMPI PUSH2 0x5E4 PUSH2 0x9F3 JUMP JUMPDEST JUMPDEST MUL OR SWAP1 SSTORE POP DUP1 PUSH32 0x4B519481C83763E2BA8808371CC5E5E1E3EEFD0A580467F02E21198147298A15 PUSH1 0x40 MLOAD PUSH1 0x40 MLOAD DUP1 SWAP2 SUB SWAP1 LOG2 DUP1 PUSH32 0x22CE671CD3F328F71EF109D846AF764DF2D16BB8EB664C4F41065656C6E9962C PUSH1 0x2 PUSH1 0x40 MLOAD PUSH2 0x648 SWAP2 SWAP1 PUSH2 0xA6A JUMP JUMPDEST PUSH1 0x40 MLOAD DUP1 SWAP2 SUB SWAP1 LOG2 JUMPDEST POP JUMP JUMPDEST PUSH1 0x0 DUP1 PUSH1 0x0 DUP4 DUP2 MSTORE PUSH1 0x20 ADD SWAP1 DUP2 MSTORE PUSH1 0x20 ADD PUSH1 0x0 KECCAK256 PUSH1 0x2 ADD PUSH1 0x0 SWAP1 SLOAD SWAP1 PUSH2 0x100 EXP SWAP1 DIV PUSH1 0xFF AND SWAP1 POP SWAP2 SWAP1 POP JUMP JUMPDEST PUSH1 0x2 PUSH1 0x20 MSTORE DUP2 PUSH1 0x0 MSTORE PUSH1 0x40 PUSH1 0x0 KECCAK256 PUSH1 0x20 MSTORE DUP1 PUSH1 0x0 MSTORE PUSH1 0x40 PUSH1 0x0 KECCAK256 PUSH1 0x0 SWAP2 POP SWAP2 POP SWAP1 SLOAD SWAP1 PUSH2 0x100 EXP SWAP1 DIV PUSH1 0xFF AND DUP2 JUMP JUMPDEST PUSH1 0x0 PUSH1 0x20 MSTORE DUP1 PUSH1 0x0 MSTORE PUSH1 0x40 PUSH1 0x0 KECCAK256 PUSH1 0x0 SWAP2 POP SWAP1 POP DUP1 PUSH1 0x0 ADD DUP1 SLOAD PUSH2 0x6D2 SWAP1 PUSH2 0xFBC JUMP JUMPDEST DUP1 PUSH1 0x1F ADD PUSH1 0x20 DUP1 SWAP2 DIV MUL PUSH1 0x20 ADD PUSH1 0x40 MLOAD SWAP1 DUP2 ADD PUSH1 0x40 MSTORE DUP1 SWAP3 SWAP2 SWAP1 DUP2 DUP2 MSTORE PUSH1 0x20 ADD DUP3 DUP1 SLOAD PUSH2 0x6FE SWAP1 PUSH2 0xFBC JUMP JUMPDEST DUP1 ISZERO PUSH2 0x74B JUMPI DUP1 PUSH1 0x1F LT PUSH2 0x720 JUMPI PUSH2 0x100 DUP1 DUP4 SLOAD DIV MUL DUP4 MSTORE SWAP2 PUSH1 0x20 ADD SWAP2 PUSH2 0x74B JUMP JUMPDEST DUP3 ADD SWAP2 SWAP1 PUSH1 0x0 MSTORE PUSH1 0x20 PUSH1 0x0 KECCAK256 SWAP1 JUMPDEST DUP2 SLOAD DUP2 MSTORE SWAP1 PUSH1 0x1 ADD SWAP1 PUSH1 0x20 ADD DUP1 DUP4 GT PUSH2 0x72E JUMPI DUP3 SWAP1 SUB PUSH1 0x1F AND DUP3 ADD SWAP2 JUMPDEST POP POP POP POP POP SWAP1 DUP1 PUSH1 0x1 ADD SLOAD SWAP1 DUP1 PUSH1 0x2 ADD PUSH1 0x0 SWAP1 SLOAD SWAP1 PUSH2 0x100 EXP SWAP1 DIV PUSH1 0xFF AND SWAP1 DUP1 PUSH1 0x2 ADD PUSH1 0x1 SWAP1 SLOAD SWAP1 PUSH2 0x100 EXP SWAP1 DIV PUSH1 0xFF AND SWAP1 DUP1 PUSH1 0x2 ADD PUSH1 0x2 SWAP1 SLOAD SWAP1 PUSH2 0x100 EXP SWAP1 DIV PUSH1 0xFF AND SWAP1 POP DUP6 JUMP JUMPDEST PUSH1 0x0 DUP1 DUP5 DUP2 MSTORE PUSH1 0x20 ADD SWAP1 DUP2 MSTORE PUSH1 0x20 ADD PUSH1 0x0 KECCAK256 PUSH1 0x2 ADD PUSH1 0x2 SWAP1 SLOAD SWAP1 PUSH2 0x100 EXP SWAP1 DIV PUSH1 0xFF AND ISZERO PUSH2 0x7F7 JUMPI PUSH1 0x40 MLOAD PUSH32 0x8C379A000000000000000000000000000000000000000000000000000000000 DUP2 MSTORE PUSH1 0x4 ADD PUSH2 0x7EE SWAP1 PUSH2 0x1039 JUMP JUMPDEST PUSH1 0x40 MLOAD DUP1 SWAP2 SUB SWAP1 REVERT JUMPDEST PUSH1 0x40 MLOAD DUP1 PUSH1 0xA0 ADD PUSH1 0x40 MSTORE DUP1 DUP4 DUP4 DUP1 DUP1 PUSH1 0x1F ADD PUSH1 0x20 DUP1 SWAP2 DIV MUL PUSH1 0x20 ADD PUSH1 0x40 MLOAD SWAP1 DUP2 ADD PUSH1 0x40 MSTORE DUP1 SWAP4 SWAP3 SWAP2 SWAP1 DUP2 DUP2 MSTORE PUSH1 0x20 ADD DUP4 DUP4 DUP1 DUP3 DUP5 CALLDATACOPY PUSH1 0x0 DUP2 DUP5 ADD MSTORE PUSH1 0x1F NOT PUSH1 0x1F DUP3 ADD AND SWAP1 POP DUP1 DUP4 ADD SWAP3 POP POP POP POP POP POP POP DUP2 MSTORE PUSH1 0x20 ADD TIMESTAMP DUP2 MSTORE PUSH1 0x20 ADD PUSH1 0x0 PUSH1 0x3 DUP2 GT ISZERO PUSH2 0x866 JUMPI PUSH2 0x865 PUSH2 0x9F3 JUMP JUMPDEST JUMPDEST DUP2 MSTORE PUSH1 0x20 ADD PUSH1 0x0 PUSH1 0xFF AND DUP2 MSTORE PUSH1 0x20 ADD PUSH1 0x1 ISZERO ISZERO DUP2 MSTORE POP PUSH1 0x0 DUP1 DUP6 DUP2 MSTORE PUSH1 0x20 ADD SWAP1 DUP2 MSTORE PUSH1 0x20 ADD PUSH1 0x0 KECCAK256 PUSH1 0x0 DUP3 ADD MLOAD DUP2 PUSH1 0x0 ADD SWAP1 DUP2 PUSH2 0x8A3 SWAP2 SWAP1 PUSH2 0x1234 JUMP JUMPDEST POP PUSH1 0x20 DUP3 ADD MLOAD DUP2 PUSH1 0x1 ADD SSTORE PUSH1 0x40 DUP3 ADD MLOAD DUP2 PUSH1 0x2 ADD PUSH1 0x0 PUSH2 0x100 EXP DUP2 SLOAD DUP2 PUSH1 0xFF MUL NOT AND SWAP1 DUP4 PUSH1 0x3 DUP2 GT ISZERO PUSH2 0x8D9 JUMPI PUSH2 0x8D8 PUSH2 0x9F3 JUMP JUMPDEST JUMPDEST MUL OR SWAP1 SSTORE POP PUSH1 0x60 DUP3 ADD MLOAD DUP2 PUSH1 0x2 ADD PUSH1 0x1 PUSH2 0x100 EXP DUP2 SLOAD DUP2 PUSH1 0xFF MUL NOT AND SWAP1 DUP4 PUSH1 0xFF AND MUL OR SWAP1 SSTORE POP PUSH1 0x80 DUP3 ADD MLOAD DUP2 PUSH1 0x2 ADD PUSH1 0x2 PUSH2 0x100 EXP DUP2 SLOAD DUP2 PUSH1 0xFF MUL NOT AND SWAP1 DUP4 ISZERO ISZERO MUL OR SWAP1 SSTORE POP SWAP1 POP POP DUP3 PUSH32 0xEAEAE23492543DCF2AAED81BCA96790B723C2AF0CAAF126FE062E69F93E1FE32 DUP4 DUP4 PUSH1 0x40 MLOAD PUSH2 0x954 SWAP3 SWAP2 SWAP1 PUSH2 0x1342 JUMP JUMPDEST PUSH1 0x40 MLOAD DUP1 SWAP2 SUB SWAP1 LOG2 POP POP POP JUMP JUMPDEST PUSH1 0x3 DUP2 JUMP JUMPDEST PUSH1 0x1 PUSH1 0x20 MSTORE DUP1 PUSH1 0x0 MSTORE PUSH1 0x40 PUSH1 0x0 KECCAK256 PUSH1 0x0 SWAP2 POP SLOAD SWAP1 PUSH2 0x100 EXP SWAP1 DIV PUSH1 0xFF AND DUP2 JUMP JUMPDEST PUSH1 0x0 DUP1 REVERT JUMPDEST PUSH1 0x0 DUP1 REVERT JUMPDEST PUSH1 0x0 DUP2 SWAP1 POP SWAP2 SWAP1 POP JUMP JUMPDEST PUSH2 0x9A3 DUP2 PUSH2 0x990 JUMP JUMPDEST DUP2 EQ PUSH2 0x9AE JUMPI PUSH1 0x0 DUP1 REVERT JUMPDEST POP JUMP JUMPDEST PUSH1 0x0 DUP2 CALLDATALOAD SWAP1 POP PUSH2 0x9C0 DUP2 PUSH2 0x99A JUMP JUMPDEST SWAP3 SWAP2 POP POP JUMP JUMPDEST PUSH1 0x0 PUSH1 0x20 DUP3 DUP5 SUB SLT ISZERO PUSH2 0x9DC JUMPI PUSH2 0x9DB PUSH2 0x986 JUMP JUMPDEST JUMPDEST PUSH1 0x0 PUSH2 0x9EA DUP5 DUP3 DUP6 ADD PUSH2 0x9B1 JUMP JUMPDEST SWAP2 POP POP SWAP3 SWAP2 POP POP JUMP JUMPDEST PUSH32 0x4E487B7100000000000000000000000000000000000000000000000000000000 PUSH1 0x0 MSTORE PUSH1 0x21 PUSH1 0x4 MSTORE PUSH1 0x24 PUSH1 0x0 REVERT JUMPDEST PUSH1 0x4 DUP2 LT PUSH2 0xA33 JUMPI PUSH2 0xA32 PUSH2 0x9F3 JUMP JUMPDEST JUMPDEST POP JUMP JUMPDEST PUSH1 0x0 DUP2 SWAP1 POP PUSH2 0xA44 DUP3 PUSH2 0xA22 JUMP JUMPDEST SWAP2 SWAP1 POP JUMP JUMPDEST PUSH1 0x0 PUSH2 0xA54 DUP3 PUSH2 0xA36 JUMP JUMPDEST SWAP1 POP SWAP2 SWAP1 POP JUMP JUMPDEST PUSH2 0xA64 DUP2 PUSH2 0xA49 JUMP JUMPDEST DUP3 MSTORE POP POP JUMP JUMPDEST PUSH1 0x0 PUSH1 0x20 DUP3 ADD SWAP1 POP PUSH2 0xA7F PUSH1 0x0 DUP4 ADD DUP5 PUSH2 0xA5B JUMP JUMPDEST SWAP3 SWAP2 POP POP JUMP JUMPDEST PUSH1 0x0 PUSH20 0xFFFFFFFFFFFFFFFFFFFFFFFFFFFFFFFFFFFFFFFF DUP3 AND SWAP1 POP SWAP2 SWAP1 POP JUMP JUMPDEST PUSH1 0x0 PUSH2 0xAB0 DUP3 PUSH2 0xA85 JUMP JUMPDEST SWAP1 POP SWAP2 SWAP1 POP JUMP JUMPDEST PUSH2 0xAC0 DUP2 PUSH2 0xAA5 JUMP JUMPDEST DUP2 EQ PUSH2 0xACB JUMPI PUSH1 0x0 DUP1 REVERT JUMPDEST POP JUMP JUMPDEST PUSH1 0x0 DUP2 CALLDATALOAD SWAP1 POP PUSH2 0xADD DUP2 PUSH2 0xAB7 JUMP JUMPDEST SWAP3 SWAP2 POP POP JUMP JUMPDEST PUSH1 0x0 DUP1 PUSH1 0x40 DUP4 DUP6 SUB SLT ISZERO PUSH2 0xAFA JUMPI PUSH2 0xAF9 PUSH2 0x986 JUMP JUMPDEST JUMPDEST PUSH1 0x0 PUSH2 0xB08 DUP6 DUP3 DUP7 ADD PUSH2 0x9B1 JUMP JUMPDEST SWAP3 POP POP PUSH1 0x20 PUSH2 0xB19 DUP6 DUP3 DUP7 ADD PUSH2 0xACE JUMP JUMPDEST SWAP2 POP POP SWAP3 POP SWAP3 SWAP1 POP JUMP JUMPDEST PUSH1 0x0 DUP2 ISZERO ISZERO SWAP1 POP SWAP2 SWAP1 POP JUMP JUMPDEST PUSH2 0xB38 DUP2 PUSH2 0xB23 JUMP JUMPDEST DUP3 MSTORE POP POP JUMP JUMPDEST PUSH1 0x0 PUSH1 0x20 DUP3 ADD SWAP1 POP PUSH2 0xB53 PUSH1 0x0 DUP4 ADD DUP5 PUSH2 0xB2F JUMP JUMPDEST SWAP3 SWAP2 POP POP JUMP JUMPDEST PUSH1 0x0 DUP2 MLOAD SWAP1 POP SWAP2 SWAP1 POP JUMP JUMPDEST PUSH1 0x0 DUP3 DUP3 MSTORE PUSH1 0x20 DUP3 ADD SWAP1 POP SWAP3 SWAP2 POP POP JUMP JUMPDEST PUSH1 0x0 JUMPDEST DUP4 DUP2 LT ISZERO PUSH2 0xB93 JUMPI DUP1 DUP3 ADD MLOAD DUP2 DUP5 ADD MSTORE PUSH1 0x20 DUP2 ADD SWAP1 POP PUSH2 0xB78 JUMP JUMPDEST PUSH1 0x0 DUP5 DUP5 ADD MSTORE POP POP POP POP JUMP JUMPDEST PUSH1 0x0 PUSH1 0x1F NOT PUSH1 0x1F DUP4 ADD AND SWAP1 POP SWAP2 SWAP1 POP JUMP JUMPDEST PUSH1 0x0 PUSH2 0xBBB DUP3 PUSH2 0xB59 JUMP JUMPDEST PUSH2 0xBC5 DUP2 DUP6 PUSH2 0xB64 JUMP JUMPDEST SWAP4 POP PUSH2 0xBD5 DUP2 DUP6 PUSH1 0x20 DUP7 ADD PUSH2 0xB75 JUMP JUMPDEST PUSH2 0xBDE DUP2 PUSH2 0xB9F JUMP JUMPDEST DUP5 ADD SWAP2 POP POP SWAP3 SWAP2 POP POP JUMP JUMPDEST PUSH1 0x0 DUP2 SWAP1 POP SWAP2 SWAP1 POP JUMP JUMPDEST PUSH2 0xBFC DUP2 PUSH2 0xBE9 JUMP JUMPDEST DUP3 MSTORE POP POP JUMP JUMPDEST PUSH1 0x0 PUSH1 0xFF DUP3 AND SWAP1 POP SWAP2 SWAP1 POP JUMP JUMPDEST PUSH2 0xC18 DUP2 PUSH2 0xC02 JUMP JUMPDEST DUP3 MSTORE POP POP JUMP JUMPDEST PUSH1 0x0 PUSH1 0xA0 DUP3 ADD SWAP1 POP DUP2 DUP2 SUB PUSH1 0x0 DUP4 ADD MSTORE PUSH2 0xC38 DUP2 DUP9 PUSH2 0xBB0 JUMP JUMPDEST SWAP1 POP PUSH2 0xC47 PUSH1 0x20 DUP4 ADD DUP8 PUSH2 0xBF3 JUMP JUMPDEST PUSH2 0xC54 PUSH1 0x40 DUP4 ADD DUP7 PUSH2 0xA5B JUMP JUMPDEST PUSH2 0xC61 PUSH1 0x60 DUP4 ADD DUP6 PUSH2 0xC0F JUMP JUMPDEST PUSH2 0xC6E PUSH1 0x80 DUP4 ADD DUP5 PUSH2 0xB2F JUMP JUMPDEST SWAP7 SWAP6 POP POP POP POP POP POP JUMP JUMPDEST PUSH1 0x0 DUP1 REVERT JUMPDEST PUSH1 0x0 DUP1 REVERT JUMPDEST PUSH1 0x0 DUP1 REVERT JUMPDEST PUSH1 0x0 DUP1 DUP4 PUSH1 0x1F DUP5 ADD SLT PUSH2 0xC9D JUMPI PUSH2 0xC9C PUSH2 0xC78 JUMP JUMPDEST JUMPDEST DUP3 CALLDATALOAD SWAP1 POP PUSH8 0xFFFFFFFFFFFFFFFF DUP2 GT ISZERO PUSH2 0xCBA JUMPI PUSH2 0xCB9 PUSH2 0xC7D JUMP JUMPDEST JUMPDEST PUSH1 0x20 DUP4 ADD SWAP2 POP DUP4 PUSH1 0x1 DUP3 MUL DUP4 ADD GT ISZERO PUSH2 0xCD6 JUMPI PUSH2 0xCD5 PUSH2 0xC82 JUMP JUMPDEST JUMPDEST SWAP3 POP SWAP3 SWAP1 POP JUMP JUMPDEST PUSH1 0x0 DUP1 PUSH1 0x0 PUSH1 0x40 DUP5 DUP7 SUB SLT ISZERO PUSH2 0xCF6 JUMPI PUSH2 0xCF5 PUSH2 0x986 JUMP JUMPDEST JUMPDEST PUSH1 0x0 PUSH2 0xD04 DUP7 DUP3 DUP8 ADD PUSH2 0x9B1 JUMP JUMPDEST SWAP4 POP POP PUSH1 0x20 DUP5 ADD CALLDATALOAD PUSH8 0xFFFFFFFFFFFFFFFF DUP2 GT ISZERO PUSH2 0xD25 JUMPI PUSH2 0xD24 PUSH2 0x98B JUMP JUMPDEST JUMPDEST PUSH2 0xD31 DUP7 DUP3 DUP8 ADD PUSH2 0xC87 JUMP JUMPDEST SWAP3 POP SWAP3 POP POP SWAP3 POP SWAP3 POP SWAP3 JUMP JUMPDEST PUSH1 0x0 PUSH1 0x20 DUP3 ADD SWAP1 POP PUSH2 0xD52 PUSH1 0x0 DUP4 ADD DUP5 PUSH2 0xC0F JUMP JUMPDEST SWAP3 SWAP2 POP POP JUMP JUMPDEST PUSH1 0x0 PUSH1 0x20 DUP3 DUP5 SUB SLT ISZERO PUSH2 0xD6E JUMPI PUSH2 0xD6D PUSH2 0x986 JUMP JUMPDEST JUMPDEST PUSH1 0x0 PUSH2 0xD7C DUP5 DUP3 DUP6 ADD PUSH2 0xACE JUMP JUMPDEST SWAP2 POP POP SWAP3 SWAP2 POP POP JUMP JUMPDEST PUSH32 0x4E6F74206120636F756E63696C206D656D626572000000000000000000000000 PUSH1 0x0 DUP3 ADD MSTORE POP JUMP JUMPDEST PUSH1 0x0 PUSH2 0xDBB PUSH1 0x14 DUP4 PUSH2 0xB64 JUMP JUMPDEST SWAP2 POP PUSH2 0xDC6 DUP3 PUSH2 0xD85 JUMP JUMPDEST PUSH1 0x20 DUP3 ADD SWAP1 POP SWAP2 SWAP1 POP JUMP JUMPDEST PUSH1 0x0 PUSH1 0x20 DUP3 ADD SWAP1 POP DUP2 DUP2 SUB PUSH1 0x0 DUP4 ADD MSTORE PUSH2 0xDEA DUP2 PUSH2 0xDAE JUMP JUMPDEST SWAP1 POP SWAP2 SWAP1 POP JUMP JUMPDEST PUSH32 0x4361736520646F6573206E6F7420657869737400000000000000000000000000 PUSH1 0x0 DUP3 ADD MSTORE POP JUMP JUMPDEST PUSH1 0x0 PUSH2 0xE27 PUSH1 0x13 DUP4 PUSH2 0xB64 JUMP JUMPDEST SWAP2 POP PUSH2 0xE32 DUP3 PUSH2 0xDF1 JUMP JUMPDEST PUSH1 0x20 DUP3 ADD SWAP1 POP SWAP2 SWAP1 POP JUMP JUMPDEST PUSH1 0x0 PUSH1 0x20 DUP3 ADD SWAP1 POP DUP2 DUP2 SUB PUSH1 0x0 DUP4 ADD MSTORE PUSH2 0xE56 DUP2 PUSH2 0xE1A JUMP JUMPDEST SWAP1 POP SWAP2 SWAP1 POP JUMP JUMPDEST PUSH32 0x416C726561647920766F74656400000000000000000000000000000000000000 PUSH1 0x0 DUP3 ADD MSTORE POP JUMP JUMPDEST PUSH1 0x0 PUSH2 0xE93 PUSH1 0xD DUP4 PUSH2 0xB64 JUMP JUMPDEST SWAP2 POP PUSH2 0xE9E DUP3 PUSH2 0xE5D JUMP JUMPDEST PUSH1 0x20 DUP3 ADD SWAP1 POP SWAP2 SWAP1 POP JUMP JUMPDEST PUSH1 0x0 PUSH1 0x20 DUP3 ADD SWAP1 POP DUP2 DUP2 SUB PUSH1 0x0 DUP4 ADD MSTORE PUSH2 0xEC2 DUP2 PUSH2 0xE86 JUMP JUMPDEST SWAP1 POP SWAP2 SWAP1 POP JUMP JUMPDEST PUSH32 0x496E76616C696420737461747573000000000000000000000000000000000000 PUSH1 0x0 DUP3 ADD MSTORE POP JUMP JUMPDEST PUSH1 0x0 PUSH2 0xEFF PUSH1 0xE DUP4 PUSH2 0xB64 JUMP JUMPDEST SWAP2 POP PUSH2 0xF0A DUP3 PUSH2 0xEC9 JUMP JUMPDEST PUSH1 0x20 DUP3 ADD SWAP1 POP SWAP2 SWAP1 POP JUMP JUMPDEST PUSH1 0x0 PUSH1 0x20 DUP3 ADD SWAP1 POP DUP2 DUP2 SUB PUSH1 0x0 DUP4 ADD MSTORE PUSH2 0xF2E DUP2 PUSH2 0xEF2 JUMP JUMPDEST SWAP1 POP SWAP2 SWAP1 POP JUMP JUMPDEST PUSH32 0x4E487B7100000000000000000000000000000000000000000000000000000000 PUSH1 0x0 MSTORE PUSH1 0x11 PUSH1 0x4 MSTORE PUSH1 0x24 PUSH1 0x0 REVERT JUMPDEST PUSH1 0x0 PUSH2 0xF6F DUP3 PUSH2 0xC02 JUMP JUMPDEST SWAP2 POP PUSH1 0xFF DUP3 SUB PUSH2 0xF82 JUMPI PUSH2 0xF81 PUSH2 0xF35 JUMP JUMPDEST JUMPDEST PUSH1 0x1 DUP3 ADD SWAP1 POP SWAP2 SWAP1 POP JUMP JUMPDEST PUSH32 0x4E487B7100000000000000000000000000000000000000000000000000000000 PUSH1 0x0 MSTORE PUSH1 0x22 PUSH1 0x4 MSTORE PUSH1 0x24 PUSH1 0x0 REVERT JUMPDEST PUSH1 0x0 PUSH1 0x2 DUP3 DIV SWAP1 POP PUSH1 0x1 DUP3 AND DUP1 PUSH2 0xFD4 JUMPI PUSH1 0x7F DUP3 AND SWAP2 POP JUMPDEST PUSH1 0x20 DUP3 LT DUP2 SUB PUSH2 0xFE7 JUMPI PUSH2 0xFE6 PUSH2 0xF8D JUMP JUMPDEST JUMPDEST POP SWAP2 SWAP1 POP JUMP JUMPDEST PUSH32 0x4361736520494420616C72656164792065786973747300000000000000000000 PUSH1 0x0 DUP3 ADD MSTORE POP JUMP JUMPDEST PUSH1 0x0 PUSH2 0x1023 PUSH1 0x16 DUP4 PUSH2 0xB64 JUMP JUMPDEST SWAP2 POP PUSH2 0x102E DUP3 PUSH2 0xFED JUMP JUMPDEST PUSH1 0x20 DUP3 ADD SWAP1 POP SWAP2 SWAP1 POP JUMP JUMPDEST PUSH1 0x0 PUSH1 0x20 DUP3 ADD SWAP1 POP DUP2 DUP2 SUB PUSH1 0x0 DUP4 ADD MSTORE PUSH2 0x1052 DUP2 PUSH2 0x1016 JUMP JUMPDEST SWAP1 POP SWAP2 SWAP1 POP JUMP JUMPDEST PUSH32 0x4E487B7100000000000000000000000000000000000000000000000000000000 PUSH1 0x0 MSTORE PUSH1 0x41 PUSH1 0x4 MSTORE PUSH1 0x24 PUSH1 0x0 REVERT JUMPDEST PUSH1 0x0 DUP2 SWAP1 POP DUP2 PUSH1 0x0 MSTORE PUSH1 0x20 PUSH1 0x0 KECCAK256 SWAP1 POP SWAP2 SWAP1 POP JUMP JUMPDEST PUSH1 0x0 PUSH1 0x20 PUSH1 0x1F DUP4 ADD DIV SWAP1 POP SWAP2 SWAP1 POP JUMP JUMPDEST PUSH1 0x0 DUP3 DUP3 SHL SWAP1 POP SWAP3 SWAP2 POP POP JUMP JUMPDEST PUSH1 0x0 PUSH1 0x8 DUP4 MUL PUSH2 0x10EA PUSH32 0xFFFFFFFFFFFFFFFFFFFFFFFFFFFFFFFFFFFFFFFFFFFFFFFFFFFFFFFFFFFFFFFF DUP3 PUSH2 0x10AD JUMP JUMPDEST PUSH2 0x10F4 DUP7 DUP4 PUSH2 0x10AD JUMP JUMPDEST SWAP6 POP DUP1 NOT DUP5 AND SWAP4 POP DUP1 DUP7 AND DUP5 OR SWAP3 POP POP POP SWAP4 SWAP3 POP POP POP JUMP JUMPDEST PUSH1 0x0 DUP2 SWAP1 POP SWAP2 SWAP1 POP JUMP JUMPDEST PUSH1 0x0 PUSH2 0x1131 PUSH2 0x112C PUSH2 0x1127 DUP5 PUSH2 0xBE9 JUMP JUMPDEST PUSH2 0x110C JUMP JUMPDEST PUSH2 0xBE9 JUMP JUMPDEST SWAP1 POP SWAP2 SWAP1 POP JUMP JUMPDEST PUSH1 0x0 DUP2 SWAP1 POP SWAP2 SWAP1 POP JUMP JUMPDEST PUSH2 0x114B DUP4 PUSH2 0x1116 JUMP JUMPDEST PUSH2 0x115F PUSH2 0x1157 DUP3 PUSH2 0x1138 JUMP JUMPDEST DUP5 DUP5 SLOAD PUSH2 0x10BA JUMP JUMPDEST DUP3 SSTORE POP POP POP POP JUMP JUMPDEST PUSH1 0x0 SWAP1 JUMP JUMPDEST PUSH2 0x1174 PUSH2 0x1167 JUMP JUMPDEST PUSH2 0x117F DUP2 DUP5 DUP5 PUSH2 0x1142 JUMP JUMPDEST POP POP POP JUMP JUMPDEST JUMPDEST DUP2 DUP2 LT ISZERO PUSH2 0x11A3 JUMPI PUSH2 0x1198 PUSH1 0x0 DUP3 PUSH2 0x116C JUMP JUMPDEST PUSH1 0x1 DUP2 ADD SWAP1 POP PUSH2 0x1185 JUMP JUMPDEST POP POP JUMP JUMPDEST PUSH1 0x1F DUP3 GT ISZERO PUSH2 0x11E8 JUMPI PUSH2 0x11B9 DUP2 PUSH2 0x1088 JUMP JUMPDEST PUSH2 0x11C2 DUP5 PUSH2 0x109D JUMP JUMPDEST DUP2 ADD PUSH1 0x20 DUP6 LT ISZERO PUSH2 0x11D1 JUMPI DUP2 SWAP1 POP JUMPDEST PUSH2 0x11E5 PUSH2 0x11DD DUP6 PUSH2 0x109D JUMP JUMPDEST DUP4 ADD DUP3 PUSH2 0x1184 JUMP JUMPDEST POP POP JUMPDEST POP POP POP JUMP JUMPDEST PUSH1 0x0 DUP3 DUP3 SHR SWAP1 POP SWAP3 SWAP2 POP POP JUMP JUMPDEST PUSH1 0x0 PUSH2 0x120B PUSH1 0x0 NOT DUP5 PUSH1 0x8 MUL PUSH2 0x11ED JUMP JUMPDEST NOT DUP1 DUP4 AND SWAP2 POP POP SWAP3 SWAP2 POP POP JUMP JUMPDEST PUSH1 0x0 PUSH2 0x1224 DUP4 DUP4 PUSH2 0x11FA JUMP JUMPDEST SWAP2 POP DUP3 PUSH1 0x2 MUL DUP3 OR SWAP1 POP SWAP3 SWAP2 POP POP JUMP JUMPDEST PUSH2 0x123D DUP3 PUSH2 0xB59 JUMP JUMPDEST PUSH8 0xFFFFFFFFFFFFFFFF DUP2 GT ISZERO PUSH2 0x1256 JUMPI PUSH2 0x1255 PUSH2 0x1059 JUMP JUMPDEST JUMPDEST PUSH2 0x1260 DUP3 SLOAD PUSH2 0xFBC JUMP JUMPDEST PUSH2 0x126B DUP3 DUP3 DUP6 PUSH2 0x11A7 JUMP JUMPDEST PUSH1 0x0 PUSH1 0x20 SWAP1 POP PUSH1 0x1F DUP4 GT PUSH1 0x1 DUP2 EQ PUSH2 0x129E JUMPI PUSH1 0x0 DUP5 ISZERO PUSH2 0x128C JUMPI DUP3 DUP8 ADD MLOAD SWAP1 POP JUMPDEST PUSH2 0x1296 DUP6 DUP3 PUSH2 0x1218 JUMP JUMPDEST DUP7 SSTORE POP PUSH2 0x12FE JUMP JUMPDEST PUSH1 0x1F NOT DUP5 AND PUSH2 0x12AC DUP7 PUSH2 0x1088 JUMP JUMPDEST PUSH1 0x0 JUMPDEST DUP3 DUP2 LT ISZERO PUSH2 0x12D4 JUMPI DUP5 DUP10 ADD MLOAD DUP3 SSTORE PUSH1 0x1 DUP3 ADD SWAP2 POP PUSH1 0x20 DUP6 ADD SWAP5 POP PUSH1 0x20 DUP2 ADD SWAP1 POP PUSH2 0x12AF JUMP JUMPDEST DUP7 DUP4 LT ISZERO PUSH2 0x12F1 JUMPI DUP5 DUP10 ADD MLOAD PUSH2 0x12ED PUSH1 0x1F DUP10 AND DUP3 PUSH2 0x11FA JUMP JUMPDEST DUP4 SSTORE POP JUMPDEST PUSH1 0x1 PUSH1 0x2 DUP9 MUL ADD DUP9 SSTORE POP POP POP JUMPDEST POP POP POP POP POP POP JUMP JUMPDEST DUP3 DUP2 DUP4 CALLDATACOPY PUSH1 0x0 DUP4 DUP4 ADD MSTORE POP POP POP JUMP JUMPDEST PUSH1 0x0 PUSH2 0x1321 DUP4 DUP6 PUSH2 0xB64 JUMP JUMPDEST SWAP4 POP PUSH2 0x132E DUP4 DUP6 DUP5 PUSH2 0x1306 JUMP JUMPDEST PUSH2 0x1337 DUP4 PUSH2 0xB9F JUMP JUMPDEST DUP5 ADD SWAP1 POP SWAP4 SWAP3 POP POP POP JUMP JUMPDEST PUSH1 0x0 PUSH1 0x20 DUP3 ADD SWAP1 POP DUP2 DUP2 SUB PUSH1 0x0 DUP4 ADD MSTORE PUSH2 0x135D DUP2 DUP5 DUP7 PUSH2 0x1315 JUMP JUMPDEST SWAP1 POP SWAP4 SWAP3 POP POP POP JUMP INVALID LOG2 PUSH5 0x6970667358 0x22 SLT KECCAK256 CALL SELFDESTRUCT MCOPY SWAP9 0xE3 0xA9 PUSH15 0xDD46C32DEC1D851D4908FB53AF885E AND 0x4F 0x1F DUP13 PUSH11 0x255C95E98D64736F6C6343 STOP ADDMOD XOR STOP CALLER "},"methodIdentifiers":{"VOTES_REQUIRED()":"c4d665f1","getCaseStatus(bytes32)":"258198af","hasVoted(bytes32,address)":"aadc3b72","isCouncilMember(address)":"ebd7dc52","reports(bytes32)":"b39c4897","submitReport(bytes32,string)":"b97680d7","verifyCase(bytes32)":"224905ce"}}}}}