{"contracts/ShadowVault.sol":{"ShadowVault":{"abi":[{"inputs":[{"internalType":"address","name":"_verifier","type":"address"}],"stateMutability":"nonpayable","type":"constructor"},{"anonymous":false,"inputs":[{"indexed":true,"internalType":"bytes32","name":"commitment","type":"bytes32"},{"indexed":false,"internalType":"uint256","name":"leafIndex","type":"uint256"},{"indexed":false,"internalType":"uint256","name":"timestamp","type":"uint256"}],"name":"Deposit","type":"event"},{"anonymous":false,"inputs":[{"indexed":true,"internalType":"address","name":"recipient","type":"address"},{"indexed":false,"internalType":"bytes32","name":"nullifierHash","type":"bytes32"},{"indexed":false,"internalType":"uint256","name":"timestamp","type":"uint256"}],"name":"Withdrawal","type":"event"},{"inputs":[],"name":"DENOMINATION","outputs":[{"internalType":"uint256","name":"","type":"uint256"}],"stateMutability":"view","type":"function"},{"inputs":[],"name":"anonymitySetSize","outputs":[{"internalType":"uint256","name":"","type":"uint256"}],"stateMutability":"view","type":"function"},{"inputs":[{"internalType":"uint256","name":"","type":"uint256"}],"name":"commitmentHistory","outputs":[{"internalType":"bytes32","name":"","type":"bytes32"}],"stateMutability":"view","type":"function"},{"inputs":[{"internalType":"bytes32","name":"","type":"bytes32"}],"name":"commitments","outputs":[{"internalType":"bool","name":"","type":"bool"}],"stateMutability":"view","type":"function"},{"inputs":[{"internalType":"bytes32","name":"_commitment","type":"bytes32"}],"name":"deposit","outputs":[],"stateMutability":"payable","type":"function"},{"inputs":[{"internalType":"bytes32","name":"_commitment","type":"bytes32"}],"name":"isCommitmentValid","outputs":[{"internalType":"bool","name":"","type":"bool"}],"stateMutability":"view","type":"function"},{"inputs":[{"internalType":"bytes32","name":"_nullifierHash","type":"bytes32"}],"name":"isNullifierSpent","outputs":[{"internalType":"bool","name":"","type":"bool"}],"stateMutability":"view","type":"function"},{"inputs":[{"internalType":"bytes32","name":"","type":"bytes32"}],"name":"nullifierHashes","outputs":[{"internalType":"bool","name":"","type":"bool"}],"stateMutability":"view","type":"function"},{"inputs":[],"name":"verifier","outputs":[{"internalType":"contract IGroth16Verifier","name":"","type":"address"}],"stateMutability":"view","type":"function"},{"inputs":[{"internalType":"uint256[2]","name":"_pA","type":"uint256[2]"},{"internalType":"uint256[2][2]","name":"_pB","type":"uint256[2][2]"},{"internalType":"uint256[2]","name":"_pC","type":"uint256[2]"},{"internalType":"bytes32","name":"_commitment","type":"bytes32"},{"internalType":"bytes32","name":"_nullifierHash","type":"bytes32"},{"internalType":"address payable","name":"_recipient","type":"address"}],"name":"withdraw","outputs":[],"stateMutability":"nonpayable","type":"function"}],"evm":{"bytecode":{"linkReferences":{},"object":"60a06040523480156200001157600080fd5b50604051620014863803806200148683398181016040528101906200003791906200014e565b600073ffffffffffffffffffffffffffffffffffffffff168173ffffffffffffffffffffffffffffffffffffffff1603620000a9576040517f08c379a0000000000000000000000000000000000000000000000000000000008152600401620000a090620001e1565b60405180910390fd5b8073ffffffffffffffffffffffffffffffffffffffff1660808173ffffffffffffffffffffffffffffffffffffffff16815250505062000203565b600080fd5b600073ffffffffffffffffffffffffffffffffffffffff82169050919050565b60006200011682620000e9565b9050919050565b620001288162000109565b81146200013457600080fd5b50565b60008151905062000148816200011d565b92915050565b600060208284031215620001675762000166620000e4565b5b6000620001778482850162000137565b91505092915050565b600082825260208201905092915050565b7f5a65726f20766572696669657220616464726573730000000000000000000000600082015250565b6000620001c960158362000180565b9150620001d68262000191565b602082019050919050565b60006020820190508181036000830152620001fc81620001ba565b9050919050565b60805161126062000226600039600081816102af015261067e01526112606000f3fe6080604052600436106100915760003560e01c80638b01429d116100595780638b01429d146101a35780639f2944c1146101ce578063b214faa51461020b578063d5a4e32514610227578063dcab5d1e1461026457610091565b806317cc915c146100965780632b7ac3f3146100d35780632dc0d0d0146100fe57806342ffdb9914610129578063839df94514610166575b600080fd5b3480156100a257600080fd5b506100bd60048036038101906100b891906108cf565b61028d565b6040516100ca9190610917565b60405180910390f35b3480156100df57600080fd5b506100e86102ad565b6040516100f591906109b1565b60405180910390f35b34801561010a57600080fd5b506101136102d1565b60405161012091906109e5565b60405180910390f35b34801561013557600080fd5b50610150600480360381019061014b91906108cf565b6102de565b60405161015d9190610917565b60405180910390f35b34801561017257600080fd5b5061018d600480360381019061018891906108cf565b610307565b60405161019a9190610917565b60405180910390f35b3480156101af57600080fd5b506101b8610327565b6040516101c591906109e5565b60405180910390f35b3480156101da57600080fd5b506101f560048036038101906101f09190610a2c565b610333565b6040516102029190610a68565b60405180910390f35b610225600480360381019061022091906108cf565b610357565b005b34801561023357600080fd5b5061024e600480360381019061024991906108cf565b6104e8565b60405161025b9190610917565b60405180910390f35b34801561027057600080fd5b5061028b60048036038101906102869190610b0a565b610512565b005b60016020528060005260406000206000915054906101000a900460ff1681565b7f000000000000000000000000000000000000000000000000000000000000000081565b6000600280549050905090565b600080600083815260200190815260200160002060009054906101000a900460ff169050919050565b60006020528060005260406000206000915054906101000a900460ff1681565b67016345785d8a000081565b6002818154811061034357600080fd5b906000526020600020016000915090505481565b67016345785d8a000034146103a1576040517f08c379a000000000000000000000000000000000000000000000000000000000815260040161039890610bf8565b60405180910390fd5b6000801b81036103e6576040517f08c379a00000000000000000000000000000000000000000000000000000000081526004016103dd90610c64565b60405180910390fd5b60008082815260200190815260200160002060009054906101000a900460ff1615610446576040517f08c379a000000000000000000000000000000000000000000000000000000000815260040161043d90610cd0565b60405180910390fd5b600160008083815260200190815260200160002060006101000a81548160ff0219169083151502179055506002819080600181540180825580915050600190039060005260206000200160009091909190915055807fe1f1096fd8bc7d572fb7ad7e4102736b6615500975c0252ea91ef1b765c4989760016002805490506104ce9190610d1f565b426040516104dd929190610d53565b60405180910390a250565b60006001600083815260200190815260200160002060009054906101000a900460ff169050919050565b600073ffffffffffffffffffffffffffffffffffffffff168173ffffffffffffffffffffffffffffffffffffffff1603610581576040517f08c379a000000000000000000000000000000000000000000000000000000000815260040161057890610dc8565b60405180910390fd5b6001600083815260200190815260200160002060009054906101000a900460ff16156105e2576040517f08c379a00000000000000000000000000000000000000000000000000000000081526004016105d990610e34565b60405180910390fd5b60008084815260200190815260200160002060009054906101000a900460ff16610641576040517f08c379a000000000000000000000000000000000000000000000000000000000815260040161063890610ea0565b60405180910390fd5b600060405180606001604052808560001c81526020018460001c81526020018373ffffffffffffffffffffffffffffffffffffffff1681525090507f000000000000000000000000000000000000000000000000000000000000000073ffffffffffffffffffffffffffffffffffffffff166311479fea888888856040518563ffffffff1660e01b81526004016106db9493929190611043565b602060405180830381865afa1580156106f8573d6000803e3d6000fd5b505050506040513d601f19601f8201168201806040525081019061071c91906110b6565b61075b576040517f08c379a00000000000000000000000000000000000000000000000000000000081526004016107529061112f565b60405180910390fd5b600180600085815260200190815260200160002060006101000a81548160ff02191690831515021790555060008273ffffffffffffffffffffffffffffffffffffffff1667016345785d8a00006040516107b490611180565b60006040518083038185875af1925050503d80600081146107f1576040519150601f19603f3d011682016040523d82523d6000602084013e6107f6565b606091505b505090508061083a576040517f08c379a0000000000000000000000000000000000000000000000000000000008152600401610831906111e1565b60405180910390fd5b8273ffffffffffffffffffffffffffffffffffffffff167f4206db6775563d1043abfcf27cd0ecd19fcc464be574a1487fc95b24957a671a8542604051610882929190611201565b60405180910390a25050505050505050565b600080fd5b6000819050919050565b6108ac81610899565b81146108b757600080fd5b50565b6000813590506108c9816108a3565b92915050565b6000602082840312156108e5576108e4610894565b5b60006108f3848285016108ba565b91505092915050565b60008115159050919050565b610911816108fc565b82525050565b600060208201905061092c6000830184610908565b92915050565b600073ffffffffffffffffffffffffffffffffffffffff82169050919050565b6000819050919050565b600061097761097261096d84610932565b610952565b610932565b9050919050565b60006109898261095c565b9050919050565b600061099b8261097e565b9050919050565b6109ab81610990565b82525050565b60006020820190506109c660008301846109a2565b92915050565b6000819050919050565b6109df816109cc565b82525050565b60006020820190506109fa60008301846109d6565b92915050565b610a09816109cc565b8114610a1457600080fd5b50565b600081359050610a2681610a00565b92915050565b600060208284031215610a4257610a41610894565b5b6000610a5084828501610a17565b91505092915050565b610a6281610899565b82525050565b6000602082019050610a7d6000830184610a59565b92915050565b600080fd5b600081905082602060020282011115610aa457610aa3610a83565b5b92915050565b600081905082604060020282011115610ac657610ac5610a83565b5b92915050565b6000610ad782610932565b9050919050565b610ae781610acc565b8114610af257600080fd5b50565b600081359050610b0481610ade565b92915050565b6000806000806000806101608789031215610b2857610b27610894565b5b6000610b3689828a01610a88565b9650506040610b4789828a01610aaa565b95505060c0610b5889828a01610a88565b945050610100610b6a89828a016108ba565b935050610120610b7c89828a016108ba565b925050610140610b8e89828a01610af5565b9150509295509295509295565b600082825260208201905092915050565b7f53656e642065786163746c7920302e3120455448000000000000000000000000600082015250565b6000610be2601483610b9b565b9150610bed82610bac565b602082019050919050565b60006020820190508181036000830152610c1181610bd5565b9050919050565b7f496e76616c696420636f6d6d69746d656e740000000000000000000000000000600082015250565b6000610c4e601283610b9b565b9150610c5982610c18565b602082019050919050565b60006020820190508181036000830152610c7d81610c41565b9050919050565b7f436f6d6d69746d656e7420616c72656164792065786973747300000000000000600082015250565b6000610cba601983610b9b565b9150610cc582610c84565b602082019050919050565b60006020820190508181036000830152610ce981610cad565b9050919050565b7f4e487b7100000000000000000000000000000000000000000000000000000000600052601160045260246000fd5b6000610d2a826109cc565b9150610d35836109cc565b9250828203905081811115610d4d57610d4c610cf0565b5b92915050565b6000604082019050610d6860008301856109d6565b610d7560208301846109d6565b9392505050565b7f496e76616c696420726563697069656e74000000000000000000000000000000600082015250565b6000610db2601183610b9b565b9150610dbd82610d7c565b602082019050919050565b60006020820190508181036000830152610de181610da5565b9050919050565b7f4e756c6c696669657220616c7265616479207370656e74000000000000000000600082015250565b6000610e1e601783610b9b565b9150610e2982610de8565b602082019050919050565b60006020820190508181036000830152610e4d81610e11565b9050919050565b7f436f6d6d69746d656e7420646f6573206e6f7420657869737400000000000000600082015250565b6000610e8a601983610b9b565b9150610e9582610e54565b602082019050919050565b60006020820190508181036000830152610eb981610e7d565b9050919050565b82818337505050565b610ed560408383610ec0565b5050565b600060029050919050565b600081905092915050565b6000819050919050565b610f0560408383610ec0565b5050565b6000610f158383610ef9565b60408301905092915050565b600082905092915050565b6000604082019050919050565b610f4281610ed9565b610f4c8184610ee4565b9250610f5782610eef565b8060005b83811015610f9057610f6d8284610f21565b610f778782610f09565b9650610f8283610f2c565b925050600181019050610f5b565b505050505050565b600060039050919050565b600081905092915050565b6000819050919050565b610fc1816109cc565b82525050565b6000610fd38383610fb8565b60208301905092915050565b6000602082019050919050565b610ff581610f98565b610fff8184610fa3565b925061100a82610fae565b8060005b8381101561103b5781516110228782610fc7565b965061102d83610fdf565b92505060018101905061100e565b505050505050565b6000610160820190506110596000830187610ec9565b6110666040830186610f39565b61107360c0830185610ec9565b611081610100830184610fec565b95945050505050565b611093816108fc565b811461109e57600080fd5b50565b6000815190506110b08161108a565b92915050565b6000602082840312156110cc576110cb610894565b5b60006110da848285016110a1565b91505092915050565b7f496e76616c6964205a4b2070726f6f6600000000000000000000000000000000600082015250565b6000611119601083610b9b565b9150611124826110e3565b602082019050919050565b600060208201905081810360008301526111488161110c565b9050919050565b600081905092915050565b50565b600061116a60008361114f565b91506111758261115a565b600082019050919050565b600061118b8261115d565b9150819050919050565b7f455448207472616e73666572206661696c656400000000000000000000000000600082015250565b60006111cb601383610b9b565b91506111d682611195565b602082019050919050565b600060208201905081810360008301526111fa816111be565b9050919050565b60006040820190506112166000830185610a59565b61122360208301846109d6565b939250505056fea2646970667358221220b1697579180b9f8c6e7dd1befa9def381478833c810f3dcb0385cff9daa611fc64736f6c63430008180033","opcodes":"PUSH1 0xA0 PUSH1 0x40 MSTORE CALLVALUE DUP1 ISZERO PUSH3 0x11 JUMPI PUSH1 0x0 DUP1 REVERT JUMPDEST POP PUSH1 0x40 MLOAD PUSH3 0x1486 CODESIZE SUB DUP1 PUSH3 0x1486 DUP4 CODECOPY DUP2 DUP2 ADD PUSH1 0x40 MSTORE DUP2 ADD SWAP1 PUSH3 0x37 SWAP2 SWAP1 PUSH3 0x14E JUMP JUMPDEST PUSH1 0x0 PUSH20 0xFFFFFFFFFFFFFFFFFFFFFFFFFFFFFFFFFFFFFFFF AND DUP2 PUSH20 0xFFFFFFFFFFFFFFFFFFFFFFFFFFFFFFFFFFFFFFFF AND SUB PUSH3 0xA9 JUMPI PUSH1 0x40 MLOAD PUSH32 0x8C379A000000000000000000000000000000000000000000000000000000000 DUP2 MSTORE PUSH1 0x4 ADD PUSH3 0xA0 SWAP1 PUSH3 0x1E1 JUMP JUMPDEST PUSH1 0x40 MLOAD DUP1 SWAP2 SUB SWAP1 REVERT JUMPDEST DUP1 PUSH20 0xFFFFFFFFFFFFFFFFFFFFFFFFFFFFFFFFFFFFFFFF AND PUSH1 0x80 DUP2 PUSH20 0xFFFFFFFFFFFFFFFFFFFFFFFFFFFFFFFFFFFFFFFF AND DUP2 MSTORE POP POP POP PUSH3 0x203 JUMP JUMPDEST PUSH1 0x0 DUP1 REVERT JUMPDEST PUSH1 0x0 PUSH20 0xFFFFFFFFFFFFFFFFFFFFFFFFFFFFFFFFFFFFFFFF DUP3 AND SWAP1 POP SWAP2 SWAP1 POP JUMP JUMPDEST PUSH1 0x0 PUSH3 0x116 DUP3 PUSH3 0xE9 JUMP JUMPDEST SWAP1 POP SWAP2 SWAP1 POP JUMP JUMPDEST PUSH3 0x128 DUP2 PUSH3 0x109 JUMP JUMPDEST DUP2 EQ PUSH3 0x134 JUMPI PUSH1 0x0 DUP1 REVERT JUMPDEST POP JUMP JUMPDEST PUSH1 0x0 DUP2 MLOAD SWAP1 POP PUSH3 0x148 DUP2 PUSH3 0x11D JUMP JUMPDEST SWAP3 SWAP2 POP POP JUMP JUMPDEST PUSH1 0x0 PUSH1 0x20 DUP3 DUP5 SUB SLT ISZERO PUSH3 0x167 JUMPI PUSH3 0x166 PUSH3 0xE4 JUMP JUMPDEST JUMPDEST PUSH1 0x0 PUSH3 0x177 DUP5 DUP3 DUP6 ADD PUSH3 0x137 JUMP JUMPDEST SWAP2 POP POP SWAP3 SWAP2 POP POP JUMP JUMPDEST PUSH1 0x0 DUP3 DUP3 MSTORE PUSH1 0x20 DUP3 ADD SWAP1 POP SWAP3 SWAP2 POP POP JUMP JUMPDEST PUSH32 0x5A65726F20766572696669657220616464726573730000000000000000000000 PUSH1 0x0 DUP3 ADD MSTORE POP JUMP JUMPDEST PUSH1 0x0 PUSH3 0x1C9 PUSH1 0x15 DUP4 PUSH3 0x180 JUMP JUMPDEST SWAP2 POP PUSH3 0x1D6 DUP3 PUSH3 0x191 JUMP JUMPDEST PUSH1 0x20 DUP3 ADD SWAP1 POP SWAP2 SWAP1 POP JUMP JUMPDEST PUSH1 0x0 PUSH1 0x20 DUP3 ADD SWAP1 POP DUP2 DUP2 SUB PUSH1 0x0 DUP4 ADD MSTORE PUSH3 0x1FC DUP2 PUSH3 0x1BA JUMP JUMPDEST SWAP1 POP SWAP2 SWAP1 POP JUMP JUMPDEST PUSH1 0x80 MLOAD PUSH2 0x1260 PUSH3 0x226 PUSH1 0x0 CODECOPY PUSH1 0x0 DUP2 DUP2 PUSH2 0x2AF ADD MSTORE PUSH2 0x67E ADD MSTORE PUSH2 0x1260 PUSH1 0x0 RETURN INVALID PUSH1 0x80 PUSH1 0x40 MSTORE PUSH1 0x4 CALLDATASIZE LT PUSH2 0x91 JUMPI PUSH1 0x0 CALLDATALOAD PUSH1 0xE0 SHR DUP1 PUSH4 0x8B01429D GT PUSH2 0x59 JUMPI DUP1 PUSH4 0x8B01429D EQ PUSH2 0x1A3 JUMPI DUP1 PUSH4 0x9F2944C1 EQ PUSH2 0x1CE JUMPI DUP1 PUSH4 0xB214FAA5 EQ PUSH2 0x20B JUMPI DUP1 PUSH4 0xD5A4E325 EQ PUSH2 0x227 JUMPI DUP1 PUSH4 0xDCAB5D1E EQ PUSH2 0x264 JUMPI PUSH2 0x91 JUMP JUMPDEST DUP1 PUSH4 0x17CC915C EQ PUSH2 0x96 JUMPI DUP1 PUSH4 0x2B7AC3F3 EQ PUSH2 0xD3 JUMPI DUP1 PUSH4 0x2DC0D0D0 EQ PUSH2 0xFE JUMPI DUP1 PUSH4 0x42FFDB99 EQ PUSH2 0x129 JUMPI DUP1 PUSH4 0x839DF945 EQ PUSH2 0x166 JUMPI JUMPDEST PUSH1 0x0 DUP1 REVERT JUMPDEST CALLVALUE DUP1 ISZERO PUSH2 0xA2 JUMPI PUSH1 0x0 DUP1 REVERT JUMPDEST POP PUSH2 0xBD PUSH1 0x4 DUP1 CALLDATASIZE SUB DUP2 ADD SWAP1 PUSH2 0xB8 SWAP2 SWAP1 PUSH2 0x8CF JUMP JUMPDEST PUSH2 0x28D JUMP JUMPDEST PUSH1 0x40 MLOAD PUSH2 0xCA SWAP2 SWAP1 PUSH2 0x917 JUMP JUMPDEST PUSH1 0x40 MLOAD DUP1 SWAP2 SUB SWAP1 RETURN JUMPDEST CALLVALUE DUP1 ISZERO PUSH2 0xDF JUMPI PUSH1 0x0 DUP1 REVERT JUMPDEST POP PUSH2 0xE8 PUSH2 0x2AD JUMP JUMPDEST PUSH1 0x40 MLOAD PUSH2 0xF5 SWAP2 SWAP1 PUSH2 0x9B1 JUMP JUMPDEST PUSH1 0x40 MLOAD DUP1 SWAP2 SUB SWAP1 RETURN JUMPDEST CALLVALUE DUP1 ISZERO PUSH2 0x10A JUMPI PUSH1 0x0 DUP1 REVERT JUMPDEST POP PUSH2 0x113 PUSH2 0x2D1 JUMP JUMPDEST PUSH1 0x40 MLOAD PUSH2 0x120 SWAP2 SWAP1 PUSH2 0x9E5 JUMP JUMPDEST PUSH1 0x40 MLOAD DUP1 SWAP2 SUB SWAP1 RETURN JUMPDEST CALLVALUE DUP1 ISZERO PUSH2 0x135 JUMPI PUSH1 0x0 DUP1 REVERT JUMPDEST POP PUSH2 0x150 PUSH1 0x4 DUP1 CALLDATASIZE SUB DUP2 ADD SWAP1 PUSH2 0x14B SWAP2 SWAP1 PUSH2 0x8CF JUMP JUMPDEST PUSH2 0x2DE JUMP JUMPDEST PUSH1 0x40 MLOAD PUSH2 0x15D SWAP2 SWAP1 PUSH2 0x917 JUMP JUMPDEST PUSH1 0x40 MLOAD DUP1 SWAP2 SUB SWAP1 RETURN JUMPDEST CALLVALUE DUP1 ISZERO PUSH2 0x172 JUMPI PUSH1 0x0 DUP1 REVERT JUMPDEST POP PUSH2 0x18D PUSH1 0x4 DUP1 CALLDATASIZE SUB DUP2 ADD SWAP1 PUSH2 0x188 SWAP2 SWAP1 PUSH2 0x8CF JUMP JUMPDEST PUSH2 0x307 JUMP JUMPDEST PUSH1 0x40 MLOAD PUSH2 0x19A SWAP2 SWAP1 PUSH2 0x917 JUMP JUMPDEST PUSH1 0x40 MLOAD DUP1 SWAP2 SUB SWAP1 RETURN JUMPDEST CALLVALUE DUP1 ISZERO PUSH2 0x1AF JUMPI PUSH1 0x0 DUP1 REVERT JUMPDEST POP PUSH2 0x1B8 PUSH2 0x327 JUMP JUMPDEST PUSH1 0x40 MLOAD PUSH2 0x1C5 SWAP2 SWAP1 PUSH2 0x9E5 JUMP JUMPDEST PUSH1 0x40 MLOAD DUP1 SWAP2 SUB SWAP1 RETURN JUMPDEST CALLVALUE DUP1 ISZERO PUSH2 0x1DA JUMPI PUSH1 0x0 DUP1 REVERT JUMPDEST POP PUSH2 0x1F5 PUSH1 0x4 DUP1 CALLDATASIZE SUB DUP2 ADD SWAP1 PUSH2 0x1F0 SWAP2 SWAP1 PUSH2 0xA2C JUMP JUMPDEST PUSH2 0x333 JUMP JUMPDEST PUSH1 0x40 MLOAD PUSH2 0x202 SWAP2 SWAP1 PUSH2 0xA68 JUMP JUMPDEST PUSH1 0x40 MLOAD DUP1 SWAP2 SUB SWAP1 RETURN JUMPDEST PUSH2 0x225 PUSH1 0x4 DUP1 CALLDATASIZE SUB DUP2 ADD SWAP1 PUSH2 0x220 SWAP2 SWAP1 PUSH2 0x8CF JUMP JUMPDEST PUSH2 0x357 JUMP JUMPDEST STOP JUMPDEST CALLVALUE DUP1 ISZERO PUSH2 0x233 JUMPI PUSH1 0x0 DUP1 REVERT JUMPDEST POP PUSH2 0x24E PUSH1 0x4 DUP1 CALLDATASIZE SUB DUP2 ADD SWAP1 PUSH2 0x249 SWAP2 SWAP1 PUSH2 0x8CF JUMP JUMPDEST PUSH2 0x4E8 JUMP JUMPDEST PUSH1 0x40 MLOAD PUSH2 0x25B SWAP2 SWAP1 PUSH2 0x917 JUMP JUMPDEST PUSH1 0x40 MLOAD DUP1 SWAP2 SUB SWAP1 RETURN JUMPDEST CALLVALUE DUP1 ISZERO PUSH2 0x270 JUMPI PUSH1 0x0 DUP1 REVERT JUMPDEST POP PUSH2 0x28B PUSH1 0x4 DUP1 CALLDATASIZE SUB DUP2 ADD SWAP1 PUSH2 0x286 SWAP2 SWAP1 PUSH2 0xB0A JUMP JUMPDEST PUSH2 0x512 JUMP JUMPDEST STOP JUMPDEST PUSH1 0x1 PUSH1 0x20 MSTORE DUP1 PUSH1 0x0 MSTORE PUSH1 0x40 PUSH1 0x0 KECCAK256 PUSH1 0x0 SWAP2 POP SLOAD SWAP1 PUSH2 0x100 EXP SWAP1 DIV PUSH1 0xFF AND DUP2 JUMP JUMPDEST PUSH32 0x0 DUP2 JUMP JUMPDEST PUSH1 0x0 PUSH1 0x2 DUP1 SLOAD SWAP1 POP SWAP1 POP SWAP1 JUMP JUMPDEST PUSH1 0x0 DUP1 PUSH1 0x0 DUP4 DUP2 MSTORE PUSH1 0x20 ADD SWAP1 DUP2 MSTORE PUSH1 0x20 ADD PUSH1 0x0 KECCAK256 PUSH1 0x0 SWAP1 SLOAD SWAP1 PUSH2 0x100 EXP SWAP1 DIV PUSH1 0xFF AND SWAP1 POP SWAP2 SWAP1 POP JUMP JUMPDEST PUSH1 0x0 PUSH1 0x20 MSTORE DUP1 PUSH1 0x0 MSTORE PUSH1 0x40 PUSH1 0x0 KECCAK256 PUSH1 0x0 SWAP2 POP SLOAD SWAP1 PUSH2 0x100 EXP SWAP1 DIV PUSH1 0xFF AND DUP2 JUMP JUMPDEST PUSH8 0x16345785D8A0000 DUP2 JUMP JUMPDEST PUSH1 0x2 DUP2 DUP2 SLOAD DUP2 LT PUSH2 0x343 JUMPI PUSH1 0x0 DUP1 REVERT JUMPDEST SWAP1 PUSH1 0x0 MSTORE PUSH1 0x20 PUSH1 0x0 KECCAK256 ADD PUSH1 0x0 SWAP2 POP SWAP1 POP SLOAD DUP2 JUMP JUMPDEST PUSH8 0x16345785D8A0000 CALLVALUE EQ PUSH2 0x3A1 JUMPI PUSH1 0x40 MLOAD PUSH32 0x8C379A000000000000000000000000000000000000000000000000000000000 DUP2 MSTORE PUSH1 0x4 ADD PUSH2 0x398 SWAP1 PUSH2 0xBF8 JUMP JUMPDEST PUSH1 0x40 MLOAD DUP1 SWAP2 SUB SWAP1 REVERT JUMPDEST PUSH1 0x0 DUP1 SHL DUP2 SUB PUSH2 0x3E6 JUMPI PUSH1 0x40 MLOAD PUSH32 0x8C379A000000000000000000000000000000000000000000000000000000000 DUP2 MSTORE PUSH1 0x4 ADD PUSH2 0x3DD SWAP1 PUSH2 0xC64 JUMP JUMPDEST PUSH1 0x40 MLOAD DUP1 SWAP2 SUB SWAP1 REVERT JUMPDEST PUSH1 0x0 DUP1 DUP3 DUP2 MSTORE PUSH1 0x20 ADD SWAP1 DUP2 MSTORE PUSH1 0x20 ADD PUSH1 0x0 KECCAK256 PUSH1 0x0 SWAP1 SLOAD SWAP1 PUSH2 0x100 EXP SWAP1 DIV PUSH1 0xFF AND ISZERO PUSH2 0x446 JUMPI PUSH1 0x40 MLOAD PUSH32 0x8C379A000000000000000000000000000000000000000000000000000000000 DUP2 MSTORE PUSH1 0x4 ADD PUSH2 0x43D SWAP1 PUSH2 0xCD0 JUMP JUMPDEST PUSH1 0x40 MLOAD DUP1 SWAP2 SUB SWAP1 REVERT JUMPDEST PUSH1 0x1 PUSH1 0x0 DUP1 DUP4 DUP2 MSTORE PUSH1 0x20 ADD SWAP1 DUP2 MSTORE PUSH1 0x20 ADD PUSH1 0x0 KECCAK256 PUSH1 0x0 PUSH2 0x100 EXP DUP2 SLOAD DUP2 PUSH1 0xFF MUL NOT AND SWAP1 DUP4 ISZERO ISZERO MUL OR SWAP1 SSTORE POP PUSH1 0x2 DUP2 SWAP1 DUP1 PUSH1 0x1 DUP2 SLOAD ADD DUP1 DUP3 SSTORE DUP1 SWAP2 POP POP PUSH1 0x1 SWAP1 SUB SWAP1 PUSH1 0x0 MSTORE PUSH1 0x20 PUSH1 0x0 KECCAK256 ADD PUSH1 0x0 SWAP1 SWAP2 SWAP1 SWAP2 SWAP1 SWAP2 POP SSTORE DUP1 PUSH32 0xE1F1096FD8BC7D572FB7AD7E4102736B6615500975C0252EA91EF1B765C49897 PUSH1 0x1 PUSH1 0x2 DUP1 SLOAD SWAP1 POP PUSH2 0x4CE SWAP2 SWAP1 PUSH2 0xD1F JUMP JUMPDEST TIMESTAMP PUSH1 0x40 MLOAD PUSH2 0x4DD SWAP3 SWAP2 SWAP1 PUSH2 0xD53 JUMP JUMPDEST PUSH1 0x40 MLOAD DUP1 SWAP2 SUB SWAP1 LOG2 POP JUMP JUMPDEST PUSH1 0x0 PUSH1 0x1 PUSH1 0x0 DUP4 DUP2 MSTORE PUSH1 0x20 ADD SWAP1 DUP2 MSTORE PUSH1 0x20 ADD PUSH1 0x0 KECCAK256 PUSH1 0x0 SWAP1 SLOAD SWAP1 PUSH2 0x100 EXP SWAP1 DIV PUSH1 0xFF AND SWAP1 POP SWAP2 SWAP1 POP JUMP JUMPDEST PUSH1 0x0 PUSH20 0xFFFFFFFFFFFFFFFFFFFFFFFFFFFFFFFFFFFFFFFF AND DUP2 PUSH20 0xFFFFFFFFFFFFFFFFFFFFFFFFFFFFFFFFFFFFFFFF AND SUB PUSH2 0x581 JUMPI PUSH1 0x40 MLOAD PUSH32 0x8C379A000000000000000000000000000000000000000000000000000000000 DUP2 MSTORE PUSH1 0x4 ADD PUSH2 0x578 SWAP1 PUSH2 0xDC8 JUMP JUMPDEST PUSH1 0x40 MLOAD DUP1 SWAP2 SUB SWAP1 REVERT JUMPDEST PUSH1 0x1 PUSH1 0x0 DUP4 DUP2 MSTORE PUSH1 0x20 ADD SWAP1 DUP2 MSTORE PUSH1 0x20 ADD PUSH1 0x0 KECCAK256 PUSH1 0x0 SWAP1 SLOAD SWAP1 PUSH2 0x100 EXP SWAP1 DIV PUSH1 0xFF AND ISZERO PUSH2 0x5E2 JUMPI PUSH1 0x40 MLOAD PUSH32 0x8C379A000000000000000000000000000000000000000000000000000000000 DUP2 MSTORE PUSH1 0x4 ADD PUSH2 0x5D9 SWAP1 PUSH2 0xE34 JUMP JUMPDEST PUSH1 0x40 MLOAD DUP1 SWAP2 SUB SWAP1 REVERT JUMPDEST PUSH1 0x0 DUP1 DUP5 DUP2 MSTORE PUSH1 0x20 ADD SWAP1 DUP2 MSTORE PUSH1 0x20 ADD PUSH1 0x0 KECCAK256 PUSH1 0x0 SWAP1 SLOAD SWAP1 PUSH2 0x100 EXP SWAP1 DIV PUSH1 0xFF AND PUSH2 0x641 JUMPI PUSH1 0x40 MLOAD PUSH32 0x8C379A000000000000000000000000000000000000000000000000000000000 DUP2 MSTORE PUSH1 0x4 ADD PUSH2 0x638 SWAP1 PUSH2 0xEA0 JUMP JUMPDEST PUSH1 0x40 MLOAD DUP1 SWAP2 SUB SWAP1 REVERT JUMPDEST PUSH1 0x0 PUSH1 0x40 MLOAD DUP1 PUSH1 0x60 ADD PUSH1 0x40 MSTORE DUP1 DUP6 PUSH1 0x0 SHR DUP2 MSTORE PUSH1 0x20 ADD DUP5 PUSH1 0x0 SHR DUP2 MSTORE PUSH1 0x20 ADD DUP4 PUSH20 0xFFFFFFFFFFFFFFFFFFFFFFFFFFFFFFFFFFFFFFFF AND DUP2 MSTORE POP SWAP1 POP PUSH32 0x0 PUSH20 0xFFFFFFFFFFFFFFFFFFFFFFFFFFFFFFFFFFFFFFFF AND PUSH4 0x11479FEA DUP9 DUP9 DUP9 DUP6 PUSH1 0x40 MLOAD DUP6 PUSH4 0xFFFFFFFF AND PUSH1 0xE0 SHL DUP2 MSTORE PUSH1 0x4 ADD PUSH2 0x6DB SWAP5 SWAP4 SWAP3 SWAP2 SWAP1 PUSH2 0x1043 JUMP JUMPDEST PUSH1 0x20 PUSH1 0x40 MLOAD DUP1 DUP4 SUB DUP2 DUP7 GAS STATICCALL ISZERO DUP1 ISZERO PUSH2 0x6F8 JUMPI RETURNDATASIZE PUSH1 0x0 DUP1 RETURNDATACOPY RETURNDATASIZE PUSH1 0x0 REVERT JUMPDEST POP POP POP POP PUSH1 0x40 MLOAD RETURNDATASIZE PUSH1 0x1F NOT PUSH1 0x1F DUP3 ADD AND DUP3 ADD DUP1 PUSH1 0x40 MSTORE POP DUP2 ADD SWAP1 PUSH2 0x71C SWAP2 SWAP1 PUSH2 0x10B6 JUMP JUMPDEST PUSH2 0x75B JUMPI PUSH1 0x40 MLOAD PUSH32 0x8C379A000000000000000000000000000000000000000000000000000000000 DUP2 MSTORE PUSH1 0x4 ADD PUSH2 0x752 SWAP1 PUSH2 0x112F JUMP JUMPDEST PUSH1 0x40 MLOAD DUP1 SWAP2 SUB SWAP1 REVERT JUMPDEST PUSH1 0x1 DUP1 PUSH1 0x0 DUP6 DUP2 MSTORE PUSH1 0x20 ADD SWAP1 DUP2 MSTORE PUSH1 0x20 ADD PUSH1 0x0 KECCAK256 PUSH1 0x0 PUSH2 0x100 EXP DUP2 SLOAD DUP2 PUSH1 0xFF MUL NOT AND SWAP1 DUP4 ISZERO ISZERO MUL OR SWAP1 SSTORE POP PUSH1 0x0 DUP3 PUSH20 0xFFFFFFFFFFFFFFFFFFFFFFFFFFFFFFFFFFFFFFFF AND PUSH8 0x16345785D8A0000 PUSH1 0x40 MLOAD PUSH2 0x7B4 SWAP1 PUSH2 0x1180 JUMP JUMPDEST PUSH1 0x0 PUSH1 0x40 MLOAD DUP1 DUP4 SUB DUP2 DUP6 DUP8 GAS CALL SWAP3 POP POP POP RETURNDATASIZE DUP1 PUSH1 0x0 DUP2 EQ PUSH2 0x7F1 JUMPI PUSH1 0x40 MLOAD SWAP2 POP PUSH1 0x1F NOT PUSH1 0x3F RETURNDATASIZE ADD AND DUP3 ADD PUSH1 0x40 MSTORE RETURNDATASIZE DUP3 MSTORE RETURNDATASIZE PUSH1 0x0 PUSH1 0x20 DUP5 ADD RETURNDATACOPY PUSH2 0x7F6 JUMP JUMPDEST PUSH1 0x60 SWAP2 POP JUMPDEST POP POP SWAP1 POP DUP1 PUSH2 0x83A JUMPI PUSH1 0x40 MLOAD PUSH32 0x8C379A000000000000000000000000000000000000000000000000000000000 DUP2 MSTORE PUSH1 0x4 ADD PUSH2 0x831 SWAP1 PUSH2 0x11E1 JUMP JUMPDEST PUSH1 0x40 MLOAD DUP1 SWAP2 SUB SWAP1 REVERT JUMPDEST DUP3 PUSH20 0xFFFFFFFFFFFFFFFFFFFFFFFFFFFFFFFFFFFFFFFF AND PUSH32 0x4206DB6775563D1043ABFCF27CD0ECD19FCC464BE574A1487FC95B24957A671A DUP6 TIMESTAMP PUSH1 0x40 MLOAD PUSH2 0x882 SWAP3 SWAP2 SWAP1 PUSH2 0x1201 JUMP JUMPDEST PUSH1 0x40 MLOAD DUP1 SWAP2 SUB SWAP1 LOG2 POP POP POP POP POP POP POP POP JUMP JUMPDEST PUSH1 0x0 DUP1 REVERT JUMPDEST PUSH1 0x0 DUP2 SWAP1 POP SWAP2 SWAP1 POP JUMP JUMPDEST PUSH2 0x8AC DUP2 PUSH2 0x899 JUMP JUMPDEST DUP2 EQ PUSH2 0x8B7 JUMPI PUSH1 0x0 DUP1 REVERT JUMPDEST POP JUMP JUMPDEST PUSH1 0x0 DUP2 CALLDATALOAD SWAP1 POP PUSH2 0x8C9 DUP2 PUSH2 0x8A3 JUMP JUMPDEST SWAP3 SWAP2 POP POP JUMP JUMPDEST PUSH1 0x0 PUSH1 0x20 DUP3 DUP5 SUB SLT ISZERO PUSH2 0x8E5 JUMPI PUSH2 0x8E4 PUSH2 0x894 JUMP JUMPDEST JUMPDEST PUSH1 0x0 PUSH2 0x8F3 DUP5 DUP3 DUP6 ADD PUSH2 0x8BA JUMP JUMPDEST SWAP2 POP POP SWAP3 SWAP2 POP POP JUMP JUMPDEST PUSH1 0x0 DUP2 ISZERO ISZERO SWAP1 POP SWAP2 SWAP1 POP JUMP JUMPDEST PUSH2 0x911 DUP2 PUSH2 0x8FC JUMP JUMPDEST DUP3 MSTORE POP POP JUMP JUMPDEST PUSH1 0x0 PUSH1 0x20 DUP3 ADD SWAP1 POP PUSH2 0x92C PUSH1 0x0 DUP4 ADD DUP5 PUSH2 0x908 JUMP JUMPDEST SWAP3 SWAP2 POP POP JUMP JUMPDEST PUSH1 0x0 PUSH20 0xFFFFFFFFFFFFFFFFFFFFFFFFFFFFFFFFFFFFFFFF DUP3 AND SWAP1 POP SWAP2 SWAP1 POP JUMP JUMPDEST PUSH1 0x0 DUP2 SWAP1 POP SWAP2 SWAP1 POP JUMP JUMPDEST PUSH1 0x0 PUSH2 0x977 PUSH2 0x972 PUSH2 0x96D DUP5 PUSH2 0x932 JUMP JUMPDEST PUSH2 0x952 JUMP JUMPDEST PUSH2 0x932 JUMP JUMPDEST SWAP1 POP SWAP2 SWAP1 POP JUMP JUMPDEST PUSH1 0x0 PUSH2 0x989 DUP3 PUSH2 0x95C JUMP JUMPDEST SWAP1 POP SWAP2 SWAP1 POP JUMP JUMPDEST PUSH1 0x0 PUSH2 0x99B DUP3 PUSH2 0x97E JUMP JUMPDEST SWAP1 POP SWAP2 SWAP1 POP JUMP JUMPDEST PUSH2 0x9AB DUP2 PUSH2 0x990 JUMP JUMPDEST DUP3 MSTORE POP POP JUMP JUMPDEST PUSH1 0x0 PUSH1 0x20 DUP3 ADD SWAP1 POP PUSH2 0x9C6 PUSH1 0x0 DUP4 ADD DUP5 PUSH2 0x9A2 JUMP JUMPDEST SWAP3 SWAP2 POP POP JUMP JUMPDEST PUSH1 0x0 DUP2 SWAP1 POP SWAP2 SWAP1 POP JUMP JUMPDEST PUSH2 0x9DF DUP2 PUSH2 0x9CC JUMP JUMPDEST DUP3 MSTORE POP POP JUMP JUMPDEST PUSH1 0x0 PUSH1 0x20 DUP3 ADD SWAP1 POP PUSH2 0x9FA PUSH1 0x0 DUP4 ADD DUP5 PUSH2 0x9D6 JUMP JUMPDEST SWAP3 SWAP2 POP POP JUMP JUMPDEST PUSH2 0xA09 DUP2 PUSH2 0x9CC JUMP JUMPDEST DUP2 EQ PUSH2 0xA14 JUMPI PUSH1 0x0 DUP1 REVERT JUMPDEST POP JUMP JUMPDEST PUSH1 0x0 DUP2 CALLDATALOAD SWAP1 POP PUSH2 0xA26 DUP2 PUSH2 0xA00 JUMP JUMPDEST SWAP3 SWAP2 POP POP JUMP JUMPDEST PUSH1 0x0 PUSH1 0x20 DUP3 DUP5 SUB SLT ISZERO PUSH2 0xA42 JUMPI PUSH2 0xA41 PUSH2 0x894 JUMP JUMPDEST JUMPDEST PUSH1 0x0 PUSH2 0xA50 DUP5 DUP3 DUP6 ADD PUSH2 0xA17 JUMP JUMPDEST SWAP2 POP POP SWAP3 SWAP2 POP POP JUMP JUMPDEST PUSH2 0xA62 DUP2 PUSH2 0x899 JUMP JUMPDEST DUP3 MSTORE POP POP JUMP JUMPDEST PUSH1 0x0 PUSH1 0x20 DUP3 ADD SWAP1 POP PUSH2 0xA7D PUSH1 0x0 DUP4 ADD DUP5 PUSH2 0xA59 JUMP JUMPDEST SWAP3 SWAP2 POP POP JUMP JUMPDEST PUSH1 0x0 DUP1 REVERT JUMPDEST PUSH1 0x0 DUP2 SWAP1 POP DUP3 PUSH1 0x20 PUSH1 0x2 MUL DUP3 ADD GT ISZERO PUSH2 0xAA4 JUMPI PUSH2 0xAA3 PUSH2 0xA83 JUMP JUMPDEST JUMPDEST SWAP3 SWAP2 POP POP JUMP JUMPDEST PUSH1 0x0 DUP2 SWAP1 POP DUP3 PUSH1 0x40 PUSH1 0x2 MUL DUP3 ADD GT ISZERO PUSH2 0xAC6 JUMPI PUSH2 0xAC5 PUSH2 0xA83 JUMP JUMPDEST JUMPDEST SWAP3 SWAP2 POP POP JUMP JUMPDEST PUSH1 0x0 PUSH2 0xAD7 DUP3 PUSH2 0x932 JUMP JUMPDEST SWAP1 POP SWAP2 SWAP1 POP JUMP JUMPDEST PUSH2 0xAE7 DUP2 PUSH2 0xACC JUMP JUMPDEST DUP2 EQ PUSH2 0xAF2 JUMPI PUSH1 0x0 DUP1 REVERT JUMPDEST POP JUMP JUMPDEST PUSH1 0x0 DUP2 CALLDATALOAD SWAP1 POP PUSH2 0xB04 DUP2 PUSH2 0xADE JUMP JUMPDEST SWAP3 SWAP2 POP POP JUMP JUMPDEST PUSH1 0x0 DUP1 PUSH1 0x0 DUP1 PUSH1 0x0 DUP1 PUSH2 0x160 DUP8 DUP10 SUB SLT ISZERO PUSH2 0xB28 JUMPI PUSH2 0xB27 PUSH2 0x894 JUMP JUMPDEST JUMPDEST PUSH1 0x0 PUSH2 0xB36 DUP10 DUP3 DUP11 ADD PUSH2 0xA88 JUMP JUMPDEST SWAP7 POP POP PUSH1 0x40 PUSH2 0xB47 DUP10 DUP3 DUP11 ADD PUSH2 0xAAA JUMP JUMPDEST SWAP6 POP POP PUSH1 0xC0 PUSH2 0xB58 DUP10 DUP3 DUP11 ADD PUSH2 0xA88 JUMP JUMPDEST SWAP5 POP POP PUSH2 0x100 PUSH2 0xB6A DUP10 DUP3 DUP11 ADD PUSH2 0x8BA JUMP JUMPDEST SWAP4 POP POP PUSH2 0x120 PUSH2 0xB7C DUP10 DUP3 DUP11 ADD PUSH2 0x8BA JUMP JUMPDEST SWAP3 POP POP PUSH2 0x140 PUSH2 0xB8E DUP10 DUP3 DUP11 ADD PUSH2 0xAF5 JUMP JUMPDEST SWAP2 POP POP SWAP3 SWAP6 POP SWAP3 SWAP6 POP SWAP3 SWAP6 JUMP JUMPDEST PUSH1 0x0 DUP3 DUP3 MSTORE PUSH1 0x20 DUP3 ADD SWAP1 POP SWAP3 SWAP2 POP POP JUMP JUMPDEST PUSH32 0x53656E642065786163746C7920302E3120455448000000000000000000000000 PUSH1 0x0 DUP3 ADD MSTORE POP JUMP JUMPDEST PUSH1 0x0 PUSH2 0xBE2 PUSH1 0x14 DUP4 PUSH2 0xB9B JUMP JUMPDEST SWAP2 POP PUSH2 0xBED DUP3 PUSH2 0xBAC JUMP JUMPDEST PUSH1 0x20 DUP3 ADD SWAP1 POP SWAP2 SWAP1 POP JUMP JUMPDEST PUSH1 0x0 PUSH1 0x20 DUP3 ADD SWAP1 POP DUP2 DUP2 SUB PUSH1 0x0 DUP4 ADD MSTORE PUSH2 0xC11 DUP2 PUSH2 0xBD5 JUMP JUMPDEST SWAP1 POP SWAP2 SWAP1 POP JUMP JUMPDEST PUSH32 0x496E76616C696420636F6D6D69746D656E740000000000000000000000000000 PUSH1 0x0 DUP3 ADD MSTORE POP JUMP JUMPDEST PUSH1 0x0 PUSH2 0xC4E PUSH1 0x12 DUP4 PUSH2 0xB9B JUMP JUMPDEST SWAP2 POP PUSH2 0xC59 DUP3 PUSH2 0xC18 JUMP JUMPDEST PUSH1 0x20 DUP3 ADD SWAP1 POP SWAP2 SWAP1 POP JUMP JUMPDEST PUSH1 0x0 PUSH1 0x20 DUP3 ADD SWAP1 POP DUP2 DUP2 SUB PUSH1 0x0 DUP4 ADD MSTORE PUSH2 0xC7D DUP2 PUSH2 0xC41 JUMP JUMPDEST SWAP1 POP SWAP2 SWAP1 POP JUMP JUMPDEST PUSH32 0x436F6D6D69746D656E7420616C72656164792065786973747300000000000000 PUSH1 0x0 DUP3 ADD MSTORE POP JUMP JUMPDEST PUSH1 0x0 PUSH2 0xCBA PUSH1 0x19 DUP4 PUSH2 0xB9B JUMP JUMPDEST SWAP2 POP PUSH2 0xCC5 DUP3 PUSH2 0xC84 JUMP JUMPDEST PUSH1 0x20 DUP3 ADD SWAP1 POP SWAP2 SWAP1 POP JUMP JUMPDEST PUSH1 0x0 PUSH1 0x20 DUP3 ADD SWAP1 POP DUP2 DUP2 SUB PUSH1 0x0 DUP4 ADD MSTORE PUSH2 0xCE9 DUP2 PUSH2 0xCAD JUMP JUMPDEST SWAP1 POP SWAP2 SWAP1 POP JUMP JUMPDEST PUSH32 0x4E487B7100000000000000000000000000000000000000000000000000000000 PUSH1 0x0 MSTORE PUSH1 0x11 PUSH1 0x4 MSTORE PUSH1 0x24 PUSH1 0x0 REVERT JUMPDEST PUSH1 0x0 PUSH2 0xD2A DUP3 PUSH2 0x9CC JUMP JUMPDEST SWAP2 POP PUSH2 0xD35 DUP4 PUSH2 0x9CC JUMP JUMPDEST SWAP3 POP DUP3 DUP3 SUB SWAP1 POP DUP2 DUP2 GT ISZERO PUSH2 0xD4D JUMPI PUSH2 0xD4C PUSH2 0xCF0 JUMP JUMPDEST JUMPDEST SWAP3 SWAP2 POP POP JUMP JUMPDEST PUSH1 0x0 PUSH1 0x40 DUP3 ADD SWAP1 POP PUSH2 0xD68 PUSH1 0x0 DUP4 ADD DUP6 PUSH2 0x9D6 JUMP JUMPDEST PUSH2 0xD75 PUSH1 0x20 DUP4 ADD DUP5 PUSH2 0x9D6 JUMP JUMPDEST SWAP4 SWAP3 POP POP POP JUMP JUMPDEST PUSH32 0x496E76616C696420726563697069656E74000000000000000000000000000000 PUSH1 0x0 DUP3 ADD MSTORE POP JUMP JUMPDEST PUSH1 0x0 PUSH2 0xDB2 PUSH1 0x11 DUP4 PUSH2 0xB9B JUMP JUMPDEST SWAP2 POP PUSH2 0xDBD DUP3 PUSH2 0xD7C JUMP JUMPDEST PUSH1 0x20 DUP3 ADD SWAP1 POP SWAP2 SWAP1 POP JUMP JUMPDEST PUSH1 0x0 PUSH1 0x20 DUP3 ADD SWAP1 POP DUP2 DUP2 SUB PUSH1 0x0 DUP4 ADD MSTORE PUSH2 0xDE1 DUP2 PUSH2 0xDA5 JUMP JUMPDEST SWAP1 POP SWAP2 SWAP1 POP JUMP JUMPDEST PUSH32 0x4E756C6C696669657220616C7265616479207370656E74000000000000000000 PUSH1 0x0 DUP3 ADD MSTORE POP JUMP JUMPDEST PUSH1 0x0 PUSH2 0xE1E PUSH1 0x17 DUP4 PUSH2 0xB9B JUMP JUMPDEST SWAP2 POP PUSH2 0xE29 DUP3 PUSH2 0xDE8 JUMP JUMPDEST PUSH1 0x20 DUP3 ADD SWAP1 POP SWAP2 SWAP1 POP JUMP JUMPDEST PUSH1 0x0 PUSH1 0x20 DUP3 ADD SWAP1 POP DUP2 DUP2 SUB PUSH1 0x0 DUP4 ADD MSTORE PUSH2 0xE4D DUP2 PUSH2 0xE11 JUMP JUMPDEST SWAP1 POP SWAP2 SWAP1 POP JUMP JUMPDEST PUSH32 0x436F6D6D69746D656E7420646F6573206E6F7420657869737400000000000000 PUSH1 0x0 DUP3 ADD MSTORE POP JUMP JUMPDEST PUSH1 0x0 PUSH2 0xE8A PUSH1 0x19 DUP4 PUSH2 0xB9B JUMP JUMPDEST SWAP2 POP PUSH2 0xE95 DUP3 PUSH2 0xE54 JUMP JUMPDEST PUSH1 0x20 DUP3 ADD SWAP1 POP SWAP2 SWAP1 POP JUMP JUMPDEST PUSH1 0x0 PUSH1 0x20 DUP3 ADD SWAP1 POP DUP2 DUP2 SUB PUSH1 0x0 DUP4 ADD MSTORE PUSH2 0xEB9 DUP2 PUSH2 0xE7D JUMP JUMPDEST SWAP1 POP SWAP2 SWAP1 POP JUMP JUMPDEST DUP3 DUP2 DUP4 CALLDATACOPY POP POP POP JUMP JUMPDEST PUSH2 0xED5 PUSH1 0x40 DUP4 DUP4 PUSH2 0xEC0 JUMP JUMPDEST POP POP JUMP JUMPDEST PUSH1 0x0 PUSH1 0x2 SWAP1 POP SWAP2 SWAP1 POP JUMP JUMPDEST PUSH1 0x0 DUP2 SWAP1 POP SWAP3 SWAP2 POP POP JUMP JUMPDEST PUSH1 0x0 DUP2 SWAP1 POP SWAP2 SWAP1 POP JUMP JUMPDEST PUSH2 0xF05 PUSH1 0x40 DUP4 DUP4 PUSH2 0xEC0 JUMP JUMPDEST POP POP JUMP JUMPDEST PUSH1 0x0 PUSH2 0xF15 DUP4 DUP4 PUSH2 0xEF9 JUMP JUMPDEST PUSH1 0x40 DUP4 ADD SWAP1 POP SWAP3 SWAP2 POP POP JUMP JUMPDEST PUSH1 0x0 DUP3 SWAP1 POP SWAP3 SWAP2 POP POP JUMP JUMPDEST PUSH1 0x0 PUSH1 0x40 DUP3 ADD SWAP1 POP SWAP2 SWAP1 POP JUMP JUMPDEST PUSH2 0xF42 DUP2 PUSH2 0xED9 JUMP JUMPDEST PUSH2 0xF4C DUP2 DUP5 PUSH2 0xEE4 JUMP JUMPDEST SWAP3 POP PUSH2 0xF57 DUP3 PUSH2 0xEEF JUMP JUMPDEST DUP1 PUSH1 0x0 JUMPDEST DUP4 DUP2 LT ISZERO PUSH2 0xF90 JUMPI PUSH2 0xF6D DUP3 DUP5 PUSH2 0xF21 JUMP JUMPDEST PUSH2 0xF77 DUP8 DUP3 PUSH2 0xF09 JUMP JUMPDEST SWAP7 POP PUSH2 0xF82 DUP4 PUSH2 0xF2C JUMP JUMPDEST SWAP3 POP POP PUSH1 0x1 DUP2 ADD SWAP1 POP PUSH2 0xF5B JUMP JUMPDEST POP POP POP POP POP POP JUMP JUMPDEST PUSH1 0x0 PUSH1 0x3 SWAP1 POP SWAP2 SWAP1 POP JUMP JUMPDEST PUSH1 0x0 DUP2 SWAP1 POP SWAP3 SWAP2 POP POP JUMP JUMPDEST PUSH1 0x0 DUP2 SWAP1 POP SWAP2 SWAP1 POP JUMP JUMPDEST PUSH2 0xFC1 DUP2 PUSH2 0x9CC JUMP JUMPDEST DUP3 MSTORE POP POP JUMP JUMPDEST PUSH1 0x0 PUSH2 0xFD3 DUP4 DUP4 PUSH2 0xFB8 JUMP JUMPDEST PUSH1 0x20 DUP4 ADD SWAP1 POP SWAP3 SWAP2 POP POP JUMP JUMPDEST PUSH1 0x0 PUSH1 0x20 DUP3 ADD SWAP1 POP SWAP2 SWAP1 POP JUMP JUMPDEST PUSH2 0xFF5 DUP2 PUSH2 0xF98 JUMP JUMPDEST PUSH2 0xFFF DUP2 DUP5 PUSH2 0xFA3 JUMP JUMPDEST SWAP3 POP PUSH2 0x100A DUP3 PUSH2 0xFAE JUMP JUMPDEST DUP1 PUSH1 0x0 JUMPDEST DUP4 DUP2 LT ISZERO PUSH2 0x103B JUMPI DUP2 MLOAD PUSH2 0x1022 DUP8 DUP3 PUSH2 0xFC7 JUMP JUMPDEST SWAP7 POP PUSH2 0x102D DUP4 PUSH2 0xFDF JUMP JUMPDEST SWAP3 POP POP PUSH1 0x1 DUP2 ADD SWAP1 POP PUSH2 0x100E JUMP JUMPDEST POP POP POP POP POP POP JUMP JUMPDEST PUSH1 0x0 PUSH2 0x160 DUP3 ADD SWAP1 POP PUSH2 0x1059 PUSH1 0x0 DUP4 ADD DUP8 PUSH2 0xEC9 JUMP JUMPDEST PUSH2 0x1066 PUSH1 0x40 DUP4 ADD DUP7 PUSH2 0xF39 JUMP JUMPDEST PUSH2 0x1073 PUSH1 0xC0 DUP4 ADD DUP6 PUSH2 0xEC9 JUMP JUMPDEST PUSH2 0x1081 PUSH2 0x100 DUP4 ADD DUP5 PUSH2 0xFEC JUMP JUMPDEST SWAP6 SWAP5 POP POP POP POP POP JUMP JUMPDEST PUSH2 0x1093 DUP2 PUSH2 0x8FC JUMP JUMPDEST DUP2 EQ PUSH2 0x109E JUMPI PUSH1 0x0 DUP1 REVERT JUMPDEST POP JUMP JUMPDEST PUSH1 0x0 DUP2 MLOAD SWAP1 POP PUSH2 0x10B0 DUP2 PUSH2 0x108A JUMP JUMPDEST SWAP3 SWAP2 POP POP JUMP JUMPDEST PUSH1 0x0 PUSH1 0x20 DUP3 DUP5 SUB SLT ISZERO PUSH2 0x10CC JUMPI PUSH2 0x10CB PUSH2 0x894 JUMP JUMPDEST JUMPDEST PUSH1 0x0 PUSH2 0x10DA DUP5 DUP3 DUP6 ADD PUSH2 0x10A1 JUMP JUMPDEST SWAP2 POP POP SWAP3 SWAP2 POP POP JUMP JUMPDEST PUSH32 0x496E76616C6964205A4B2070726F6F6600000000000000000000000000000000 PUSH1 0x0 DUP3 ADD MSTORE POP JUMP JUMPDEST PUSH1 0x0 PUSH2 0x1119 PUSH1 0x10 DUP4 PUSH2 0xB9B JUMP JUMPDEST SWAP2 POP PUSH2 0x1124 DUP3 PUSH2 0x10E3 JUMP JUMPDEST PUSH1 0x20 DUP3 ADD SWAP1 POP SWAP2 SWAP1 POP JUMP JUMPDEST PUSH1 0x0 PUSH1 0x20 DUP3 ADD SWAP1 POP DUP2 DUP2 SUB PUSH1 0x0 DUP4 ADD MSTORE PUSH2 0x1148 DUP2 PUSH2 0x110C JUMP JUMPDEST SWAP1 POP SWAP2 SWAP1 POP JUMP JUMPDEST PUSH1 0x0 DUP2 SWAP1 POP SWAP3 SWAP2 POP POP JUMP JUMPDEST POP JUMP JUMPDEST PUSH1 0x0 PUSH2 0x116A PUSH1 0x0 DUP4 PUSH2 0x114F JUMP JUMPDEST SWAP2 POP PUSH2 0x1175 DUP3 PUSH2 0x115A JUMP JUMPDEST PUSH1 0x0 DUP3 ADD SWAP1 POP SWAP2 SWAP1 POP JUMP JUMPDEST PUSH1 0x0 PUSH2 0x118B DUP3 PUSH2 0x115D JUMP JUMPDEST SWAP2 POP DUP2 SWAP1 POP SWAP2 SWAP1 POP JUMP JUMPDEST PUSH32 0x455448207472616E73666572206661696C656400000000000000000000000000 PUSH1 0x0 DUP3 ADD MSTORE POP JUMP JUMPDEST PUSH1 0x0 PUSH2 0x11CB PUSH1 0x13 DUP4 PUSH2 0xB9B JUMP JUMPDEST SWAP2 POP PUSH2 0x11D6 DUP3 PUSH2 0x1195 JUMP JUMPDEST PUSH1 0x20 DUP3 ADD SWAP1 POP SWAP2 SWAP1 POP JUMP JUMPDEST PUSH1 0x0 PUSH1 0x20 DUP3 ADD SWAP1 POP DUP2 DUP2 SUB PUSH1 0x0 DUP4 ADD MSTORE PUSH2 0x11FA DUP2 PUSH2 0x11BE JUMP JUMPDEST SWAP1 POP SWAP2 SWAP1 POP JUMP JUMPDEST PUSH1 0x0 PUSH1 0x40 DUP3 ADD SWAP1 POP PUSH2 0x1216 PUSH1 0x0 DUP4 ADD DUP6 PUSH2 0xA59 JUMP JUMPDEST PUSH2 0x1223 PUSH1 0x20 DUP4 ADD DUP5 PUSH2 0x9D6 JUMP JUMPDEST SWAP4 SWAP3 POP POP POP JUMP INVALID LOG2 PUSH5 0x6970667358 0x22 SLT KECCAK256 0xB1 PUSH10 0x7579180B9F8C6E7DD1BE STATICCALL SWAP14 0xEF CODESIZE EQ PUSH25 0x833C810F3DCB0385CFF9DAA611FC64736F6C63430008180033 "},"methodIdentifiers":{"DENOMINATION()":"8b01429d","anonymitySetSize()":"2dc0d0d0","commitmentHistory(uint256)":"9f2944c1","commitments(bytes32)":"839df945","deposit(bytes32)":"b214faa5","isCommitmentValid(bytes32)":"42ffdb99","isNullifierSpent(bytes32)":"d5a4e325","nullifierHashes(bytes32)":"17cc915c","verifier()":"2b7ac3f3","withdraw(uint256[2],uint256[2][2],uint256[2],bytes32,bytes32,address)":"dcab5d1e"}}}}}