{"contracts/Groth16Verifier.sol":{"Groth16Verifier":{"abi":[{"inputs":[],"name":"DEV_MODE","outputs":[{"internalType":"bool","name":"","type":"bool"}],"stateMutability":"view","type":"function"},{"inputs":[{"internalType":"uint256[2]","name":"pA","type":"uint256[2]"},{"internalType":"uint256[2][2]","name":"pB","type":"uint256[2][2]"},{"internalType":"uint256[2]","name":"pC","type":"uint256[2]"},{"internalType":"uint256[3]","name":"publicSignals","type":"uint256[3]"}],"name":"verifyProof","outputs":[{"internalType":"bool","name":"","type":"bool"}],"stateMutability":"view","type":"function"}],"evm":{"bytecode":{"linkReferences":{},"object":"608060405234801561001057600080fd5b5061054e806100206000396000f3fe608060405234801561001057600080fd5b50600436106100365760003560e01c806311479fea1461003b578063894d8fd61461006b575b600080fd5b61005560048036038101906100509190610263565b610089565b60405161006291906102e7565b60405180910390f35b6100736101ee565b60405161008091906102e7565b60405180910390f35b600080826000600381106100a05761009f610302565b5b6020020135036100e5576040517f08c379a00000000000000000000000000000000000000000000000000000000081526004016100dc9061038e565b60405180910390fd5b6000826001600381106100fb576100fa610302565b5b602002013503610140576040517f08c379a0000000000000000000000000000000000000000000000000000000008152600401610137906103fa565b60405180910390fd5b60008260026003811061015657610155610302565b5b60200201350361019b576040517f08c379a000000000000000000000000000000000000000000000000000000000815260040161019290610466565b60405180910390fd5b6001156101ab57600190506101e6565b6040517f08c379a00000000000000000000000000000000000000000000000000000000081526004016101dd906104f8565b60405180910390fd5b949350505050565b600181565b600080fd5b600080fd5b600081905082602060020282011115610219576102186101f8565b5b92915050565b60008190508260406002028201111561023b5761023a6101f8565b5b92915050565b60008190508260206003028201111561025d5761025c6101f8565b5b92915050565b600080600080610160858703121561027e5761027d6101f3565b5b600061028c878288016101fd565b945050604061029d8782880161021f565b93505060c06102ae878288016101fd565b9250506101006102c087828801610241565b91505092959194509250565b60008115159050919050565b6102e1816102cc565b82525050565b60006020820190506102fc60008301846102d8565b92915050565b7f4e487b7100000000000000000000000000000000000000000000000000000000600052603260045260246000fd5b600082825260208201905092915050565b7f436f6d6d69746d656e742063616e6e6f74206265207a65726f00000000000000600082015250565b6000610378601983610331565b915061038382610342565b602082019050919050565b600060208201905081810360008301526103a78161036b565b9050919050565b7f4e756c6c6966696572486173682063616e6e6f74206265207a65726f00000000600082015250565b60006103e4601c83610331565b91506103ef826103ae565b602082019050919050565b60006020820190508181036000830152610413816103d7565b9050919050565b7f526563697069656e742063616e6e6f74206265207a65726f0000000000000000600082015250565b6000610450601883610331565b915061045b8261041a565b602082019050919050565b6000602082019050818103600083015261047f81610443565b9050919050565b7f47656e6572617465207265616c2076657269666965722076696120736574757060008201527f2d63697263756974732e636a7300000000000000000000000000000000000000602082015250565b60006104e2602d83610331565b91506104ed82610486565b604082019050919050565b60006020820190508181036000830152610511816104d5565b905091905056fea2646970667358221220e564fb32e50aeee6d96b7766e3d71ac6c9135c5f9511364c3df788239fcdaad264736f6c63430008180033","opcodes":"PUSH1 0x80 PUSH1 0x40 MSTORE CALLVALUE DUP1 ISZERO PUSH2 0x10 JUMPI PUSH1 0x0 DUP1 REVERT JUMPDEST POP PUSH2 0x54E DUP1 PUSH2 0x20 PUSH1 0x0 CODECOPY PUSH1 0x0 RETURN INVALID PUSH1 0x80 PUSH1 0x40 MSTORE CALLVALUE DUP1 ISZERO PUSH2 0x10 JUMPI PUSH1 0x0 DUP1 REVERT JUMPDEST POP PUSH1 0x4 CALLDATASIZE LT PUSH2 0x36 JUMPI PUSH1 0x0 CALLDATALOAD PUSH1 0xE0 SHR DUP1 PUSH4 0x11479FEA EQ PUSH2 0x3B JUMPI DUP1 PUSH4 0x894D8FD6 EQ PUSH2 0x6B JUMPI JUMPDEST PUSH1 0x0 DUP1 REVERT JUMPDEST PUSH2 0x55 PUSH1 0x4 DUP1 CALLDATASIZE SUB DUP2 ADD SWAP1 PUSH2 0x50 SWAP2 SWAP1 PUSH2 0x263 JUMP JUMPDEST PUSH2 0x89 JUMP JUMPDEST PUSH1 0x40 MLOAD PUSH2 0x62 SWAP2 SWAP1 PUSH2 0x2E7 JUMP JUMPDEST PUSH1 0x40 MLOAD DUP1 SWAP2 SUB SWAP1 RETURN JUMPDEST PUSH2 0x73 PUSH2 0x1EE JUMP JUMPDEST PUSH1 0x40 MLOAD PUSH2 0x80 SWAP2 SWAP1 PUSH2 0x2E7 JUMP JUMPDEST PUSH1 0x40 MLOAD DUP1 SWAP2 SUB SWAP1 RETURN JUMPDEST PUSH1 0x0 DUP1 DUP3 PUSH1 0x0 PUSH1 0x3 DUP2 LT PUSH2 0xA0 JUMPI PUSH2 0x9F PUSH2 0x302 JUMP JUMPDEST JUMPDEST PUSH1 0x20 MUL ADD CALLDATALOAD SUB PUSH2 0xE5 JUMPI PUSH1 0x40 MLOAD PUSH32 0x8C379A000000000000000000000000000000000000000000000000000000000 DUP2 MSTORE PUSH1 0x4 ADD PUSH2 0xDC SWAP1 PUSH2 0x38E JUMP JUMPDEST PUSH1 0x40 MLOAD DUP1 SWAP2 SUB SWAP1 REVERT JUMPDEST PUSH1 0x0 DUP3 PUSH1 0x1 PUSH1 0x3 DUP2 LT PUSH2 0xFB JUMPI PUSH2 0xFA PUSH2 0x302 JUMP JUMPDEST JUMPDEST PUSH1 0x20 MUL ADD CALLDATALOAD SUB PUSH2 0x140 JUMPI PUSH1 0x40 MLOAD PUSH32 0x8C379A000000000000000000000000000000000000000000000000000000000 DUP2 MSTORE PUSH1 0x4 ADD PUSH2 0x137 SWAP1 PUSH2 0x3FA JUMP JUMPDEST PUSH1 0x40 MLOAD DUP1 SWAP2 SUB SWAP1 REVERT JUMPDEST PUSH1 0x0 DUP3 PUSH1 0x2 PUSH1 0x3 DUP2 LT PUSH2 0x156 JUMPI PUSH2 0x155 PUSH2 0x302 JUMP JUMPDEST JUMPDEST PUSH1 0x20 MUL ADD CALLDATALOAD SUB PUSH2 0x19B JUMPI PUSH1 0x40 MLOAD PUSH32 0x8C379A000000000000000000000000000000000000000000000000000000000 DUP2 MSTORE PUSH1 0x4 ADD PUSH2 0x192 SWAP1 PUSH2 0x466 JUMP JUMPDEST PUSH1 0x40 MLOAD DUP1 SWAP2 SUB SWAP1 REVERT JUMPDEST PUSH1 0x1 ISZERO PUSH2 0x1AB JUMPI PUSH1 0x1 SWAP1 POP PUSH2 0x1E6 JUMP JUMPDEST PUSH1 0x40 MLOAD PUSH32 0x8C379A000000000000000000000000000000000000000000000000000000000 DUP2 MSTORE PUSH1 0x4 ADD PUSH2 0x1DD SWAP1 PUSH2 0x4F8 JUMP JUMPDEST PUSH1 0x40 MLOAD DUP1 SWAP2 SUB SWAP1 REVERT JUMPDEST SWAP5 SWAP4 POP POP POP POP JUMP JUMPDEST PUSH1 0x1 DUP2 JUMP JUMPDEST PUSH1 0x0 DUP1 REVERT JUMPDEST PUSH1 0x0 DUP1 REVERT JUMPDEST PUSH1 0x0 DUP2 SWAP1 POP DUP3 PUSH1 0x20 PUSH1 0x2 MUL DUP3 ADD GT ISZERO PUSH2 0x219 JUMPI PUSH2 0x218 PUSH2 0x1F8 JUMP JUMPDEST JUMPDEST SWAP3 SWAP2 POP POP JUMP JUMPDEST PUSH1 0x0 DUP2 SWAP1 POP DUP3 PUSH1 0x40 PUSH1 0x2 MUL DUP3 ADD GT ISZERO PUSH2 0x23B JUMPI PUSH2 0x23A PUSH2 0x1F8 JUMP JUMPDEST JUMPDEST SWAP3 SWAP2 POP POP JUMP JUMPDEST PUSH1 0x0 DUP2 SWAP1 POP DUP3 PUSH1 0x20 PUSH1 0x3 MUL DUP3 ADD GT ISZERO PUSH2 0x25D JUMPI PUSH2 0x25C PUSH2 0x1F8 JUMP JUMPDEST JUMPDEST SWAP3 SWAP2 POP POP JUMP JUMPDEST PUSH1 0x0 DUP1 PUSH1 0x0 DUP1 PUSH2 0x160 DUP6 DUP8 SUB SLT ISZERO PUSH2 0x27E JUMPI PUSH2 0x27D PUSH2 0x1F3 JUMP JUMPDEST JUMPDEST PUSH1 0x0 PUSH2 0x28C DUP8 DUP3 DUP9 ADD PUSH2 0x1FD JUMP JUMPDEST SWAP5 POP POP PUSH1 0x40 PUSH2 0x29D DUP8 DUP3 DUP9 ADD PUSH2 0x21F JUMP JUMPDEST SWAP4 POP POP PUSH1 0xC0 PUSH2 0x2AE DUP8 DUP3 DUP9 ADD PUSH2 0x1FD JUMP JUMPDEST SWAP3 POP POP PUSH2 0x100 PUSH2 0x2C0 DUP8 DUP3 DUP9 ADD PUSH2 0x241 JUMP JUMPDEST SWAP2 POP POP SWAP3 SWAP6 SWAP2 SWAP5 POP SWAP3 POP JUMP JUMPDEST PUSH1 0x0 DUP2 ISZERO ISZERO SWAP1 POP SWAP2 SWAP1 POP JUMP JUMPDEST PUSH2 0x2E1 DUP2 PUSH2 0x2CC JUMP JUMPDEST DUP3 MSTORE POP POP JUMP JUMPDEST PUSH1 0x0 PUSH1 0x20 DUP3 ADD SWAP1 POP PUSH2 0x2FC PUSH1 0x0 DUP4 ADD DUP5 PUSH2 0x2D8 JUMP JUMPDEST SWAP3 SWAP2 POP POP JUMP JUMPDEST PUSH32 0x4E487B7100000000000000000000000000000000000000000000000000000000 PUSH1 0x0 MSTORE PUSH1 0x32 PUSH1 0x4 MSTORE PUSH1 0x24 PUSH1 0x0 REVERT JUMPDEST PUSH1 0x0 DUP3 DUP3 MSTORE PUSH1 0x20 DUP3 ADD SWAP1 POP SWAP3 SWAP2 POP POP JUMP JUMPDEST PUSH32 0x436F6D6D69746D656E742063616E6E6F74206265207A65726F00000000000000 PUSH1 0x0 DUP3 ADD MSTORE POP JUMP JUMPDEST PUSH1 0x0 PUSH2 0x378 PUSH1 0x19 DUP4 PUSH2 0x331 JUMP JUMPDEST SWAP2 POP PUSH2 0x383 DUP3 PUSH2 0x342 JUMP JUMPDEST PUSH1 0x20 DUP3 ADD SWAP1 POP SWAP2 SWAP1 POP JUMP JUMPDEST PUSH1 0x0 PUSH1 0x20 DUP3 ADD SWAP1 POP DUP2 DUP2 SUB PUSH1 0x0 DUP4 ADD MSTORE PUSH2 0x3A7 DUP2 PUSH2 0x36B JUMP JUMPDEST SWAP1 POP SWAP2 SWAP1 POP JUMP JUMPDEST PUSH32 0x4E756C6C6966696572486173682063616E6E6F74206265207A65726F00000000 PUSH1 0x0 DUP3 ADD MSTORE POP JUMP JUMPDEST PUSH1 0x0 PUSH2 0x3E4 PUSH1 0x1C DUP4 PUSH2 0x331 JUMP JUMPDEST SWAP2 POP PUSH2 0x3EF DUP3 PUSH2 0x3AE JUMP JUMPDEST PUSH1 0x20 DUP3 ADD SWAP1 POP SWAP2 SWAP1 POP JUMP JUMPDEST PUSH1 0x0 PUSH1 0x20 DUP3 ADD SWAP1 POP DUP2 DUP2 SUB PUSH1 0x0 DUP4 ADD MSTORE PUSH2 0x413 DUP2 PUSH2 0x3D7 JUMP JUMPDEST SWAP1 POP SWAP2 SWAP1 POP JUMP JUMPDEST PUSH32 0x526563697069656E742063616E6E6F74206265207A65726F0000000000000000 PUSH1 0x0 DUP3 ADD MSTORE POP JUMP JUMPDEST PUSH1 0x0 PUSH2 0x450 PUSH1 0x18 DUP4 PUSH2 0x331 JUMP JUMPDEST SWAP2 POP PUSH2 0x45B DUP3 PUSH2 0x41A JUMP JUMPDEST PUSH1 0x20 DUP3 ADD SWAP1 POP SWAP2 SWAP1 POP JUMP JUMPDEST PUSH1 0x0 PUSH1 0x20 DUP3 ADD SWAP1 POP DUP2 DUP2 SUB PUSH1 0x0 DUP4 ADD MSTORE PUSH2 0x47F DUP2 PUSH2 0x443 JUMP JUMPDEST SWAP1 POP SWAP2 SWAP1 POP JUMP JUMPDEST PUSH32 0x47656E6572617465207265616C20766572696669657220766961207365747570 PUSH1 0x0 DUP3 ADD MSTORE PUSH32 0x2D63697263756974732E636A7300000000000000000000000000000000000000 PUSH1 0x20 DUP3 ADD MSTORE POP JUMP JUMPDEST PUSH1 0x0 PUSH2 0x4E2 PUSH1 0x2D DUP4 PUSH2 0x331 JUMP JUMPDEST SWAP2 POP PUSH2 0x4ED DUP3 PUSH2 0x486 JUMP JUMPDEST PUSH1 0x40 DUP3 ADD SWAP1 POP SWAP2 SWAP1 POP JUMP JUMPDEST PUSH1 0x0 PUSH1 0x20 DUP3 ADD SWAP1 POP DUP2 DUP2 SUB PUSH1 0x0 DUP4 ADD MSTORE PUSH2 0x511 DUP2 PUSH2 0x4D5 JUMP JUMPDEST SWAP1 POP SWAP2 SWAP1 POP JUMP INVALID LOG2 PUSH5 0x6970667358 0x22 SLT KECCAK256 0xE5 PUSH5 0xFB32E50AEE 0xE6 0xD9 PUSH12 0x7766E3D71AC6C9135C5F9511 CALLDATASIZE 0x4C RETURNDATASIZE 0xF7 DUP9 0x23 SWAP16 0xCD 0xAA 0xD2 PUSH5 0x736F6C6343 STOP ADDMOD XOR STOP CALLER "},"methodIdentifiers":{"DEV_MODE()":"894d8fd6","verifyProof(uint256[2],uint256[2][2],uint256[2],uint256[3])":"11479fea"}}}}}