{
  "_format": "hh-sol-artifact-1",
  "contractName": "CivicChainRegistry",
  "sourceName": "contracts/CivicChainRegistry.sol",
  "abi": [
    {
      "inputs": [],
      "stateMutability": "nonpayable",
      "type": "constructor"
    },
    {
      "anonymous": false,
      "inputs": [
        {
          "indexed": true,
          "internalType": "address",
          "name": "agency",
          "type": "address"
        },
        {
          "indexed": false,
          "internalType": "string",
          "name": "department",
          "type": "string"
        },
        {
          "indexed": false,
          "internalType": "string",
          "name": "publicKey",
          "type": "string"
        }
      ],
      "name": "AgencyRegistered",
      "type": "event"
    },
    {
      "anonymous": false,
      "inputs": [
        {
          "indexed": true,
          "internalType": "uint256",
          "name": "caseId",
          "type": "uint256"
        },
        {
          "indexed": true,
          "internalType": "address",
          "name": "creator",
          "type": "address"
        },
        {
          "indexed": false,
          "internalType": "string",
          "name": "metadataCID",
          "type": "string"
        },
        {
          "indexed": false,
          "internalType": "string",
          "name": "department",
          "type": "string"
        }
      ],
      "name": "CaseCreated",
      "type": "event"
    },
    {
      "anonymous": false,
      "inputs": [
        {
          "indexed": true,
          "internalType": "uint256",
          "name": "caseId",
          "type": "uint256"
        }
      ],
      "name": "PublicEscalationTriggered",
      "type": "event"
    },
    {
      "anonymous": false,
      "inputs": [
        {
          "indexed": true,
          "internalType": "uint256",
          "name": "caseId",
          "type": "uint256"
        },
        {
          "indexed": false,
          "internalType": "enum CivicChainRegistry.CaseStatus",
          "name": "newStatus",
          "type": "uint8"
        }
      ],
      "name": "StatusUpdated",
      "type": "event"
    },
    {
      "inputs": [
        {
          "internalType": "address",
          "name": "agency",
          "type": "address"
        },
        {
          "internalType": "string",
          "name": "department",
          "type": "string"
        }
      ],
      "name": "addAgency",
      "outputs": [],
      "stateMutability": "nonpayable",
      "type": "function"
    },
    {
      "inputs": [],
      "name": "admin",
      "outputs": [
        {
          "internalType": "address",
          "name": "",
          "type": "address"
        }
      ],
      "stateMutability": "view",
      "type": "function"
    },
    {
      "inputs": [
        {
          "internalType": "address",
          "name": "",
          "type": "address"
        }
      ],
      "name": "agencyPublicKeys",
      "outputs": [
        {
          "internalType": "string",
          "name": "",
          "type": "string"
        }
      ],
      "stateMutability": "view",
      "type": "function"
    },
    {
      "inputs": [
        {
          "internalType": "address",
          "name": "",
          "type": "address"
        }
      ],
      "name": "authorizedAgencies",
      "outputs": [
        {
          "internalType": "bool",
          "name": "",
          "type": "bool"
        }
      ],
      "stateMutability": "view",
      "type": "function"
    },
    {
      "inputs": [],
      "name": "caseCount",
      "outputs": [
        {
          "internalType": "uint256",
          "name": "",
          "type": "uint256"
        }
      ],
      "stateMutability": "view",
      "type": "function"
    },
    {
      "inputs": [
        {
          "internalType": "uint256",
          "name": "",
          "type": "uint256"
        }
      ],
      "name": "cases",
      "outputs": [
        {
          "internalType": "uint256",
          "name": "caseId",
          "type": "uint256"
        },
        {
          "internalType": "address",
          "name": "creator",
          "type": "address"
        },
        {
          "internalType": "bytes32",
          "name": "fileHash",
          "type": "bytes32"
        },
        {
          "internalType": "uint256",
          "name": "createdAt",
          "type": "uint256"
        },
        {
          "internalType": "uint256",
          "name": "slaDeadline",
          "type": "uint256"
        },
        {
          "internalType": "enum CivicChainRegistry.CaseStatus",
          "name": "status",
          "type": "uint8"
        }
      ],
      "stateMutability": "view",
      "type": "function"
    },
    {
      "inputs": [
        {
          "internalType": "bytes32",
          "name": "_fileHash",
          "type": "bytes32"
        },
        {
          "internalType": "string",
          "name": "_metadataCID",
          "type": "string"
        },
        {
          "internalType": "string",
          "name": "_department",
          "type": "string"
        }
      ],
      "name": "createCase",
      "outputs": [
        {
          "internalType": "uint256",
          "name": "",
          "type": "uint256"
        }
      ],
      "stateMutability": "nonpayable",
      "type": "function"
    },
    {
      "inputs": [
        {
          "internalType": "string",
          "name": "",
          "type": "string"
        }
      ],
      "name": "departmentToAgency",
      "outputs": [
        {
          "internalType": "address",
          "name": "",
          "type": "address"
        }
      ],
      "stateMutability": "view",
      "type": "function"
    },
    {
      "inputs": [
        {
          "internalType": "string",
          "name": "department",
          "type": "string"
        }
      ],
      "name": "getAgencyPublicKey",
      "outputs": [
        {
          "internalType": "string",
          "name": "",
          "type": "string"
        }
      ],
      "stateMutability": "view",
      "type": "function"
    },
    {
      "inputs": [
        {
          "internalType": "string",
          "name": "department",
          "type": "string"
        },
        {
          "internalType": "string",
          "name": "publicKey",
          "type": "string"
        }
      ],
      "name": "registerAgencyDetails",
      "outputs": [],
      "stateMutability": "nonpayable",
      "type": "function"
    },
    {
      "inputs": [
        {
          "internalType": "uint256",
          "name": "_caseId",
          "type": "uint256"
        }
      ],
      "name": "triggerEscalation",
      "outputs": [],
      "stateMutability": "nonpayable",
      "type": "function"
    },
    {
      "inputs": [
        {
          "internalType": "uint256",
          "name": "_caseId",
          "type": "uint256"
        },
        {
          "internalType": "enum CivicChainRegistry.CaseStatus",
          "name": "_newStatus",
          "type": "uint8"
        }
      ],
      "name": "updateStatus",
      "outputs": [],
      "stateMutability": "nonpayable",
      "type": "function"
    }
  ],
  "bytecode": "0x608060405234801561001057600080fd5b5033600260006101000a81548173ffffffffffffffffffffffffffffffffffffffff021916908373ffffffffffffffffffffffffffffffffffffffff160217905550611d20806100616000396000f3fe608060405234801561001057600080fd5b50600436106100b45760003560e01c8063c87ef70111610071578063c87ef701146101b1578063c996bf15146101cd578063da2d7e95146101fd578063f09790dd1461021b578063f5e14f5a14610250578063f851a4401461026c576100b4565b806308f14fed146100b95780633a1b3d31146100e957806350799785146101055780638777c6a8146101215780639999081a14610151578063b1996b0714610181575b600080fd5b6100d360048036038101906100ce9190611039565b61028a565b6040516100e09190611101565b60405180910390f35b61010360048036038101906100fe919061117e565b61040e565b005b61011f600480360381019061011a91906111be565b610645565b005b61013b60048036038101906101369190611039565b610881565b604051610148919061122c565b60405180910390f35b61016b60048036038101906101669190611273565b6108ca565b60405161017891906112bb565b60405180910390f35b61019b6004803603810190610196919061130c565b6108ea565b6040516101a891906113a6565b60405180910390f35b6101cb60048036038101906101c691906113c1565b610a7f565b005b6101e760048036038101906101e29190611273565b610c61565b6040516101f49190611101565b60405180910390f35b610205610d01565b60405161021291906113a6565b60405180910390f35b610235600480360381019061023091906111be565b610d07565b604051610247969594939291906114bf565b60405180910390f35b61026a60048036038101906102659190611520565b610d70565b005b610274610eb9565b604051610281919061122c565b60405180910390f35b6060600060048360405161029e91906115b8565b908152602001604051809103902060009054906101000a900473ffffffffffffffffffffffffffffffffffffffff169050600073ffffffffffffffffffffffffffffffffffffffff168173ffffffffffffffffffffffffffffffffffffffff160361033e576040517f08c379a00000000000000000000000000000000000000000000000000000000081526004016103359061161b565b60405180910390fd5b600560008273ffffffffffffffffffffffffffffffffffffffff1673ffffffffffffffffffffffffffffffffffffffff16815260200190815260200160002080546103889061166a565b80601f01602080910402602001604051908101604052809291908181526020018280546103b49061166a565b80156104015780601f106103d657610100808354040283529160200191610401565b820191906000526020600020905b8154815290600101906020018083116103e457829003601f168201915b5050505050915050919050565b600360003373ffffffffffffffffffffffffffffffffffffffff1673ffffffffffffffffffffffffffffffffffffffff16815260200190815260200160002060009054906101000a900460ff16806104b35750600260009054906101000a900473ffffffffffffffffffffffffffffffffffffffff1673ffffffffffffffffffffffffffffffffffffffff163373ffffffffffffffffffffffffffffffffffffffff16145b6104f2576040517f08c379a00000000000000000000000000000000000000000000000000000000081526004016104e9906116e7565b60405180910390fd5b60008211801561050457506001548211155b610543576040517f08c379a000000000000000000000000000000000000000000000000000000000815260040161053a90611753565b60405180910390fd5b6003600681111561055757610556611448565b5b60008084815260200190815260200160002060050160009054906101000a900460ff16600681111561058c5761058b611448565b5b036105cc576040517f08c379a00000000000000000000000000000000000000000000000000000000081526004016105c3906117e5565b60405180910390fd5b8060008084815260200190815260200160002060050160006101000a81548160ff0219169083600681111561060457610603611448565b5b0217905550817f2da7b23ca63c1eb969eee5fae4acb98186abecf5358b0354a82a5183ebca6b2a826040516106399190611805565b60405180910390a25050565b60008111801561065757506001548111155b610696576040517f08c379a000000000000000000000000000000000000000000000000000000000815260040161068d90611753565b60405180910390fd5b60008060008381526020019081526020016000209050806004015442116106f2576040517f08c379a00000000000000000000000000000000000000000000000000000000081526004016106e99061186c565b60405180910390fd5b6000600681111561070657610705611448565b5b8160050160009054906101000a900460ff16600681111561072a57610729611448565b5b148061076b57506001600681111561074557610744611448565b5b8160050160009054906101000a900460ff16600681111561076957610768611448565b5b145b806107ab57506002600681111561078557610784611448565b5b8160050160009054906101000a900460ff1660068111156107a9576107a8611448565b5b145b6107ea576040517f08c379a00000000000000000000000000000000000000000000000000000000081526004016107e1906118fe565b60405180910390fd5b60038160050160006101000a81548160ff0219169083600681111561081257610811611448565b5b0217905550817f2da7b23ca63c1eb969eee5fae4acb98186abecf5358b0354a82a5183ebca6b2a60036040516108489190611805565b60405180910390a2817f6e94a7b758cd510278841f00f51e41ba01b5430f73fc515cb9ebf9f0c5dcf1f660405160405180910390a25050565b6004818051602081018201805184825260208301602085012081835280955050505050506000915054906101000a900473ffffffffffffffffffffffffffffffffffffffff1681565b60036020528060005260406000206000915054906101000a900460ff1681565b6000600160008154809291906108ff9061194d565b9190505550600060015490506040518060c001604052808281526020013373ffffffffffffffffffffffffffffffffffffffff1681526020018681526020014281526020016213c680426109539190611995565b81526020016000600681111561096c5761096b611448565b5b8152506000808381526020019081526020016000206000820151816000015560208201518160010160006101000a81548173ffffffffffffffffffffffffffffffffffffffff021916908373ffffffffffffffffffffffffffffffffffffffff16021790555060408201518160020155606082015181600301556080820151816004015560a08201518160050160006101000a81548160ff02191690836006811115610a1b57610a1a611448565b5b02179055509050503373ffffffffffffffffffffffffffffffffffffffff16817fcd29ad816d80aa66db971719cfd948b5f3b0de8b3e94c7f89182014bc2bd81a58686604051610a6c9291906119c9565b60405180910390a3809150509392505050565b600360003373ffffffffffffffffffffffffffffffffffffffff1673ffffffffffffffffffffffffffffffffffffffff16815260200190815260200160002060009054906101000a900460ff1680610b245750600260009054906101000a900473ffffffffffffffffffffffffffffffffffffffff1673ffffffffffffffffffffffffffffffffffffffff163373ffffffffffffffffffffffffffffffffffffffff16145b610b63576040517f08c379a0000000000000000000000000000000000000000000000000000000008152600401610b5a906116e7565b60405180910390fd5b80600560003373ffffffffffffffffffffffffffffffffffffffff1673ffffffffffffffffffffffffffffffffffffffff1681526020019081526020016000209081610baf9190611bac565b5033600483604051610bc191906115b8565b908152602001604051809103902060006101000a81548173ffffffffffffffffffffffffffffffffffffffff021916908373ffffffffffffffffffffffffffffffffffffffff1602179055503373ffffffffffffffffffffffffffffffffffffffff167f6adeb04e8a89ef1dfcc9e4d022301d26fb5f7dfc303e42519b83312b12c09e578383604051610c559291906119c9565b60405180910390a25050565b60056020528060005260406000206000915090508054610c809061166a565b80601f0160208091040260200160405190810160405280929190818152602001828054610cac9061166a565b8015610cf95780601f10610cce57610100808354040283529160200191610cf9565b820191906000526020600020905b815481529060010190602001808311610cdc57829003601f168201915b505050505081565b60015481565b60006020528060005260406000206000915090508060000154908060010160009054906101000a900473ffffffffffffffffffffffffffffffffffffffff16908060020154908060030154908060040154908060050160009054906101000a900460ff16905086565b600260009054906101000a900473ffffffffffffffffffffffffffffffffffffffff1673ffffffffffffffffffffffffffffffffffffffff163373ffffffffffffffffffffffffffffffffffffffff1614610e00576040517f08c379a0000000000000000000000000000000000000000000000000000000008152600401610df790611cca565b60405180910390fd5b6001600360008473ffffffffffffffffffffffffffffffffffffffff1673ffffffffffffffffffffffffffffffffffffffff16815260200190815260200160002060006101000a81548160ff02191690831515021790555081600482604051610e6991906115b8565b908152602001604051809103902060006101000a81548173ffffffffffffffffffffffffffffffffffffffff021916908373ffffffffffffffffffffffffffffffffffffffff1602179055505050565b600260009054906101000a900473ffffffffffffffffffffffffffffffffffffffff1681565b6000604051905090565b600080fd5b600080fd5b600080fd5b600080fd5b6000601f19601f8301169050919050565b7f4e487b7100000000000000000000000000000000000000000000000000000000600052604160045260246000fd5b610f4682610efd565b810181811067ffffffffffffffff82111715610f6557610f64610f0e565b5b80604052505050565b6000610f78610edf565b9050610f848282610f3d565b919050565b600067ffffffffffffffff821115610fa457610fa3610f0e565b5b610fad82610efd565b9050602081019050919050565b82818337600083830152505050565b6000610fdc610fd784610f89565b610f6e565b905082815260208101848484011115610ff857610ff7610ef8565b5b611003848285610fba565b509392505050565b600082601f8301126110205761101f610ef3565b5b8135611030848260208601610fc9565b91505092915050565b60006020828403121561104f5761104e610ee9565b5b600082013567ffffffffffffffff81111561106d5761106c610eee565b5b6110798482850161100b565b91505092915050565b600081519050919050565b600082825260208201905092915050565b60005b838110156110bc5780820151818401526020810190506110a1565b60008484015250505050565b60006110d382611082565b6110dd818561108d565b93506110ed81856020860161109e565b6110f681610efd565b840191505092915050565b6000602082019050818103600083015261111b81846110c8565b905092915050565b6000819050919050565b61113681611123565b811461114157600080fd5b50565b6000813590506111538161112d565b92915050565b6007811061116657600080fd5b50565b60008135905061117881611159565b92915050565b6000806040838503121561119557611194610ee9565b5b60006111a385828601611144565b92505060206111b485828601611169565b9150509250929050565b6000602082840312156111d4576111d3610ee9565b5b60006111e284828501611144565b91505092915050565b600073ffffffffffffffffffffffffffffffffffffffff82169050919050565b6000611216826111eb565b9050919050565b6112268161120b565b82525050565b6000602082019050611241600083018461121d565b92915050565b6112508161120b565b811461125b57600080fd5b50565b60008135905061126d81611247565b92915050565b60006020828403121561128957611288610ee9565b5b60006112978482850161125e565b91505092915050565b60008115159050919050565b6112b5816112a0565b82525050565b60006020820190506112d060008301846112ac565b92915050565b6000819050919050565b6112e9816112d6565b81146112f457600080fd5b50565b600081359050611306816112e0565b92915050565b60008060006060848603121561132557611324610ee9565b5b6000611333868287016112f7565b935050602084013567ffffffffffffffff81111561135457611353610eee565b5b6113608682870161100b565b925050604084013567ffffffffffffffff81111561138157611380610eee565b5b61138d8682870161100b565b9150509250925092565b6113a081611123565b82525050565b60006020820190506113bb6000830184611397565b92915050565b600080604083850312156113d8576113d7610ee9565b5b600083013567ffffffffffffffff8111156113f6576113f5610eee565b5b6114028582860161100b565b925050602083013567ffffffffffffffff81111561142357611422610eee565b5b61142f8582860161100b565b9150509250929050565b611442816112d6565b82525050565b7f4e487b7100000000000000000000000000000000000000000000000000000000600052602160045260246000fd5b6007811061148857611487611448565b5b50565b600081905061149982611477565b919050565b60006114a98261148b565b9050919050565b6114b98161149e565b82525050565b600060c0820190506114d46000830189611397565b6114e1602083018861121d565b6114ee6040830187611439565b6114fb6060830186611397565b6115086080830185611397565b61151560a08301846114b0565b979650505050505050565b6000806040838503121561153757611536610ee9565b5b60006115458582860161125e565b925050602083013567ffffffffffffffff81111561156657611565610eee565b5b6115728582860161100b565b9150509250929050565b600081905092915050565b600061159282611082565b61159c818561157c565b93506115ac81856020860161109e565b80840191505092915050565b60006115c48284611587565b915081905092915050565b7f4465706172746d656e74206e6f74207265676973746572656400000000000000600082015250565b600061160560198361108d565b9150611610826115cf565b602082019050919050565b60006020820190508181036000830152611634816115f8565b9050919050565b7f4e487b7100000000000000000000000000000000000000000000000000000000600052602260045260246000fd5b6000600282049050600182168061168257607f821691505b6020821081036116955761169461163b565b5b50919050565b7f4e6f7420617574686f72697a6564000000000000000000000000000000000000600082015250565b60006116d1600e8361108d565b91506116dc8261169b565b602082019050919050565b60006020820190508181036000830152611700816116c4565b9050919050565b7f496e76616c696420636173652049440000000000000000000000000000000000600082015250565b600061173d600f8361108d565b915061174882611707565b602082019050919050565b6000602082019050818103600083015261176c81611730565b9050919050565b7f43616e6e6f742075706461746520657363616c617465642063617365206e617460008201527f6976656c79000000000000000000000000000000000000000000000000000000602082015250565b60006117cf60258361108d565b91506117da82611773565b604082019050919050565b600060208201905081810360008301526117fe816117c2565b9050919050565b600060208201905061181a60008301846114b0565b92915050565b7f534c4120646561646c696e65206e6f7420796574207265616368656400000000600082015250565b6000611856601c8361108d565b915061186182611820565b602082019050919050565b6000602082019050818103600083015261188581611849565b9050919050565b7f43617365206973206e6f7420696e20616e20657363616c617461626c6520737460008201527f6174650000000000000000000000000000000000000000000000000000000000602082015250565b60006118e860238361108d565b91506118f38261188c565b604082019050919050565b60006020820190508181036000830152611917816118db565b9050919050565b7f4e487b7100000000000000000000000000000000000000000000000000000000600052601160045260246000fd5b600061195882611123565b91507fffffffffffffffffffffffffffffffffffffffffffffffffffffffffffffffff820361198a5761198961191e565b5b600182019050919050565b60006119a082611123565b91506119ab83611123565b92508282019050808211156119c3576119c261191e565b5b92915050565b600060408201905081810360008301526119e381856110c8565b905081810360208301526119f781846110c8565b90509392505050565b60008190508160005260206000209050919050565b60006020601f8301049050919050565b600082821b905092915050565b600060088302611a627fffffffffffffffffffffffffffffffffffffffffffffffffffffffffffffffff82611a25565b611a6c8683611a25565b95508019841693508086168417925050509392505050565b6000819050919050565b6000611aa9611aa4611a9f84611123565b611a84565b611123565b9050919050565b6000819050919050565b611ac383611a8e565b611ad7611acf82611ab0565b848454611a32565b825550505050565b600090565b611aec611adf565b611af7818484611aba565b505050565b5b81811015611b1b57611b10600082611ae4565b600181019050611afd565b5050565b601f821115611b6057611b3181611a00565b611b3a84611a15565b81016020851015611b49578190505b611b5d611b5585611a15565b830182611afc565b50505b505050565b600082821c905092915050565b6000611b8360001984600802611b65565b1980831691505092915050565b6000611b9c8383611b72565b9150826002028217905092915050565b611bb582611082565b67ffffffffffffffff811115611bce57611bcd610f0e565b5b611bd8825461166a565b611be3828285611b1f565b600060209050601f831160018114611c165760008415611c04578287015190505b611c0e8582611b90565b865550611c76565b601f198416611c2486611a00565b60005b82811015611c4c57848901518255600182019150602085019450602081019050611c27565b86831015611c695784890151611c65601f891682611b72565b8355505b6001600288020188555050505b505050505050565b7f4f6e6c792061646d696e2063616e2063616c6c20746869730000000000000000600082015250565b6000611cb460188361108d565b9150611cbf82611c7e565b602082019050919050565b60006020820190508181036000830152611ce381611ca7565b905091905056fea26469706673582212201294a70292c86123f7cda6517b76bad1d9b21c2126f3148ff08d5e9ee97e0ad464736f6c63430008180033",
  "linkReferences": {},
  "deployedLinkReferences": {}
}